:020000040800F2
:10C00000E0250020DDC1000841F300086DED0008C7
:10C01000E9F200080DC30008550001080000000007
:10C0200000000000000000000000000051F90008BE
:10C03000DBC400080000000045F300082DFA0008EA
:10C04000F7C10008F7C10008F7C10008F7C10008F0
:10C05000F7C10008F7C10008F7C10008F7C10008E0
:10C06000F7C10008F7C10008DDC40008F7C10008E7
:10C07000F7C10008F7C10008F7C10008F7C10008C0
:10C08000F7C10008A1C30008F7C10008F7C1000804
:10C0900011C30008F7C10008F7C10008F7C1000884
:10C0A000F7C10008F7C10008F7C10008F7C1000890
:10C0B000F7C10008F7C10008F7C10008F7C1000880
:10C0C000F7C10008F7C10008F7C10008F7C1000870
:10C0D000F7C10008F7C10008F7C10008F7C1000860
:10C0E000F7C10008F7C10008F7C10008F7C1000850
:10C0F000F7C10008F7C10008F7C10008F7C1000840
:10C10000F7C10008F7C10008F7C10008F7C100082F
:10C11000F7C10008F7C10008F7C10008F7C100081F
:10C12000B1C30008F7C10008F7C10008C1C3000887
:10C13000F7C100080000000000000000F7C100087F
:10C14000F7C1000821C30008F7C10008F7C10008C3
:10C15000F7C10008F7C10008F7C10008F7C10008DF
:10C16000F7C10008F7C10008F7C10008F7C10008CF
:10C17000F7C10008F7C10008F7C10008000000007F
:10C1800000000000F7C100080000000000000000EF
:10C19000F7C100080000000000000000F7C100081F
:10C1A000000000000000000000000000F7C10008CF
:10C1B000F7C10008F7C10008F7C10008F7C100087F
:10C1C000F7C10008DFF810D000F08EF800480047F3
:10C1D000590A0108AFF30080E02500200648804797
:10C1E00006480047FEE7FEE7FEE7FEE7FEE7FEE75C
:10C1F000FEE7FEE7FEE7FEE7F1FA0008C5C100082A
:10C200002DE9F05F0546002092469B46884606468B
:10C21000814640241BE0284641464746224600F01E
:10C2200053F853465A46C01A914110D31146184646
:10C23000224600F03AF82D1A67EB01084F462246D5
:10C240000120002100F031F817EB00094E41201EBB
:10C25000A4F10104DFDC484631462A464346BDE8E6
:10C26000F09F40EA01039B0703D009E008C9121FB1
:10C2700008C0042AFAD203E011F8013B00F8013BA0
:10C28000521EF9D27047D2B201E000F8012B491ECC
:10C29000FBD270470022F6E710B513460A46044663
:10C2A0001946FFF7F0FF204610BD202A04DB203A94
:10C2B00000FA02F1002070479140C2F1200320FAF9
:10C2C00003F3194390407047202A04DB203A21FAF7
:10C2D00002F00021704721FA02F3D040C2F120029F
:10C2E0009140084319467047064C074D06E0E06848
:10C2F00040F0010394E8070098471034AC42F6D3AD
:10C30000FFF764FF200B0108400B010800BFFEE7A8
:10C3100010B5024800F00DFD10BD000044000020E3
:10C3200010B5024800F005FD10BD00006C000020B3
:10C3300070B586B005460C46164600200290039064
:10C34000049005902069039020680290002004E08A
:10C35000325C04A90A54411CC8B221698142F7D851
:10C360000B492868884206D105980090094802A91F
:10C370000EC903F00BF808492868884206D10598D1
:10C380000090064802A90EC903F000F806B070BD7F
:10C39000006400409C030020006800403C10002026
:10C3A00010B5024801F00CF810BD00003C0200205E
:10C3B00010B5024801F004F810BD0000EC000020A8
:10C3C00010B5024800F0FCFF10BD00004C01002039
:10C3D0000146087810381823B0FBF3F20848805C57
:10C3E000C865032A05D908686FF30900001D886530
:10C3F00003E008686FF309008865886D70470000E6
:10C40000000B0108014600208A6A8B69CBB932B162
:10C41000012A0DD0022A03D0032A10D10EE000BF5A
:10C42000CB6A03F08073B3F1807F00D1012007E075
:10C43000CB6AB3F1C07F00D1012001E000E000BF72
:10C4400034E08B69B3F5005F1AD132B1012A07D00D
:10C45000022A03D0032A11D10AE000BF01200EE016
:10C46000CB6A03F08073B3F1807F00D1012006E036
:10C47000CB6AB3F1C07F00D1012000E000BF15E01E
:10C4800032B1012A05D0022A04D0032A0CD103E0DC
:10C4900000BF00BF012008E0CB6A03F08073B3F156
:10C4A000807F00D1012000E000BF00BF704730B5A1
:10C4B0000468246824F4802405682C6004686360A0
:10C4C0008468402C04D10468A2600468E16003E041
:10C4D0000468A1600468E26030BD704710B505488B
:10C4E000006800F0100020B110200249086004F03C
:10C4F0001BF910BD143C014072B600BFFEE70000FE
:10C5000010B5002201B909E0012901D10A0205E0B4
:10C51000022901D10A0201E04FF440720E4B1B6860
:10C5200023F440730C4C236023461B6813432360A1
:10C5300023461B6823F0F803236023461B6802246C
:10C5400044EAC0042343044C236023461B6843F49D
:10C550008033236010BD0000103C02401C4800687E
:10C5600000F40070B0B11A48006820F40070184957
:10C57000086000BF0846006840F400600860084694
:10C58000006820F40060086000BF0846006840F4BE
:10C59000007008600E48006800F48060B0B10C487C
:10C5A000006820F480600A49086000BF08460068FF
:10C5B00040F4805008600846006820F4805008600D
:10C5C00000BF0846006840F48060086070470000C3
:10C5D000003C02400A4A126822F44072084B1A607A
:10C5E0001A46126842F004021A601A4612684FF4A2
:10C5F000803343EA00231A43014B1A60704700005E
:10C60000103C0240074A126822F44072054B1A603F
:10C610001A4612681A601A46126842F001021A603D
:10C6200001707047103C024010B50A49096821F4B6
:10C630004071084C21602146096841F44071216035
:10C640002146096841F0010121600260BFF36F8F4C
:10C65000436010BD103C0240084A126822F4407248
:10C66000064B1A601A46126842F480721A601A4623
:10C67000126842F001021A6001807047103C0240CB
:10C68000084A126822F44072064B1A601A46126871
:10C6900042F400721A601A46126842F001021A60EF
:10C6A00001607047103C02402A48006800F010000A
:10C6B00040B12948C06940F010002749C8611020E6
:10C6C000244908602348006800F0200040B1224857
:10C6D000C06940F008002049C86120201D49086059
:10C6E0001C48006800F0400040B11B48C06940F0A1
:10C6F00004001949C86140201649086015480068BF
:10C7000000F0800040B11448C06940F002001249B6
:10C71000C86180200F4908600E48006800F48070EE
:10C7200048B10D48C06940F001000B49C8614FF4A1
:10C730008070084908600748006800F0020040B1B6
:10C740000548C06940F020000349C8610220014942
:10C75000086070470C3C02400800002070B5044699
:10C76000002500201449C86101F0D6F9054609E00A
:10C77000601C38B124B101F0CFF9401BA04201D9AF
:10C78000032070BD0D48006800F480300028EFD110
:10C790000A48006800F0010010B101200749086054
:10C7A0000648006800F4F97018B1FFF77DFF01201A
:10C7B000E7E70020E5E70000080000200C3C02400D
:10C7C00070B505460C461646002E3BD12068012860
:10C7D00004D0022813D0032833D121E03748406821
:10C7E00040F00100354948602088A5F82100082262
:10C7F00004F1080105F1230002F0BAFA21E02F4804
:10C80000406840F002002D4948602088A5F82B00C0
:10C81000082204F1080105F12D0002F0A9FA10E048
:10C820002648406840F00400244948602088A5F864
:10C830003500082204F1080105F1370002F098FAEA
:10C8400000BF3AE02068012804D0022812D0032853
:10C8500032D120E01948806840F001001749886013
:10C860002088A5F80300082204F10801681D02F0E1
:10C870007FFA21E01148806840F002000F4988608B
:10C880002088A5F80D00082204F1080105F10F0029
:10C8900002F06EFA10E00948806840F00400074991
:10C8A00088602088A5F81700082204F1080105F126
:10C8B000190002F05DFA00BF00BF70BD5C1E0020D1
:10C8C00010B5024692F82030012B01D0022B06D180
:10C8D00010684069084314686061002010BD506A08
:10C8E00040F4802050620120F8E7F0B504460D4680
:10C8F0001E4694F8207020688368A86800B900E09C
:10C9000000BF012F01D0022F7DD103F0806030B92C
:10C9100003F0006018B903F0805000287ED0C3F304
:10C920000161012088403060A86860B9B5F800C096
:10C93000E86840EA4C5C206800F5C07000EB01102C
:10C94000C0F800C00FE0D5E901C040EACC00D5F83E
:10C950000CC040EA0C00D4F800C00CF5C07C0CEB15
:10C96000011CCCF80000D5F810C0206800F5C0709C
:10C9700000EB0110C0F804C0287D01280ED120680A
:10C9800000F5C07000EB0110406840F4807C206826
:10C9900000F5C07000EB0110C0F804C0D0790006AB
:10C9A00092F806C040EA0C4092F805C040EA0C201C
:10C9B00092F804C040EA0C00D4F800C00CF5C07C2A
:10C9C0000CEB011CCCF80C00D078000692F802C0E9
:10C9D00040EA0C4092F801C040EA0C2092F800C0F6
:10C9E00040EA0C00D4F800C00CF5C07C0CEB011C34
:10C9F000CCF80800206800F5C07000EB011000685A
:10CA000040F0010C01E00FE008E0206800F5C07084
:10CA100000EB0110C0F800C00020F0BD606A40F4D7
:10CA2000001060620120F8E7606A40F480206062D4
:10CA30000120F2E7F0B504460A4694F82050012D93
:10CA400001D0022D7ED1424901F50071086840F005
:10CA500001000860086820F47C5008600868566A85
:10CA600040EA06200860107D00F01F06012000FA51
:10CA700006F3C8699843C861A1F50071D069C8B9C7
:10CA8000D1F80C029843C1F80C02908880B29689C4
:10CA900040EA064601F51070576940F83760108883
:10CAA00080B2168940EA064601F51070576900EB1E
:10CAB000C7004660D069012819D1D1F80C0218438B
:10CAC000C1F80C02908880B2168840EA064601F54B
:10CAD0001070576940F83760908980B2168940EA33
:10CAE000064601F51070576900EBC7004660906973
:10CAF00028B9D1F804029843C1F8040204E0D1F83F
:10CB000004021843C1F80402106928B9D1F81402CC
:10CB10009843C1F8140204E0D1F814021843C1F894
:10CB20001402106A012804D1D1F81C021843C1F87C
:10CB30001C02D1F8000220F00100C1F80002002020
:10CB4000F0BDFFE7606A40F4802060620120F7E7F3
:10CB50000064004070B50446204600F002F8054627
:10CB600070BD0146486A704770B5044694F820507D
:10CB7000012D01D0022D7DD151B92068C06800F08F
:10CB8000030080B9606A40F400106062012070BD4B
:10CB90002068006900F0030028B9606A40F40010C2
:10CBA00060620120F3E7206800F5D87000EB011007
:10CBB000006800F004009060906840B9206800F5BB
:10CBC000D87000EB01100068400D106007E020688D
:10CBD00000F5D87000EB01100068C00850602068B4
:10CBE00000F5D87000EB0110006800F00200D06082
:10CBF000206800F5D87000EB0110406800F00F00CD
:10CC0000082802D30820106108E0206800F5D870D9
:10CC100000EB0110406800F00F001061206800F583
:10CC2000D87000EB0110406800F47F40000A90616A
:10CC3000206800F5D87000EB01104068000C5061CE
:10CC4000206800F5D87000EB01108068187020682B
:10CC500000F5D87000EB0110806800F47F40000AF6
:10CC60005870206800F5D87000EB0110806800F45F
:10CC70007F0000E03CE0000C9870206800F5D87060
:10CC800000EB01108068000ED870206800F5D870A5
:10CC900000EB0110C0681871206800F5D87000EB37
:10CCA0000110C06800F47F40000A5871206800F548
:10CCB000D87000EB0110C06800F47F00000C987180
:10CCC000206800F5D87000EB0110C068000ED87124
:10CCD00031B92068C06840F020002668F06005E0A7
:10CCE0002068006940F020002668306100204EE78F
:10CCF000606A40F480206062012048E7014600201D
:10CD000091F82020012A01D0022A11D10B689B68DA
:10CD100003F0806303B1401C0B689B6803F0006361
:10CD200003B1401C0B689B6803F0805303B1401CA7
:10CD300070472DE9F05F04460025206846692068A9
:10CD4000D0F80490206887682068D0F80CA020688C
:10CD5000D0F810B02068D0F8188006F00100002844
:10CD600055D007F00100C0B101202168886007F0AC
:10CD7000020018B1204600F0C6FA0EE007F00400E9
:10CD800010B145F4006508E007F0080010B145F463
:10CD9000805502E0204600F0B5FA07F48070C8B173
:10CDA0004FF480702168886007F4007018B1204645
:10CDB00000F0ABFA0EE007F4806010B145F40055C6
:10CDC00008E007F4006010B145F4804502E0204619
:10CDD00000F09AFA07F48030C8B14FF4803021682F
:10CDE000886007F4003018B1204600F090FA0EE099
:10CDF00007F4802010B145F4004508E007F4002056
:10CE000010B145F4803502E0204600F07FFA06F0CC
:10CE1000080038B10AF0100020B145F40075102068
:10CE20002168C86006F0040040B10AF0080028B18B
:10CE300008202168C860204600F00CFA06F00200C5
:10CE400038B12068C06800F0030010B1204600F03F
:10CE500002FA06F0400038B10BF0100020B145F4A2
:10CE6000806510202168086106F0200040B10BF0B9
:10CE7000080028B1082021680861204600F0FEF96A
:10CE800006F0100038B12068006900F0030010B10E
:10CE9000204600F0F4F906F4003040B109F010002B
:10CEA00028B1102021684860204600F0FBF906F404
:10CEB000803040B109F0080028B10820216848609E
:10CEC000204600F025FA06F4004088B309F004007B
:10CED00078B306F4807020B108F0010008B145F085
:10CEE000010506F4007020B108F0020008B145F019
:10CEF000020506F4806020B108F0040008B145F096
:10CF0000040506F40060A0B108F0700088B108F0D4
:10CF10007000402817D006DC10280BD020280CD039
:10CF2000302819D10CE0502810D0602814D110E01E
:10CF30001DE019E045F008050FE045F010050CE094
:10CF400045F0200509E045F0400506E045F0800584
:10CF500003E045F4807500E000BF00BF20688069F1
:10CF600020F07000216888610420216848602DB19C
:10CF7000606A284360622046FFF7ECFDBDE8F09F41
:10CF800070B504460CB9012070BD94F8200010B9AA
:10CF9000204600F0AFF82068006840F001002168EA
:10CFA000086000F0B9FD05460DE000F0B5FD401B3E
:10CFB0000A2808D9606A40F400306062052084F8CD
:10CFC00020000120E0E72068406800F00100002810
:10CFD000EBD02068006820F002002168086000F0B3
:10CFE0009BFD05460DE000F097FD401B0A2808D97F
:10CFF000606A40F400306062052084F8200001205F
:10D00000C2E72068406800F002000028EBD1207ED3
:10D01000012806D12068006840F08000216808607F
:10D0200005E02068006820F0800021680860607ECC
:10D03000012806D12068006840F04000216808609F
:10D0400005E02068006820F0400021680860A07EAC
:10D05000012806D12068006840F02000216808609F
:10D0600005E02068006820F0200021680860E07E6C
:10D07000012806D12068006820F0100021680860AF
:10D0800005E02068006840F0100021680860207FFB
:10D09000012806D12068006840F008002168086077
:10D0A00005E02068006820F0080021680860607FC3
:10D0B000012806D12068006840F00400216808605B
:10D0C00005E02068006820F0040021680860D4E9C9
:10D0D0000201084321690843616908436168491EE8
:10D0E00008432168C86100206062012084F82000A4
:10D0F000002049E710B586B00446142101A8FFF7C7
:10D10000C9F84F492068884242D14E480068401C07
:10D110004C4908600846006801280FD100BF002074
:10D1200000904948006840F0007047490860084690
:10D13000006800F00070009000BF00BF00BF00203A
:10D14000009041481038006840F002003E49103914
:10D1500008600846006800F00200009000BF00BFB1
:10D160004FF44070019002200290002003900320B1
:10D1700004900920059001A9344800F0C3FB002267
:10D180000121142000F056FD142000F03FFD55E071
:10D190002F492068884251D100BF002000902A48C2
:10D1A000006840F08060284908600846006800F088
:10D1B0008060009000BF00BF22480068401C2149E9
:10D1C00008600846006801280FD100BF00200090C9
:10D1D0001D48006840F000701B4908600846006860
:10D1E00000F00070009000BF00BF00BF0020009062
:10D1F00015481038006840F00200134910390860E3
:10D200000846006800F00200009000BF00BF4FF425
:10D2100040500190022002900020039003200490CF
:10D220000920059001A9094800F06CFB00220121AA
:10D23000412000F0FFFC412000F0E8FC06B010BDEA
:10D240000064004004000020403802400004024016
:10D2500000680040704710B58AB0044601AB03AACD
:10D2600000212046FFF780FC08B10AB010BD01AADA
:10D2700003A92046FFF75CF800BFF6E7704710B53A
:10D280008AB0044608AB01AA01212046FFF76CFCD6
:10D2900008B10AB010BD08AA01A92046FFF748F856
:10D2A00000BFF6E7704770B5044694F820000128E7
:10D2B00022D1022084F820002068006820F00100BC
:10D2C0002168086000F028FC05460DE000F024FC11
:10D2D000401B0A2808D9606A40F4003060620520CB
:10D2E00084F82000012070BD2068406800F0010033
:10D2F0000028EBD16062F6E7606A40F400206062CB
:10D300000120F0E7704770477047704770477047DB
:10D31000704770B50446A56D00F0FEFB064694F814
:10D320003500022808D08020606500BF002084F806
:10D33000340000BF012070BD2068006820F0160096
:10D34000216808602068406920F0800021684861F9
:10D35000206C08B9A06C28B12068006820F0080093
:10D36000216808602068006820F0010021680860DA
:10D3700010E000F0D1FB801B05280BD92020606550
:10D38000032084F8350000BF002084F8340000BF7B
:10D390000320D0E72068006800F001000028E8D1F1
:10D3A00094F85C103F208840A860012084F8350084
:10D3B00000BF002084F8340000BF00BFBBE70000BE
:10D3C000F8B50446002000908C4800684FF41651D0
:10D3D000B0FBF1F7A56D2E6894F85C10082088402A
:10D3E000304098B12068006800F0040070B12068F7
:10D3F000006820F004002168086094F85C100820A0
:10D400008840A860606D40F00100606594F85C1091
:10D4100001208840304068B12068406900F08000F9
:10D4200040B194F85C1001208840A860606D40F025
:10D430000200606594F85C1004208840304068B1B8
:10D440002068006800F0020040B194F85C100420ED
:10D450008840A860606D40F00400606594F85C103E
:10D4600010208840304078B32068006800F0080041
:10D4700050B394F85C1010208840A86020680068C1
:10D4800000F4802080B12068006800F4002028B9F2
:10D49000206CC8B12046216C884715E0A06C98B17B
:10D4A0002046A16C88470FE02068006800F4807077
:10D4B00028B92068006820F0080021680860206C06
:10D4C00010B12046216C884794F85C1020208840D9
:10D4D0003040002865D02068006800F01000002867
:10D4E0005FD094F85C1020208840A86094F8350044
:10D4F000052828D12068006820F0160021680860FF
:10D500002068406920F0800021684861206C08B9DB
:10D51000A06C28B12068006820F00800216808602D
:10D5200094F85C103F208840A860012084F8350002
:10D5300000BF002084F8340000BF206D10B12046E9
:10D54000216D8847F8BD2068006800F4802080B114
:10D550002068006800F4002028B9606C10B12046F3
:10D56000616C88471DE0E06BD8B12046E16B8847CD
:10D5700017E02068006800F4807068B920680068CF
:10D5800020F0100021680860012084F8350000BFF9
:10D59000002084F8340000BFE06B10B12046E16B3E
:10D5A0008847606D38B3606D00F00100F0B1052070
:10D5B00084F835002068006820F0010021680860C8
:10D5C00000BF0098401C0090B84200D905E02068D8
:10D5D000006800F001000028F3D100BF012084F8AA
:10D5E000350000BF002084F8340000BFE06C10B1AB
:10D5F0002046E16C884700BFA4E70000340000200B
:10D600002DE9F0410446002500F086FA074614B9DA
:10D610000120BDE8F081606A00B100BF022084F8FB
:10D62000350000BF002084F8340000BF2068006887
:10D6300020F00100216808600AE000F06DFAC01BCC
:10D64000052805D920206065032084F83500E0E72F
:10D650002068006800F001000028EED1206805680D
:10D6600021480540D4E901010843E16808432169E4
:10D67000084361690843A1690843E1690843216AD5
:10D6800008430543606A042803D1D4E90B01084329
:10D690000543206805602068456925F00705606A34
:10D6A0000543606A04280DD1A06A0543E06A48B1C9
:10D6B0002046FEF7A7FE28B140206065012084F8CF
:10D6C0003500A6E7206845612046FEF781FE064644
:10D6D00094F85C103F208840B06000206065012015
:10D6E00084F83500002094E73F8010F02DE9F047E2
:10D6F00004460D4616461F464FF00008D4F85890D1
:10D7000000BF94F83400012802D10220BDE8F08760
:10D71000012084F8340000BF94F83500012825D199
:10D72000022084F83500002060653B4632462946D9
:10D730002046FEF7BCFE94F85C103F208840C9F8F4
:10D7400008002068006840F0160021680860206C1E
:10D7500028B12068006840F008002168086020684F
:10D76000006840F001002168086006E000BF00206A
:10D7700084F8340000BF4FF002084046C6E70000BE
:10D780002DE9F04104460F46002600BF2548007EE3
:10D79000012802D10220BDE8F0810120214908764C
:10D7A00000BF4CF25030FEF7D9FF0546002D31D1B5
:10D7B000401E3860206801280FD1207C6168FEF788
:10D7C00009FF4CF25030FEF7C9FF054616480068C5
:10D7D00020F00400144908601AE0A66812E0217CD9
:10D7E0003046FEF78DFE4CF25030FEF7B7FF05468F
:10D7F0000D48006820F0FA000B4908600DB13E604A
:10D8000005E0761CD4E902100844B042E7D800BF16
:10D81000FEF7A4FE00BF00200249087600BF28469C
:10D82000B9E7000008000020103C024003480068EF
:10D8300040F000400149086000207047103C024061
:10D840002DE9F0410646884614461D4600BF1E4895
:10D85000007E012802D10220BDE8F08101201A4992
:10D86000087600BF4CF25030FEF778FF07461FBB2A
:10D8700026B9E1B24046FEF7C5FE12E0012E04D102
:10D88000A1B24046FEF7E8FE0BE0022E04D121468D
:10D890004046FEF7F5FE04E022462B464046FEF7E2
:10D8A000C3FE4CF25030FEF759FF074607480068A8
:10D8B00020F001000549086000BF002002490876F9
:10D8C00000BF3846C8E7000008000020103C0240B6
:10D8D00000200949096801F0004159B10749064A89
:10D8E0000C3A1160064911600349096801F00041D2
:10D8F00001B1012070470000103C02402301674540
:10D90000AB89EFCDF8B502460B4600250024002078
:10D910000021D1E0012606FA01F51E6806EA050499
:10D92000AC4274D11E7906F00306012E04D01E7994
:10D9300006F00306022E13D190684F000326BE4066
:10D94000B0434F00DE68BE4030439060506801260F
:10D950008E40B0431E79C6F300168E4030435060AF
:10D960001E7906F00306032E09D0D0684F00032667
:10D97000BE40B0434F009E68BE403043D0601E7929
:10D9800006F00306022E13D1CF0802F1200656F846
:10D9900027004E07F70E0F26BE40B0434F07FF0E7D
:10D9A0001E69BE403043CF0802F1200646F827002A
:10D9B00010684F000326BE40B0431E7906F00306F0
:10D9C0004F00BE40304310605E6806F44036002EC3
:10D9D00071D000BF00260096394E366846F4804666
:10D9E000374F3E603E46366806F48046009600BFDC
:10D9F00000BF344E8F0856F827008E07370F0F26CA
:10DA0000BE40B043304EB24202D100261FE052E089
:10DA10002E4EB24201D1012619E02D4EB24201D163
:10DA2000022614E02B4EB24201D103260FE02A4E0B
:10DA3000B24201D104260AE0284EB24201D10526A5
:10DA400005E0274EB24201D1062600E007268F07E7
:10DA50003F0FBE4030431B4E8F0846F82700214E33
:10DA60003068A0435E6806F4801606B120431D4E60
:10DA70003060361D3068A0435E6806F4001606B1BB
:10DA80002043184E361D3060164E361F3068A043B6
:10DA90005E6806F4003606B12043124E361F306031
:10DAA000361F3068A0435E6806F4803606B1204316
:10DAB0000C4E083E3060491C1029FFF42BAFF8BD16
:10DAC000443802400838014000000240000402408F
:10DAD00000080240000C0240001002400014024006
:10DAE00000180240083C0140024613690B400BB18C
:10DAF000012000E00020704710B5426921EA0203CE
:10DB000002EA010443EA0443836110BD0AB1816162
:10DB100001E00B0483617047014800687047000012
:10DB20002800002003480068034909780844014997
:10DB300008607047280000203000002010B50D4814
:10DB4000006840F400700B4908600846006840F423
:10DB5000806008600846006840F480700860032018
:10DB600000F0A6F80F2000F007F800F02BF80020D6
:10DB700010BD0000003C024070B504460E4800781D
:10DB80004FF47A71B1FBF0F00C490968B1FBF0F584
:10DB9000284600F0B3FE08B1012070BD102C07D25A
:10DBA00000222146501E00F045F80548046001E0BF
:10DBB0000120F2E70020F0E73000002034000020D0
:10DBC0002C00002008B500BF002000900E4800681F
:10DBD00040F480400C4908600846006800F480402A
:10DBE000009000BF00BF00BF00200090081F006829
:10DBF00040F08050091F08600846006800F080501F
:10DC0000009000BF00BF08BD4438024001460846EE
:10DC100000280DDB00BF00BF00F01F0301229A4067
:10DC200043099B0003F1E023C3F8002100BF00BFBC
:10DC300000BF70472DE9F05F80460D46164600276D
:10DC400002F0D4FA074639462A46334601F0070067
:10DC5000C0F1070ABAF1040F02D94FF0040A01E03B
:10DC6000C0F1070AD14600F1040ABAF1070F02D247
:10DC70004FF0000A01E0A0F1030AD4464FF0010A78
:10DC80000AFA09FAAAF1010A0AEA020A0AFA0CFADD
:10DC90004FF0010B0BFA0CFBABF1010B0BEA030B82
:10DCA0004AEA0B042146404602F0A8FABDE8F09F7C
:10DCB00000BF00F00702064B19684FF6FF0319403A
:10DCC000044B0B4343EA0221014B196000BF70472C
:10DCD0000CED00E00000FA0538B5002400BF00207C
:10DCE00000901D48006840F080501B4908600846BD
:10DCF000006800F08050009000BF00BF012017496D
:10DD00000864FFF709FF044607E0FFF705FF001B63
:10DD1000B0F57A7F01D9032038BD1148406800F47E
:10DD20008030B0F5803FF0D101200C494864FFF706
:10DD3000F3FE044607E0FFF7EFFE001BB0F57A7F25
:10DD400001D90320E8E70648406800F40030B0F548
:10DD5000003FF0D10020DFE74038024000000E42D3
:10DD60000070004070B504460D460CB9012070BD2E
:10DD70005848006800F00F00A84209D255490D70BC
:10DD80000846006800F00F00A84201D00120EEE72D
:10DD9000207800F0020002281DD1207800F0040055
:10DDA000042805D14C48006840F4E0504A49086016
:10DDB000207800F00800082805D14748006840F4A2
:10DDC0006040454908604448006820F0F000A168C0
:10DDD000084341490860207800F00100A8B360685A
:10DDE000012807D13C4808380068C0F34040B8B962
:10DDF0000120BCE76068022802D06068032807D1D0
:10DE0000354808380068C0F3406048B90120AEE7E3
:10DE1000314808380068C0F3400008B90120A6E77F
:10DE20002D48006820F00300616808432A49086013
:10DE3000FFF772FE064609E0FFF76EFE801B41F217
:10DE40008831884202D9032091E707E02248006820
:10DE500000F00C006168B0EB810FEDD11D48006847
:10DE600000F00F00A84209D91A490D700846006851
:10DE700000F00F00A84201D0012078E7207800F0E0
:10DE80000400042807D11448006820F4E050E16839
:10DE9000084311490860207800F00800082808D1DC
:10DEA0000D48006820F46040216940EAC1000A4939
:10DEB000086000F03FF808490968C1F30311074AF8
:10DEC000515CC8400649086006480068FFF754FEE8
:10DED00000204CE7003C024008380240080B0108D3
:10DEE000340000202C00002001480068704700002A
:10DEF0003400002000B5FFF7F7FF04490968C1F3BB
:10DF00008221034A515CC84000BD0000083802402D
:10DF1000180B010800B5FFF7E7FF04490968C1F3D2
:10DF20004231034A515CC84000BD0000083802403D
:10DF3000180B01082DE9F047002400250026A14612
:10DF4000A2463F48006800F00C0030B1042807D01A
:10DF5000082808D00C286BD138E0DFF8E8A06AE088
:10DF6000DFF8E4A067E03648001F006800F03F04D7
:10DF70003348001F006800F4800078B1324830490F
:10DF8000091F0968C1F38811A0FB017001462246F0
:10DF900000233846FEF734F905460DE029482849A4
:10DFA000091F0968C1F38811A0FB017122460023F3
:10DFB0003846FEF725F905462148001F0068C0F3E2
:10DFC0000140401C4600B5FBF6FA34E01C48001F37
:10DFD000006800F03F041A48001F006800F4800049
:10DFE00078B119481649091F0968C1F38811A0FBC7
:10DFF00001700146224600233846FEF701F9054626
:10E000000EE010480E49091F0968C1F38811A0FBF2
:10E0100001700146224600233846FEF7F1F8054616
:10E020000748001F0068C0F30279B5FBF9FA02E067
:10E03000DFF810A000BF00BF5046BDE8F087000029
:10E04000083802400024F40000127A00F8B50446B3
:10E050000CB90120F8BD207800F0010000286FD035
:10E06000FE48006800F00C0004281BD0FB48006844
:10E0700000F00C00082807D1F848001F006800F4E1
:10E080008000B0F5800F0DD0F448006800F00C005F
:10E090000C2813D1F148001F006800F48000B0F58F
:10E0A000800F0BD1ED4808380068C0F340400028CD
:10E0B00059D06068002856D10120CBE700BF6068C6
:10E0C000B0F5803F08D1E5480838006840F480305A
:10E0D000E249083908601EE06068B0F5A02F0DD154
:10E0E000DE480838006840F48020DC4908390860C0
:10E0F0000846006840F4803008600CE0D7480838D3
:10E10000006820F48030D549083908600846006866
:10E1100020F48020086000BF606890B1FFF7FCFC2D
:10E12000054606E0FFF7F8FC401B642801D90320F0
:10E1300090E7CA4808380068C0F340400028F1D092
:10E1400011E0FFF7E9FC054606E0FFF7E5FC401BA0
:10E15000642801D903207DE7C04808380068C0F36F
:10E1600040400028F1D1207800F0020002286BD155
:10E17000BA48006800F00C00B8B1B848006800F078
:10E180000C00082805D1B548001F006800F4800085
:10E1900058B1B248006800F00C000C281CD1AF4800
:10E1A000001F006800F48000B0B9AC48083800686F
:10E1B000C0F3400020B1E068012801D0012049E708
:10E1C000A6480838006820F0F800216940EAC1003C
:10E1D000A2490839086037E0E06800B30120A0498F
:10E1E0000860FFF799FC054606E0FFF795FC401B29
:10E1F000022801D903202DE7984808380068C0F3A9
:10E2000040000028F1D095480838006820F0F80058
:10E21000216940EAC10091490839086014E00020F2
:10E220008F490860FFF778FC054606E0FFF774FCAD
:10E23000401B022801D903200CE7884808380068F1
:10E24000C0F340000028F1D1207800F00800082831
:10E250002CD16069A8B1012082490860FFF75CFCFD
:10E26000054606E0FFF758FC401B022801D90320B1
:10E27000F0E67A486C300068C0F340000028F1D026
:10E2800014E0002077490860FFF746FC054606E0E9
:10E29000FFF742FC401B022801D90320DAE66F4851
:10E2A0006C300068C0F340000028F1D1207800F005
:10E2B0000400042870D1002768483830006800F056
:10E2C000805090B900BF002000906448383000684A
:10E2D00040F080506149383108600846006800F01D
:10E2E0008050009000BF00BF01275F48006800F425
:10E2F0008070B0B95C48006840F480705A4908608A
:10E30000FFF70AFC054606E0FFF706FC401B022863
:10E3100001D903209EE65448006800F4807000286C
:10E32000F2D000BFA068012808D14C4868300068CE
:10E3300040F001004949683108601DE0A0680528E7
:10E340000DD146486830006840F004004349683108
:10E3500008600846006840F0010008600CE03F4893
:10E360006830006820F001003C49683108600846C8
:10E37000006820F00400086000BFA068A8B1FFF7A3
:10E38000CBFB054609E0FFF7C7FB401B41F2883194
:10E39000884202D903205DE626E0304868300068F4
:10E3A000C0F340000028EED013E0FFF7B5FB0546B0
:10E3B00008E0FFF7B1FB401B41F28831884201D9E8
:10E3C000032047E6254868300068C0F34000002875
:10E3D000EFD1012F07D121483830006820F080505C
:10E3E0001E493831086000BFA069002851D01B4881
:10E3F000006800F00C00082861D0A069022849D10B
:10E40000002017490866FFF787FB054606E0FFF77F
:10E4100083FB401B022801D903201BE60F48083864
:10E420000068C0F340600028F1D1D4E90701084337
:10E43000616A40EA81110122A06AC2EB500041EA00
:10E4400000412C20005D41EA00613020005D41EA7E
:10E4500000700249091F0860012007E008380240E7
:10E4600000004742800E4742007000402F49086676
:10E47000FFF752FB054606E0FFF74EFB401B022864
:10E4800001D90320E6E52A480068C0F3406000286F
:10E49000F2D048E0002025490866FFF73DFB05461D
:10E4A00006E0FFF739FB401B022801D90320D1E524
:10E4B0001F480068C0F340600028F2D133E0A06933
:10E4C000012800D1C6E51A48001D0668A069012888
:10E4D00027D006F48001E069814222D106F03F0195
:10E4E000206A81421DD147F6C0703040616AB0EBAE
:10E4F000811F16D106F440310122A06AC2EB500000
:10E50000B1EB004F0DD106F070612C20005DB1EB36
:10E51000006F06D106F0E0413020005DB1EB007FD6
:10E5200001D0012096E5002094E50000000047425C
:10E530000038024070B504460025A06C40B1A06CC4
:10E54000FEF7E7FE20B1606D40F010006065012528
:10E55000E06C40B1E06CFEF7DCFE20B1606D40F095
:10E560001000606501252068406820F003002168E4
:10E570004860012084F85100284670BD10B504465B
:10E5800007492068884209D10020064981F8B50072
:10E59000012081F8B400204600F006F810BD00000C
:10E5A000003001408C1D00200146486D704710B5B9
:10E5B00004460CB9012010BD606A38B96068B0F536
:10E5C000827F00D105E00021E16102E000212161AC
:10E5D00061610021A16294F8510028B9002084F8FB
:10E5E0005000204600F048F8022084F851002068CE
:10E5F000006820F0400021680860A08800F4827064
:10E60000218901F404410843A18901F40061084310
:10E61000217C01F002010843217D01F00101084342
:10E62000218B01F400710843217F01F03801084378
:10E630002021095D01F080010843218D01F4005182
:10E640000843216808600421A06901EA104094F899
:10E65000241001F010010843216848602068C06957
:10E6600020F400602168C86100206065012084F802
:10E67000510000209FE7000010B586B00446142129
:10E6800001A8FDF707FE3C492068884271D100BF10
:10E69000002000903948006840F4805037490860F5
:10E6A0000846006800F48050009000BF00BF00BF23
:10E6B0000020009031481438006840F001002F49D4
:10E6C000143908600846006800F00100009000BF9F
:10E6D00000BFF02001900220029000200390032050
:10E6E00004900520059001A92548FFF70BF925485E
:10E6F000254908604FF0C0604860002122488160D1
:10E70000C1604FF480610161002141618161C1619B
:10E710004FF40031016200214162FEF771FF08B140
:10E72000FDF7EAFE00BF1848E064846300BF1548A7
:10E730004830164908604FF0C060486040211348D7
:10E7400081600021C1604FF480610161002141615D
:10E750008161C1614FF40031016200214162FEF725
:10E760004FFF08B1FDF7C8FE00BF0848A0648463EE
:10E7700000BF06B010BD0000003001404438024028
:10E780000000024010640240EC0000204C01002018
:10E79000704770472DE9F04704460E4617461D4660
:10E7A00094F85180D4F80490B8F1010F0AD0B9F56B
:10E7B000827F04D1A06810B9B8F1040F02D0022002
:10E7C000BDE8F0870EB107B10DB90120F8E700BF31
:10E7D00094F85000012801D10220F1E7012084F8CB
:10E7E000500000BF94F85100042802D0052084F89E
:10E7F0005100002060652663A586E586A763A5878E
:10E80000E5872064606494F85100042806D13548F7
:10E81000E16C08643448E16CC86305E03348E16C9E
:10E8200008643348E16CC8633248E16CC864002076
:10E83000E16C0865E38FD4F800C00CF10C01A26B09
:10E84000E06CFEF753FF50B1606D40F01000606562
:10E8500000BF002084F8500000BF0120B0E720680E
:10E86000406840F00100216848600020A16C086405
:10E87000A16CC863A16CC864A16C0865E38ED4F870
:10E8800000C00CF10C02216BA06CFEF72FFF50B101
:10E89000606D40F01000606500BF002084F85000FB
:10E8A00000BF01208CE72068006800F0400040288D
:10E8B00005D02068006840F040002168086000BF73
:10E8C000002084F8500000BF2068406840F020001D
:10E8D000216848602068406840F002002168486074
:10E8E00000206DE7E5F5000801F60008F3F50008E3
:10E8F0007DF60008BDF500087047704770B5044606
:10E900002546681EB0F1807F01D301200FE0681E0C
:10E910004FF0E02148610F214FF0FF3001F06EFC15
:10E9200000204FF0E021886107200861002070BDC1
:10E9300030B502460B4600BF92F83C00012801D1D9
:10E94000022030BD012082F83C0000BF022082F886
:10E950003D00106844681068816824F070041868ED
:10E96000044310684460184D1068A8421BD010681A
:10E97000B0F1804F17D0154D1068A84213D0144D38
:10E980001068A8420FD0134D1068A8420BD0124D4A
:10E990001068A84207D0114D1068A84203D0104D4E
:10E9A0001068A84205D121F0800158680143106821
:10E9B0008160012082F83D0000BF002082F83C0009
:10E9C00000BF00BFBDE700000000014000040040A0
:10E9D00000080040000C00400004014000400140DD
:10E9E0000018004010B504460CB9012010BD94F881
:10E9F0003D0028B9002084F83C00204600F026F8AD
:10EA0000022084F83D00211D206801F081F80120DA
:10EA100084F8460000BF84F83E0001213F200155E4
:10EA2000402001554120015500BF00BF012084F85E
:10EA3000420043200155442001554520015500BFA7
:10EA4000012084F83D000020D0E7000008B50168EF
:10EA5000B1F1804F0FD100BF002100910649096834
:10EA600041F00101044A11601146096801F00101F9
:10EA7000009100BF00BF08BD40380240014691F838
:10EA80003D00012801D001207047022081F83D009F
:10EA90001A4B086898421BD00868B0F1804F17D015
:10EAA000174B0868984213D0164B086898420FD04D
:10EAB000154B086898420BD0144B0868984207D051
:10EAC000134B0868984203D0124B086898420CD147
:10EAD0000868806800F00702062A0CD00868006801
:10EAE00040F001000B68186005E00868006840F01D
:10EAF00001000B6818600020C6E70000000001401C
:10EB00000004004000080040000C004000040140E8
:10EB100000400140001800402DE9F04104460D4638
:10EB2000002700BF94F83C00012802D10220BDE874
:10EB3000F081012084F83C0000BF022084F83D00F1
:10EB40002068866826F0770626F47F46206886606F
:10EB50002868502833D00CDC202850D004DC002852
:10EB60004BD0102851D149E0302849D040284CD111
:10EB700039E060282DD0702807D0B0F5805F03D031
:10EB8000B0F5005F41D10DE041E0D5E902136A68BC
:10EB9000206801F02DF82068866846F07706206826
:10EBA000866034E0D5E902136A68206801F020F835
:10EBB0002068806840F480402168886027E0EA6827
:10EBC0006968206801F028F85021206801F01BF8DE
:10EBD0001DE0EA686968206801F031F8602120686A
:10EBE00001F011F813E0EA686968206801F014F890
:10EBF0004021206801F007F809E000BF00BF00BF16
:10EC00002968206800F0FFFF01E0012700BF00BF76
:10EC1000012084F83D0000BF002084F83C0000BFC4
:10EC2000384684E710B504460CB9012010BDA06930
:10EC300000B100E000BF94F8410028B9002084F83A
:10EC40004000204600F02AF8242084F84100206883
:10EC5000C06820F400502168C860204601F004F824
:10EC60002068006920F490402168086120684069AC
:10EC700020F02A00216848612068C06840F40050F4
:10EC80002168C86000206064202084F8410084F876
:10EC900042000020606300BFC8E7000010B586B0E6
:10ECA0000446142101A8FDF7F5FA2B492068884293
:10ECB00050D100BF002000902848006840F4003088
:10ECC000264908600846006800F40030009000BF44
:10ECD00000BF00BF0020009020481038006840F0BE
:10ECE00001001E49103908600846006800F0010064
:10ECF000009000BF00BF0C20019002200290012074
:10ED00000390032004900720059001A91448FEF702
:10ED1000F9FD1448144908604FF000604860402134
:10ED2000114881600021C1604FF4806101610021C0
:10ED300041618161C1614FF4403101620021416252
:10ED4000FEF75EFC08B1FDF7D7FB00BF0648A063E5
:10ED5000846300BF06B010BD00440040403802404C
:10ED600000000240A06002403C02002000BFFEE71D
:10ED7000092A1FD2DFE802F01D1A1714110E0B0822
:10ED80000500CB79C37100BF8B79837100BF4B79CC
:10ED9000437100BF0B79037100BFCB78C37000BF14
:10EDA0008B78837000BF4B78437000BF0B78037083
:10EDB00000BF00E000BF00BF7047000070B505460F
:10EDC0000C46442C08D1224629460948FDF749FA49
:10EDD00000200849087009E0582C07D1224629462E
:10EDE0000348FDF73EFA01200249087070BD00009B
:10EDF000681E00205C1E00202DE9FC4104460E46E2
:10EE000080274FF000080020019000251FE004F14A
:10EE10000900415D3548828910308154103880895D
:10EE2000401C324988810846D0F81002401CC1F8C5
:10EE3000100208468089B0F5007F07D10020888144
:10EE40003A46103101F5017001F0EBF86D1CB4F891
:10EE50000700A842DBDC2548808940B10020234917
:10EE600088813A46103101F5017001F0DAF81F4847
:10EE7000D0F8180218B11E480190DFF878801B48BE
:10EE8000D0F81012404601F07DFD1849D1F81C124F
:10EE9000884213D100200090D4F803203623FC21AF
:10EEA000304600F0A5FA0023012201A9124801F022
:10EEB00091F81249124801F059FD10E011480190F3
:10EEC0000023012201A90C4801F084F800200090E1
:10EED000D4F803203623FB21304600F089FA0020C5
:10EEE00002498881C1F81002BDE8FC81181F00208A
:10EEF0005A5A5AAA000004080080000840420F0035
:10EF0000501E002055AA50A000B58BB0282101A8A2
:10EF1000FDF7C0F923482449086003204860002118
:10EF200021488160C1604FF4302101614FF48011AC
:10EF30004161002101760121417600218176012184
:10EF4000C176002101774177FEF71AF808B1FDF785
:10EF5000D3FA0E200A900020069007900120089016
:10EF60000020019002904FF47F4003900020049015
:10EF700005900120099001A90B48FDF75BFD08B140
:10EF8000FDF7BAFA0848FEF78EF908B1FDF7B4FAB2
:10EF900048F20E410448FDF793FC08B1FDF7ACFAC6
:10EFA0000BB000BD006400404400002000B58BB0F1
:10EFB000282101A8FDF76EF92348244908600320A1
:10EFC0004860002121488160C1604FF43021016117
:10EFD0004FF4801141610021017601214176002129
:10EFE00081760121C176002101774177FDF7C8FFC5
:10EFF00008B1FDF781FA0E200A90069000200790D4
:10F00000012008900020019002904FF47F4003906F
:10F010000020049001200590099001A90B48FDF7FC
:10F0200009FD08B1FDF768FA0848FEF73CF908B198
:10F03000FDF762FA48F270410448FDF741FC08B15F
:10F04000FDF75AFA0BB000BD006800406C000020CC
:10F0500008B500BF002000901A48006840F4800006
:10F06000184908600846006800F48000009000BF5E
:10F0700000BF00BF002000900846006840F4001068
:10F0800008600846006800F40010009000BF00BF50
:10F09000002211461120FEF7CDFD1120FEF7B6FD2E
:10F0A000002211463820FEF7C5FD3820FEF7AEFDE0
:10F0B000002211463B20FEF7BDFD3B20FEF7A6FDDA
:10F0C00008BD00003038024000B587B0142102A806
:10F0D000FDF7E0F800BF002001902648006840F0EE
:10F0E0008000244908600846006800F08000019014
:10F0F00000BF00BF00BF002001900846006840F03C
:10F10000010008600846006800F00100019000BF9F
:10F1100000BF00BF002001900846006840F00400D6
:10F1200008600846006800F00400019000BF00BFBE
:10F1300000BF002001900846006840F0020008600F
:10F140000846006800F00200019000BF00BF0022E6
:10F1500020210948FEF7DAFC2020029001200390CC
:10F16000022004900020059002A90348FEF7CAFB84
:10F1700007B000BD303802400008024008B52A48F8
:10F180002A49086000204860002128488160C16049
:10F190000161416181610162416281620A21C16252
:10F1A000FFF705FA08B1FDF7A7F9204800680068E5
:10F1B00040F040001D490968086000BF0020009031
:10F1C0001B48006840F48040194908600846006800
:10F1D00000F48040009000BF00BF1648C06820F0D7
:10F1E0000F001449C8601448006840F0100012492C
:10F1F0000860081D006840F01000091D086010201C
:10F200000D490C3108600C480838006840F01000C7
:10F21000094908390860002211460A20FEF70AFD54
:10F220000A20FEF7F3FC08BD0030014094000020E6
:10F230004438024000380140083C014000B587B026
:10F2400000200390049005900690019002904FF0EA
:10F2500080401549086059204860002112488160AB
:10F26000491EC160002101618161FFF7BBFB08B14C
:10F27000FDF742F94FF48050039003A90A48FFF7C5
:10F280004BFC08B1FDF738F900200190029001A96C
:10F290000548FFF74DFB08B1FDF72EF90248FFF7CF
:10F2A000EDFB07B000BD0000AC01002010B50B481D
:10F2B0000B4908600B484860002109488160C16023
:10F2C00001610C214161002181614FF40041C16164
:10F2D000FFF7A8FC08B1FDF70FF910BD004400408E
:10F2E000F4010020404B4C0000BFFEE72DE9F04147
:10F2F00005460C46164667686068082808D23846F6
:10F3000004E0002204F108010A54401C0828F8DB3C
:10F31000206808B9207A20602DB932462146074876
:10F32000FDF74EFA06E0012D04D13246214603488E
:10F3300000F092FE0020BDE8F0810000C01E002019
:10F3400000BFFEE7704730B503460C46184600F094
:10F3500014F808B1002030BD1968D86800EB011519
:10F3600027CD84E827001868401C9968B0FBF1F2AB
:10F3700001FB120018600120EDE70146D1E900020F
:10F38000904201D1012070470020FCE70FB430B556
:10F390000446204600F016F818B1002030BC5DF895
:10F3A00014FB6168E06800EB011004A92EC92EC0AF
:10F3B0006068401CA168B0FBF1F201FB12006060C4
:10F3C0000120EBE701464868401C8A68B0FBF2F375
:10F3D00002FB13000A68904201D10120704700200F
:10F3E000FCE70023036043608260C1607047000057
:10F3F0002DE9F04104460D4616461F46DDF81880FB
:10F400000CB9BDE8F081FF2244212046FCF73BFF08
:10F41000AA202070BB2084F84300A4F80150C4F84F
:10F420000360A4F807703F21204600F0BBFEC4F83B
:10F430003F0001200149087000BFE2E7181F0020CB
:10F4400010B558240CB1582C00D9582400F04AF8B3
:10F450002346084A08490948FFF79CF920B10120D2
:10F46000074981F8B40010BD0120054981F8B500B5
:10F470000020F8E7DC1C0020341D00209400002050
:10F480008C1D00200148808F7047000094000020F0
:10F4900010B500F01FF8B8B10C4890F85A0098B1B8
:10F4A00072B60A4890F85B2000F15C010848FCF74E
:10F4B000D8FE064890F85B10054801F00BF90020D3
:10F4C000024981F85A0062B610BD00008C1D002070
:10F4D000341D002010B510210148FEF705FB10BDBA
:10F4E000000002401CB52048FFF724F81E480068C1
:10F4F000006820F040001C49096808601A4800684C
:10F50000C0680190184800688068019000BF1748E3
:10F51000006840F480501549086000BF00BF1348E0
:10F52000006820F480501149086001200E4981F8DC
:10F530005100002048650846FFF739F800BF002059
:10F54000009009480068C06800900748006880681B
:10F55000009000BF00BF04480068006840F0400011
:10F560000149096808601CBD94000020243802404D
:10F5700010B51048007808B9022010BDFFF7AAFFA7
:10F5800008B90220F9E70C4890F8B50008B100204E
:10F59000F3E70948007808B10220EEE7FFF778FFAB
:10F5A000FFF74EFF012803D1034981F8B400E4E7D7
:10F5B0000020E2E7380000208C1D002070B50546D1
:10F5C000AC6B2068406820F0030021684860606DE3
:10F5D00040F010006065012084F851002046FEF7DD
:10F5E000CDFF70BD70B50446A56B2846FFF7D1F876
:10F5F00070BD70B50446A56B2846FFF77EF970BD57
:10F6000070B50546AC6BFEF787FA064628680068B9
:10F6100000F48070B0F5807F2BD02068406820F027
:10F62000200021684860A06850B96068B0F5827F0A
:10F6300006D12068406820F003002168486005E09A
:10F640002068406820F0010021684860324664214B
:10F65000204600F047F808B1202060650020E087D0
:10F66000012084F85100606D18B12046FEF786FF36
:10F6700070BD2046FFF78CF800BFF9E770B505466E
:10F68000AC6BFEF749FA06462868006800F4807003
:10F69000B0F5807F21D02068406820F020002168EC
:10F6A000486032466421204600F066F818B1606D6B
:10F6B00040F0200060652068406820F00300216869
:10F6C00048600020E086E087012084F85100606DEA
:10F6D00018B12046FEF752FF70BD2046FFF70CF927
:10F6E00000BFF9E7F8B504460E4615466068B0F568
:10F6F000827F0DD1A068B0F5004F03D0A068B0F5AF
:10F70000806F05D12068006820F040002168086003
:10F710006068B0F5827F1FD1A068B0F5806F0DD012
:10F720003346002280212046009500F069F808B396
:10F73000606D40F0200060650320F8BD3346002274
:10F7400001212046009500F05BF898B1606D40F013
:10F75000200060650320F0E73346002201212046A7
:10F76000009500F04DF828B1606D40F02000606514
:10F770000320E2E70020E0E77CB504460E4615468C
:10F780003346012202212046009500F039F828B1C5
:10F79000606D40F02000606503207CBD1648006865
:10F7A0001821B0FBF1F01549B0FBF1F04FF47A717C
:10F7B000484301906068B0F5827F0DD13346002246
:10F7C00080212046009500F01BF898B1606D40F054
:10F7D000200060650320E0E700BF019800B908E061
:10F7E0000198401E019020688068C0F3C010002876
:10F7F000F3D100BF0020D0E73400002040420F00CA
:10F800002DE9F84F04460D4690461E46DDF8289037
:10F81000FEF782F9A0EB0900371AFEF77DF9824660
:10F820002C480068C0F3CB307843009046E0701C51
:10F83000002843D0FEF770F9A0EB0A00B84200D2CE
:10F84000A7BB2068406820F0E0002168486060683D
:10F85000B0F5827F0DD1A068B0F5004F03D0A0684D
:10F86000B0F5806F05D12068006820F04000216865
:10F870000860A06AB0F5005F0DD100BF2068006885
:10F8800020F40050216808602068006840F40050AF
:10F890002168086000BF012084F8510000BF0020EB
:10F8A00084F8500000BF0320BDE8F88FFFE7009800
:10F8B00008B9002702E00098401E00902068806888
:10F8C0002840A84201D1012000E000204045AED1EF
:10F8D0000020E9E73400002001461548814201D2AA
:10F8E000002070471348814201D20120F9E71248F5
:10F8F000814201D20220F4E71048814201D2032064
:10F90000EFE70F48814201D20420EAE70D48814227
:10F9100001D20520E5E70C48814201D20620E0E74C
:10F920000A48814201D20720DBE7FF20D9E7000027
:10F93000004000080080000800C000080000010826
:10F940000000020800000408000006080000080883
:10F950007047000010B5044654BB3348B0F821107E
:10F960000822233000F0C6FD2F48B0F82B100822E3
:10F970002D3000F0BFFD2C48B0F83510082237308C
:10F9800000F0B8FD2848B0F803100822401D00F030
:10F99000CDFD2548B0F80D1008220F3000F0C6FD4F
:10F9A0002148B0F817100822193000F0BFFD39E0E7
:10F9B000012C37D11C48B0F82B1008222D3000F054
:10F9C00099FD1948B0F835100822373000F092FD43
:10F9D0001548B0F83F100822413000F08BFD124866
:10F9E000B0F8491008224B3000F084FD0E48B0F802
:10F9F00003100822401D00F099FD0B48B0F80D10CF
:10FA000008220F3000F092FD0748B0F817100822C6
:10FA1000193000F08BFD0448B0F821100822233083
:10FA200000F084FD10BD0000681E002010B5FEF738
:10FA300079F810BD00B593B0342106A8FCF72AFC74
:10FA4000142101A8FCF726FC00BF002000902648E6
:10FA5000006840F08050244908600846006800F0C3
:10FA60008050009000BF00BF00BF002000901F48E2
:10FA7000006840F440401D4908600846006800F4F2
:10FA80004040009000BF00BF012006900004079096
:10FA900002200C9041050D9104210E91B4210F918B
:10FAA000022110911191129106A8FEF7CFFA08B128
:10FAB000FCF722FDFEF710F908B1FCF71DFD0F2041
:10FAC000019003200290002003904FF4A050049076
:10FAD0004FF480500590052101A8FEF743F908B1C5
:10FAE000FCF70AFD13B000BD403802400070004032
:10FAF0000348006840F47000014908607047000046
:10FB000088ED00E001480068406A7047AC010020C1
:10FB100010B502682B4B98420ED0B0F1804F0BD03D
:10FB2000294B984208D0294B984205D0284B98423F
:10FB300002D0284B984203D122F070024B681A433E
:10FB4000204B984220D0B0F1804F1DD01E4B9842E0
:10FB50001AD01E4B984217D01D4B984214D01D4B03
:10FB6000984211D01C4B98420ED01C4B98420BD09F
:10FB70001B4B984208D01B4B984205D01A4B984219
:10FB800002D01A4B984203D122F44072CB681A4338
:10FB900022F080034C6943EA04028B68C3620B685D
:10FBA0008362084B984202D00A4B984201D10B69FC
:10FBB0000363036843F004030360012343610260AD
:10FBC00010BD00000000014000040040000800409B
:10FBD000000C00400004014000400140004401408E
:10FBE0000048014000180040001C00400020004078
:10FBF00030B50C46816821F47F4142EA0325254354
:10FC00002943816030BD0A46816821F0700142F0CD
:10FC1000070319438160704730B50B461446026AEA
:10FC2000056A25F001050562816921F0F00141EACC
:10FC3000041122F00A021A438161026230BD30B51C
:10FC40000B461446026A056A25F0100505628169B3
:10FC500021F4704141EA043122F0A00242EA031289
:10FC60008161026230BD00002DE9F84F0446206832
:10FC7000006920F44050E168084321680861216967
:10FC8000A068084361690843E1690843009020685F
:10FC9000C06849F20C618843009908432168C86034
:10FCA0002068406920F44070A169084321684861D8
:10FCB00076492068884203D075492068884203D17C
:10FCC000FEF728F9814602E0FEF714F98146E06963
:10FCD000B0F5004F6CD102206168A0FB01500346D3
:10FCE0001920A9FB007001462A463846FCF788FA1D
:10FCF0006421B0FBF1F04FEA001A02206168A0FB1A
:10FD000001510B461920A9FB00712A463846FCF721
:10FD100077FA834602206168A0FB01500346192050
:10FD2000A9FB00712A463846FCF76AFA6421B0FB49
:10FD3000F1F000EBC00101EB0010ABEB80003221D1
:10FD400001EBC0006421B0FBF1F000F0F8000AEB19
:10FD5000400A02206168A0FB015003461920A9FB5C
:10FD6000007001462A463846FCF74AFA83460220CC
:10FD70006168A0FB015003461920A9FB00712A46C7
:10FD80003846FCF73DFA6421B0FBF1F000EBC0010E
:10FD900001EB0010ABEB8000322101EBC0006421CD
:10FDA000B0FBF1F000F007005044216888606AE081
:10FDB00004206168A0FB015003461920A9FB0070D4
:10FDC00001462A463846FCF71BFA82460420616841
:10FDD000A0FB015003461920A9FB007001462A46EA
:10FDE0003846FCF70DFA6421B0FBF1F000EBC001DE
:10FDF00001EB0010AAEB8000322101EB001064211E
:10FE0000B0FBF1F000F0F00A04206168A0FB017083
:10FE100003461920A9FB00513A462846FCF7F0F9A1
:10FE20006421B0FBF1F00AEB001A04206168A0FB2A
:10FE300001510B461920A9FB00712A463846FCF7F0
:10FE4000DFF9834604206168A0FB015003461920B6
:10FE5000A9FB007001462A463846FCF7D1F9642117
:10FE6000B0FBF1F000EBC00101EB0010ABEB800048
:10FE7000322101EB00106421B0FBF1F000F00F0023
:10FE8000504421688860BDE8F88F000000100140F0
:10FE900000140140F8B504460E46802700251FE0F7
:10FEA00004F10900415D15488289103081541038F1
:10FEB0008089401C114988810846D0F81002401CF6
:10FEC000C1F8100208468089B0F5007F07D10020F4
:10FED00088813A46103101F5017000F0A2F86D1CDE
:10FEE000B4F80700A842DBDC00200090D4F803201F
:10FEF0003623FE213046FFF77BFAF8BD181F00209D
:10FF0000F8B504460D4600202D498881C1F810023D
:10FF1000FF224FF400712A481030FCF7B4F9002199
:10FF200004F1090000F05BFD2549C1F81C02042121
:10FF300004F1090000F053FD2149C1F82002082115
:10FF400004F1090000F04BFD1D49C1F824020C2109
:10FF500004F1090000F043FD1949C1F828021948CD
:10FF6000194908601648D0F81C0248601448D0F8B7
:10FF7000200288601248D0F82402C8601048D0F8E7
:10FF80002802086100230522104800F023F8012010
:10FF90000B49C1F818020846D0F818622EB10C4877
:10FFA000C1F81402022100F025FB00BF0020362317
:10FFB000FF22FA2100902846FFF71AFAF8BD000048
:10FFC000181F002000AA50A0CC21002000800008AB
:10FFD000000004082DE9D04390B081460E46174634
:10FFE0009846102440216846FCF754F92246694699
:10FFF000484600F01BFC484600F024FB002006E0C9
:020000040801F1
:1000000056F8201008EB00024DF82210401CB842B0
:10001000F6D322466946484600F014FC10B0BDE80D
:10002000D08370B504460E46154614B10EB1802D2E
:1000300000D070BD2A463146206800F003FC2068DD
:1000400000EB85002060A900FF223046FCF71BF979
:1000500000BFEEE700BFFEE770B505460C4616464A
:10006000002E4ED12068012806D0022815D0032882
:1000700024D0042844D132E04948406840F00100CF
:10008000474948602088A5F82B00082204F10801A0
:1000900005F12D00FEF76CFE32E04148406840F06B
:1000A00002003F4948602088A5F83500082204F185
:1000B000080105F13700FEF75BFE21E03848406893
:1000C00040F00400364948602088A5F83F00082227
:1000D00004F1080105F14100FEF74AFE10E0304846
:1000E000406840F008002E4948602088A5F8490083
:1000F000082204F1080105F14B00FEF739FE00BFAC
:100100004DE02068012806D0022814D0032823D00F
:10011000042843D131E02248806840F001002049A2
:1001200088602088A5F80300082204F10801681DF2
:10013000FEF71EFE32E01A48806840F002001849BF
:1001400088602088A5F80D00082204F1080105F157
:100150000F00FEF70DFE21E01148806840F004001A
:100160000F4988602088A5F81700082204F10801CB
:1001700005F11900FEF7FCFD10E00948806840F029
:100180000800074988602088A5F82100082204F1AA
:10019000080105F12300FEF7EBFD00BF00BF70BDB5
:1001A0005C1E0020F0B5024600230846CF1701EB85
:1001B0009777BC101646002003E056F820707B406D
:1001C000401CA042F9DB0846CF1701EB9777BF1020
:1001D000A1EB8705002004E000EB8407D75D7B409E
:1001E000401CA842F8DB03F1AA00F0BD02480068F9
:1001F000C0F30220704700000CED00E010B50028AD
:1002000004DB0A07130E054A135406E00A07140E0E
:10021000034A00F00F031B1FD45410BD00E400E09C
:1002200018ED00E002E008C8121F08C1002AFAD148
:1002300070477047002001E001C1121F002AFBD166
:100240007047000000B589B0002005900690079027
:100250000890019002900390049033484078C0B118
:1002600000203149487031490860314908602E4901
:10027000486088600878FFF76DFBFF2258212D4801
:10028000FCF701F82849087800F0B8FB294800F08D
:10029000AFFA00F067F900F089F972B605E022497B
:1002A0000878002205A9FFF721F805A92248FFF7E1
:1002B0004AF80028F3D105E01B490878012201A97A
:1002C000FFF714F801A91D48FFF73DF80028F3D106
:1002D00062B61548406880B1134840681349096800
:1002E00088420AD00020164981F8B5000E484068BF
:1002F0000E4908600F4800F07BFA0B48806880B117
:10030000094880680A49096888420AD000200C49D7
:1003100081F8B5000448806805490860054800F088
:1003200067FA09B000BD00005C1E00203C00002000
:1003300040000020C01E00209C0300203C10002034
:100340008C1D002010B500200B4948700870582102
:100350000A48FBF79FFFFF2258210948FBF793FF4C
:10036000002000F04BFB4420064981F85B00044864
:1003700000F03EFA10BD00005C1E0020681E002048
:10038000C01E00208C1D002010B544210448FBF73E
:1003900081FFFF2244210348FBF775FF10BD0000D9
:1003A00044210020882100202DE9F041002500276C
:1003B0000024002600F0F8F925480078012801D033
:1003C000BDE8F08172B62248447800202049487088
:1003D00008700846C078FA2807DA0126E1B21C48FE
:1003E000801CFEF7EBFC1B4D10E01948C078FA2882
:1003F0000ADB442C08D1022644221549891C1648E0
:10040000FBF72FFF144D01E062B6D9E762B62878FA
:10041000AA281BD1601E285CBB2817D1611F284663
:10042000FFF7C0FE0746611F4819002100F0C8FA17
:10043000B84200D0C4E7012E03D1E0B200F04EFB79
:1004400004E0022E02D101200449487000BFB7E742
:100450008C1D0020681E002044210020181F002051
:1004600010B51E484078F0B100201C4948701C4867
:10047000B0F80100FD280DD0FE2806D0FF280ED1CF
:1004800018491748FFF73CFD09E016491448FFF7E3
:1004900001FD04E013491248FEF7AEFC00BF00BFA7
:1004A000104800F0A5F9104800F04CFAA8B101205E
:1004B00080F3108800BF00BFBFF34F8F0B48006868
:1004C00000F4E0600A490843001D08490860BFF3D2
:1004D0004F8F00BF00BF00BFFDE710BD181F0020F9
:1004E0004421002088210020501E00200CED00E057
:1004F0000000FA0570B586B005460E461446029611
:100500000394002003E02A5C04A90A54401CA04282
:10051000F9D305980090044802A90EC9FEF736FFEA
:1005200000F020F806B070BDAC03002070B586B0B6
:1005300005460E46144602960394002003E02A5C0A
:1005400004A90A54401CA042F9D30598009004481D
:1005500002A90EC9FEF71AFF00F028F806B070BD18
:100560004C10002000B58BB00020039004908DF853
:1005700018000FE007A90B48FEF7E5FE00B90EE0F2
:1005800007980190089805906B4609AA01A90648AA
:10059000FCF7ABF90448FCF7B1FB0028EAD100BF37
:1005A0000BB000BDAC0300204400002000B58BB0B0
:1005B0000020039004908DF818000FE007A90B4865
:1005C000FEF7C1FE00B90EE007980190089805906B
:1005D0006B4609AA01A90648FCF787F90448FCF70D
:1005E0008DFB0028EAD100BF0BB000BD4C100020ED
:1005F0006C000020F0B587B006460D4615B9002006
:1006000007B0F0BD3046FFF767F90446FF2C01D173
:100610000120F5E76019082801DD0120F0E700203E
:10062000019002900220069004940595FDF750F980
:1006300001A902A8FDF7A4F80746FDF7F7F8384628
:10064000DEE7000070B586B00446B4F1006F17D045
:100650001948844214D01948844211D01848844261
:100660000ED0184884420BD01748844208D017484F
:10067000844205D01648844202D0012006B070BDE5
:100680002046FFF729F90546FF2D01D10120F5E7A6
:100690000020009001900220059003950120049015
:1006A000FDF716F9694601A8FDF76AF80646FDF759
:1006B000BDF83046E2E70000004000080080000876
:1006C00000C0000800000108000002080000040843
:1006D000000006082DE9F04106460D460027344685
:1006E0001048007860B96F1FAA202070BB2084F8E2
:1006F000430039462046FFF755FDC4F83F000FE0A0
:100700000848007801280BD16F1FAA202070BB2059
:1007100084F8570039462046FFF744FDC4F85300DB
:10072000BDE8F0815C1E002070B5FEF7D3FE002806
:1007300033D072B6FEF7A6FE04461848006840683B
:1007400086B20CB1582C00D95824A64201DCA01B5B
:1007500085B2442D03D844201149487006E0442D49
:1007600004D9582D02D858200D4948700C484078BB
:1007700060B10B4842780B49801CFBF772FD0120E9
:10078000074908700846407881F85B00002004495A
:1007900081F8B50062B6FEF7A5FE70BDEC00002042
:1007A0008C1D0020DC1C002008B50F4890F8B40018
:1007B000B8B10E48FDF7BEFE00200B4981F8B50028
:1007C00000BF009009480068C068009007480068B2
:1007D0008068009000BF00BF002081F8B40000F0E6
:1007E0005BF8FEF7C5FE08BD8C1D002094000020BC
:1007F00010B5044604B910BD72B60B4890F85B20E2
:1008000021465C30FBF72DFD074890F85B105C300B
:10081000FFF760FF0120044981F85A0062B6FEF735
:10082000A7FE00BFE7E700008C1D002010B50B46B7
:10083000002104E0046843F82140001D491C914256
:10084000F8D310BD2DE9F04105460F46904605F05E
:10085000030010B10120BDE8F081B5F1006F01D2B5
:100860000120F8E70026FDF733F800240CE057F8E4
:1008700024C005EB8401624600230220FCF7E0FF60
:10088000064606B102E0641C4445F0D300BFFCF705
:10089000CDFF3046DFE7000010B500201349087097
:1008A000487058211148801CFBF7F4FC582110486F
:1008B000FBF7F0FC00200D4981F8B40081F8B50089
:1008C00001200C490870094890F85B0018B95820BD
:1008D000064981F85B00FEF7DBFDFEF7B1FD01285C
:1008E00002D1024981F8B40010BD00008C1D002027
:1008F000DC1C00203800002010B5642209490A4899
:10090000FEF76FFD642209490948FEF76AFD64227B
:1009100008490948FEF765FD642208490848FEF7C2
:1009200060FD10BDBC0300209C030020FC090020DA
:10093000AC0300205C1000203C1000209C1600201E
:100940004C10002000B50146087A08B9487A00BD6D
:10095000FFF7D8F802460868131A4868984203D887
:10096000002008720120F2E70020F0E700B50246FF
:10097000FFF7C8F81060516001201072002050721B
:1009800000BD000070B502460B464FF0FF310B4D25
:1009900000200FE0145C6140002408E001F0010633
:1009A0001EB1064E86EA510100E04908641C082C7D
:1009B000F4DB401C9842EDD3C84370BD2083B8EDF2
:1009C0000246535C481C105C43EA0023881C105C00
:1009D00043EA0043C81C105C43EA006070470246CB
:1009E000535C481C105C43EA0023881C105C43EAFB
:1009F0000043C81C105C43EA0060704770B50446B1
:100A0000002594B93F2540F203301249A1F80100B6
:100A1000AA200870BB2081F8430029460D48FFF743
:100A2000C1FB0C49C1F83F0013E0012C11D1532543
:100A300040F204400749A1F80100AA200870BB2039
:100A400081F8570029460348FFF7ACFB0149C1F87C
:100A5000530070BDC01E00201B481C490860FDF7F4
:100A60006DF8FEF7E7FFFEF72FFBFEF7F1FAFEF752
:100A70004BFAFEF79BFAFEF781FBFEF717FCFEF739
:100A8000DDFBFFF739FF124801681248FFF76EFFE0
:100A9000FFF758FCFFF778FCFFF7FEFE12E0FFF7C8
:100AA00083FCFFF7CFFBFFF7DBFC0A48FFF74AFFA9
:100AB00040B1074801680748FFF758FF2021064862
:100AC000FDF71AF8EBE7000000C0000808ED00E0B1
:100AD00000000020441E002000080240442805D1E8
:100AE0000021064A11700121517005E0582803D1F8
:100AF0000121024A11705170704700005C1E0020F5
:100B0000000610160006101600000000000000008D
:100B100001020304060708090000000001020304A3
:100B2000400B0108000000204400000024020108DE
:100B3000840B0108440000209C25000034020108B9
:100B400020A10700000000000000000000000000DD
:100B50000000000000000000010000000000000094
:100B60000000000000000000000000001000000075
:100B7000010000000024F40000000000000000005C
:040B80000000000071
:040000050800C1C569
:00000001FF
