:020000040800F2
:10000000E81B0020F1010008614500087541000867
:100010005D45000821030008395800080000000071
:10002000000000000000000000000000714800080F
:10003000690500080000000091460008C948000852
:100040000B0200080B0200080B0200080B0200085C
:100050000B0200080B0200080B0200080B0200084C
:100060000B0200080B0200080B02000879040008CC
:10007000890400080B0200080B0200080B020008AC
:100080000B0200080B0200080B0200080B0200081C
:100090000B0200087D0500080B0200080B02000897
:1000A0000B0200080B0200080B0200080B020008FC
:1000B0000B0200080B0200080B0200080B020008EC
:1000C0000B0200080B0200080B0200080B020008DC
:1000D0000B020008295800080B0200080B02000858
:1000E0000B0200080B0200080B0200080B020008BC
:1000F0000B0200080B0200080B0200080B020008AC
:100100000B0200080B0200080B0200080B0200089B
:100110000B0200080B0200080B0200080B0200088B
:100120000B0200080B0200080B0200080B0200087B
:100130000B0200080B0200080B0200080B0200086B
:100140000B0200080B0200080B0200080B0200085B
:100150000B0200080B0200080B0200080B0200084B
:100160000B0200080B0200080B0200080B0200083B
:100170000B0200080B0200080B0200080B0200082B
:100180000B0200080B0200080B0200080B0200081B
:100190000B020008000000000B0200088D0500089B
:1001A0000B0200080B0200080B0200080B020008FB
:1001B0000B0200080B0200080B0200080B020008EB
:1001C0000B0200080B0200080B0200080B020008DB
:1001D0000B0200080B020008DFF810D000F08EF8C8
:1001E00000F05CF800480047655E0008E81B00204E
:1001F0000648804706480047FEE7FEE7FEE7FEE7C1
:10020000FEE7FEE7FEE7FEE7FEE7FEE745490008FA
:10021000D90100082DE9F05F0546002092469B4673
:1002200088460646814640241BE02846414647460C
:10023000224600F052F853465A46C01A914110D354
:1002400011461846224600F039F82D1A67EB0108CE
:100250004F4622460120002100F030F817EB00093C
:100260004E41201EA4F10104DFDC484631462A46F7
:100270004346BDE8F09FD2B201E000F8012B491ED1
:10028000FBD270470022F6E710B513460A46044633
:100290001946FFF7F0FF204610BD000070B5054C71
:1002A000054D04E02046016808448047241DAC4207
:1002B000F8D170BDFC61000804620008202A04DB4C
:1002C000203A00FA02F1002070479140C2F1200369
:1002D00020FA03F3194390407047202A04DB203AA8
:1002E00021FA02F00021704721FA02F3D040C2F156
:1002F000200291400843194670470000064C074D04
:1003000006E0E06840F0010394E8070098471034E5
:10031000AC42F6D3FFF764FFDC610008FC61000823
:10032000FFE7FEE780B58AB00990089107920020A8
:1003300006900590049003900899C9680391089964
:10034000096804918DF80B00FFE79DF80B000399F5
:1003500088420ED2FFE707989DF80B20805C03A926
:1003600011440872FFE79DF80B0001308DF80B0077
:10037000EBE7099841F2AC11C2F2000188420ED1BC
:10038000FFE70399049A059B0698EC46CCF8000019
:1003900041F29000C2F2000004F0B8F916E00998AA
:1003A00041F21021C2F2000188420ED1FFE7039909
:1003B000049A059B0698EC46CCF8000041F2B00088
:1003C000C2F2000004F0A2F9FFE7FFE70AB080BD27
:1003D00080B592B01190109103200290FFE7119820
:1003E00000F020FF01460020019041B1FFE7029894
:1003F000411E0291002818BF01200190FFE70198DB
:10040000C007B0B3FFE7109804F074F908B1FFE734
:100410002FE010980268C068110100EB021CDCF8A4
:100420000420DCF80830DCF80CC0CDF83CC00E939A
:100430000D9240580C900CA800F108020D98039002
:100440000020049005900C99069107904FF48011BC
:10045000089109900A900B90119803A900F082FC72
:1004600028B9FFE710980CA904F014F900E000E0A7
:10047000B5E712B080BD000080B541F2EC00C2F2D9
:10048000000000F00FFA80BD80B541F24C10C2F2BE
:10049000000000F007FA80BD84B003900398006864
:1004A00040F20741C4F20201884211D8FFE740F64A
:1004B0000000C4F2020000900398007808384CF65F
:1004C000CD41CCF6CC41A0FB01100009019012E017
:1004D00040F62000C4F2020000900398007808382B
:1004E0004CF6CD41CCF6CC41A0FB0101082000EB3D
:1004F00011100190FFE700980290029803994A6C4E
:1005000022F0030210448864039940F68000C4F28C
:100510000200C864019800F01F010120884003997F
:10052000086504B07047000082B0019001984068EF
:1005300000F07F000090009940F6FC00C4F2020039
:1005400000EB810001994865019940F64010C4F222
:10055000020088650098013800F01F0101208840E2
:100560000199C86502B070477047000081B0EFF391
:10057000108072B60090FFE7FEE7000080B541F200
:10058000AC10C2F2000000F05DFE80BD80B541F20B
:100590001020C2F2000000F055FE80BD83B0029032
:1005A0004AF20040C4F2000000900298006846F64B
:1005B0000001C4F20001884205D1FFE7009800F570
:1005C00054700090FFE70298006846F60041C4F2BC
:1005D0000001884205D1FFE7009800F5D460009043
:1005E000FFE700980299086402980068D0F880003C
:1005F00020F4F810029A1168526B40EA0240C1F8E8
:100600008000009870300299486402980068D0F821
:10061000800020F07060029A1168926B40EA0260DC
:10062000C1F880000098B03002998864009800F505
:10063000C4700299C864009800F5187002990865A2
:10064000009800F51E700299486500980190FFE738
:100650000198009901F55471884208D2FFE7019989
:1006600000200860FFE7019804300190F0E703B034
:100670007047000088B00790069105920493069891
:10068000406848B9FFE7069801688268006910432E
:1006900040EA8140039009E0069801688268006999
:1006A0001043084340F080400390FFE70698D0F8DD
:1006B00020C0C16842698369C06940EA0C60184380
:1006C000104340EA014002900798406D049901EB05
:1006D000C10100EBC10001900398019908600198E5
:1006E000043001900298019908600198043001904B
:1006F00000200090FFE700980699CA6846F28A1128
:10070000C0F60001895C88420DD2FFE70598009988
:10071000405801990860019804300190FFE7009863
:1007200004300090E7E708B07047000083B0019004
:1007300000208DF80300019820B9FFE701208DF813
:100740000B0049E0019890F82500022807D0FFE748
:1007500001990420C86301208DF803002DE0019861
:100760000168086820F001000860019801680868C5
:1007700020F00E0008600198816C086820F48070F9
:1007800008600198016C406C00F01F02012090404D
:1007900048600198C16C006D48600198406D58B187
:1007A000FFE70198416D086820F4807008600198A7
:1007B000816DC06D4860FFE7FFE70199012081F876
:1007C0002500FFE70199002081F82400FFE79DF84C
:1007D00003008DF80B00FFE79DF80B0003B0704796
:1007E00080B582B0019000208DF80300019890F848
:1007F0002500022811D0FFE701990420C863019960
:10080000012081F82500FFE70199002081F82400EC
:10081000FFE701208DF803003FE0019801680868B8
:1008200020F00100086001980168086820F00E00BF
:1008300008600198816C086820F480700860019855
:10084000016C406C00F01F0201209040486001984C
:10085000C16C006D48600198406D58B1FFE7019888
:10086000416D086820F4807008600198816DC06D4A
:100870004860FFE70199012081F82500FFE7019911
:10088000002081F82400FFE70198806B20B1FFE78A
:100890000198816B8847FFE7FFE79DF8030002B0EE
:1008A00080BD000080B584B003900398006C0068A0
:1008B0000290039800680068019002980399496CBF
:1008C00001F01F01C8404007002825D5FFE79DF82B
:1008D0000400400700281FD5FFE703980068006860
:1008E0008006002807D4FFE703980168086820F015
:1008F00004000860FFE70398016C406C00F01F02E1
:100900000420904048600398006B20B1FFE70398F3
:10091000016B8847FFE76EE002980399496C01F08C
:100920001F01C840800700282FD5FFE79DF804006D
:100930008007002829D5FFE7039800680068800633
:1009400000280BD4FFE703980168086820F00A002C
:1009500008600399012081F82500FFE70398016CE6
:10096000406C00F01F02022090404860FFE70399AE
:10097000002081F82400FFE70398C06A20B1FFE758
:100980000398C16A8847FFE734E002980399496CED
:1009900001F01F01C8400007002829D5FFE79DF896
:1009A00004000007002823D5FFE7039801680868C2
:1009B00020F00E0008600398026C406C00F01F01EC
:1009C000012000FA01F151600399C863039981F88D
:1009D0002500FFE70399002081F82400FFE7039832
:1009E000406B20B1FFE70398416B8847FFE700E0C9
:1009F000FFE7FFE7FFE704B080BD000080B584B0EB
:100A00000290029820B9FFE701208DF80F009EE0C8
:100A10000298006840F20741C4F20201884218D8E7
:100A2000FFE7029908684FF6F872CBF6FD721044A2
:100A30004CF6CD42CCF6CC42A0FB02026FF0030094
:100A400000EA9200486402990020C4F2020008649F
:100A500018E0029908684FF6F832CBF6FD721044A0
:100A60004CF6CD42CCF6CC42A0FB02026FF0030064
:100A700000EA92004864029940F20040C4F2020089
:100A80000864FFE70299022081F8250002980068B7
:100A900000680190019847F6F0718843019002992F
:100AA0008868D1F80CC00B694A6940EA0C00184309
:100AB00010438A691043CA691043096A01430198C7
:100AC0000843019001980299096808600298FFF7AD
:100AD000E3FC02988068B0F5804F04D1FFE70299EB
:100AE00000204860FFE702994868896C00F07F00A9
:100AF00008600298C16C006D48600298406888B137
:100B0000FFE70298406804280CD8FFE70298FFF737
:100B10000BFD0298416D002008600298816DC06D48
:100B2000486007E0029900204865029988650299AB
:100B3000C865FFE702990020C863029A012182F884
:100B40002510029981F824008DF80F00FFE79DF829
:100B50000F0004B080BD000086B0049003910292A3
:100B6000049890F85C008DF80700BDF80C0010F4B4
:100B7000C07F01D0FFE7FFE79DF80700012806D0FE
:100B8000FFE79DF80700022840F0DE80FFE70498A9
:100B90000068806D00909DF80C00400730B1FFE7C1
:100BA0009DF80000C007002847D0FFE79DF80C0023
:100BB00010F0380F06D0FFE79DF8000080070028EE
:100BC0003BD5FFE7BDF80C0010F4E07F06D0FFE74F
:100BD0009DF80000400700282FD5FFE79DF80D0085
:100BE00010F01E0F06D0FFE79DF800000007002858
:100BF00023D5FFE79DF80D0010F0E00F06D0FFE7CA
:100C00009DF80000C006002817D5FFE79DF80E00EC
:100C1000800730B1FFE79DF80000800600280CD562
:100C2000FFE79DF80E0010F0FC0F0DD0FFE79DF8D8
:100C300000004006002807D4FFE704980168C86D4B
:100C400040F00100C865FFE79DF80C00400730B197
:100C5000FFE79DF80000C007002847D1FFE79DF897
:100C60000C0010F0380F06D0FFE79DF80000800759
:100C700000283BD4FFE7BDF80C0010F4E07F06D05D
:100C8000FFE79DF80000400700282FD4FFE79DF8FC
:100C90000D0010F01E0F06D0FFE79DF800000007C2
:100CA000002823D4FFE79DF80D0010F0E00F06D0D8
:100CB000FFE79DF80000C006002817D4FFE79DF865
:100CC0000E00800730B1FFE79DF800008006002885
:100CD0000CD4FFE79DF80E0010F0FC0F0DD0FFE7DD
:100CE0009DF800004006002807D5FFE7049801683A
:100CF000C86D40F00200C865FFE79DF80C000006D3
:100D0000002809D5FFE7029A04980168D1F8DC00B1
:100D10001043C1F8DC00FFE79DF80D00C00748B1A3
:100D2000FFE7029A04980168D1F8E0001043C1F887
:100D3000E000FFE7039A04980168486D1043486596
:100D400000208DF8170008E00499086E40F00200BA
:100D5000086601208DF81700FFE79DF8170006B020
:100D60007047000080B586B004900391029203980A
:100D7000406808B9FFE700E0FFE7049890F85C00DE
:100D800002282FD1FFE704980068D0F8C400800241
:100D9000002809D5FFE70499086E40F40070086642
:100DA00001208DF8170026E004980068D0F8C400F0
:100DB000C0F30140019004980399029A019BFFF748
:100DC00059FC0199012000FA01F1049A1268C2F855
:100DD000CC100199884004998865FFE700208DF8C0
:100DE000170008E00499086E40F00800086601202A
:100DF0008DF81700FFE79DF8170006B080BD0000D2
:100E000087B005900491059890F85C008DF8030078
:100E10009DF80300012805D0FFE79DF80300022894
:100E20003CD1FFE704980068B8B9FFE704998868E7
:100E3000CB680A694969800740EAC36040EA02401A
:100E4000084303900598006C0499496800EB810001
:100E500001900398019908601CE00498C16800693A
:100E600040EA4170039004988168406940EA8170CB
:100E700002900598406C0499496800EBC10001900C
:100E80000398019908600198043001900298019933
:100E90000860FFE700208DF81B0008E00599086E48
:100EA00040F00200086601208DF81B00FFE79DF866
:100EB0001B0007B07047000085B0DDF814C0039038
:100EC000029101920093039890F85C00012819D1D7
:100ED000FFE703980068D0F8800020F03F000299F7
:100EE0000901019A41EA8201009A41EA4201059A08
:100EF0001143084303990968C1F8800000208DF868
:100F0000130008E00399086E40F004000866012011
:100F10008DF81300FFE79DF8130005B0704700003F
:100F200085B0039002910192039890F85C008DF8CF
:100F300003009DF80300012805D0FFE79DF803009A
:100F4000022816D1FFE70198012807D1FFE7029A8E
:100F500003980168886D9043886506E0029A0398BB
:100F60000168886D10438865FFE700208DF8130045
:100F700008E00399086E40F00200086601208DF831
:100F80001300FFE79DF8130005B0704780B582B0ED
:100F90000190019800F02AF800900198006846F24C
:100FA0000041C4F20001884207D1FFE7009841F2F6
:100FB000D401C2F20001486010E00198006846F6D2
:100FC0000001C4F20001884207D1FFE7009841F216
:100FD000DC01C2F200014860FFE7FFE702B080BD1C
:100FE00082B00190009102B07047000081B0009083
:100FF0000098006E01B070478AB008900791069281
:101000000593089890F85C008DF803009DF80300A4
:10101000022840F0FA80FFE7079840283ED1FFE71A
:1010200008980068D0F89000000748B9FFE70899D1
:10103000086E40F48070086601208DF82700EDE00E
:1010400008980068D0F89000C0F30120019008983B
:101050000068D0F8900000F080710120B0EB116FB3
:1010600012D1FFE708980068D0F8800000F4007102
:101070000120B0EB512F06D1FFE70198013000F0BD
:1010800003000190FFE7FFE70898806C019901EBEE
:10109000C10100EBC1000490FFE73DE00898006843
:1010A000D0F89800000748B9FFE70899086E40F4A7
:1010B0008070086601208DF82700AFE0089800686E
:1010C000D0F89800C0F30120019008980068D0F88B
:1010D000980000F080710120B0EB116F12D1FFE792
:1010E00008980068D0F8800000F480710120B0EB0F
:1010F000112F06D1FFE70198013000F003000190A5
:10110000FFE7FFE70898C06C019901EBC10100EB14
:10111000C1000490FFE7FFE70498006800F08040FA
:10112000069948600698406838B9FFE70498006857
:10113000C0F38A400699086006E00498006820F031
:10114000604006990860FFE70498006800F00050CE
:10115000069988600498006800F0004006990861CC
:10116000049804300490049800880699C861049893
:101170000068C0F303400699C8600498006800F452
:101180008010069948610498006800F400100699E0
:10119000886104980068C0F30660069908620498A4
:1011A0000068C00F069948620498043004900498BF
:1011B000039000200290FFE702980699CA6846F261
:1011C0008A11C0F60001895C88420AD2FFE70398C1
:1011D000029A805C05998854FFE7029801300290DA
:1011E000EAE70798402806D1FFE7019808990968BF
:1011F000C1F8940005E0019808990968C1F89C00BD
:10120000FFE700208DF8270008E00899086E40F0FD
:101210000800086601208DF82700FFE79DF82700E9
:101220000AB0704782B0019001980068D0F8C400FD
:1012300000F007000090009802B0704781B0009065
:1012400001B0704780B58AB0099009980068006DB8
:1012500000F4E050089009980068416D0898084033
:10126000089009980068006D00F007000790099841
:101270000068416D07980840079009980068006D64
:1012800000F03800069009980068416D0698084003
:10129000069009980068006D00F4710005900998A7
:1012A0000068416D05980840059009980068006D38
:1012B00000F46020049009980068416D049808408B
:1012C000049009980068406D019009980068006DCD
:1012D00000909DF8000000F040010020B0EB911F4D
:1012E00012D0FFE79DF8040000F040010020B0EBB1
:1012F000911F08D0FFE70998016840200865099808
:10130000FFF79CFFFFE7FFE79DF80100C007E0B192
:10131000FFE79DF80500C007B0B1FFE70998006836
:10132000D0F8D800029009980068D0F8E010029830
:1013300008400290099801684FF480700865099888
:10134000029900F071FBFFE7FFE7089848B1FFE75B
:1013500008980999096808650998089900F070FBD0
:10136000FFE7079848B1FFE70798099909680865FA
:101370000998079900F0F2FAFFE7069848B1FFE7ED
:1013800006980999096808650998069900F002FB12
:10139000FFE79DF8010000F002010020B0EB510FC3
:1013A00013D0FFE79DF8050000F002010020B0EB2C
:1013B000510F09D0FFE7099801684FF400700865E4
:1013C000099800F043FBFFE7FFE79DF800100020BD
:1013D000B0EBD11F1DD0FFE79DF804100020B0EB4B
:1013E000D11F15D0FFE709980068D0F8D40003900A
:1013F00009980068D0F8DC10039808400390099819
:101400000168802008650998039900F013FBFFE745
:10141000FFE79DF8010000F020010020B0EB511F14
:1014200013D0FFE79DF8050000F020010020B0EB8D
:10143000511F09D0FFE7099801684FF40050086573
:10144000099800F0EDFAFFE7FFE79DF80110002092
:10145000B0EBD11F11D0FFE79DF805100020B0EBD5
:10146000D11F09D0FFE7099801684FF400400865D3
:10147000099800F0D1FAFFE7FFE79DF8010000F0BE
:1014800040010020B0EB911F15D0FFE79DF805004B
:1014900000F040010020B0EB911F0BD0FFE709984E
:1014A00001684FF4804008650999086E40F080009B
:1014B0000866FFE7FFE7049848B1FFE70498099939
:1014C0000968086509980499FFF78AFDFFE7059800
:1014D00050B1FFE70598099909680865059A0999C7
:1014E000086E10430866FFE70998006E20B1FFE719
:1014F0000998FFF74BFDFFE70AB080BD80B584B0C7
:101500000290029820B9FFE701208DF80F0057E103
:101510000298006846F20041C4F20001884201D1FD
:10152000FFE7FFE702988068B0F5407F01D1FFE751
:10153000FFE7029890F85C0040B9FFE702990020AD
:1015400081F85D00029800F03FF9FFE7029801681A
:10155000886920F01000886100F060FC0190FFE7CE
:101560000298006880690007002815D5FFE700F0A1
:1015700055FC0199401A0B280DD3FFE70299086E1C
:1015800040F0010008660299032081F85C00012008
:101590008DF80F0014E1E3E702980168886940F0D4
:1015A0000100886100F03AFC0190FFE702980068B2
:1015B0008069C007A8B9FFE700F030FC0199401A24
:1015C0000B280DD3FFE70299086E40F00100086672
:1015D0000299032081F85C0001208DF80F00EFE0F4
:1015E000E4E702980168886940F002008861029887
:1015F000006846F20041C4F20001884208D1FFE7CA
:101600000298406846F20051C4F200010860FFE70A
:101610000298007C012807D1FFE7029801688869D9
:1016200020F04000886106E002980168886940F077
:1016300040008861FFE70298407C012807D1FFE75E
:1016400002980168886940F48040886106E0029849
:101650000168886920F480408861FFE70298807CF7
:10166000012807D1FFE702980168886920F48050BB
:10167000886106E002980168886940F480508861BA
:10168000FFE702980068806920F44070029A1168B0
:1016900092681043886102980168886920F0A4006C
:1016A000886102980168086920F0100008610298BA
:1016B000C068012807D1FFE702980168886940F0F7
:1016C000040088612BE00298C06830B3FFE70298FD
:1016D000C068022819D0FFE702980168886940F0C5
:1016E0008000886102980168086940F01000086174
:1016F0000298C068032807D1FFE70298016888694B
:1017000040F020008861FFE706E0029801688869E0
:1017100040F020008861FFE700E0FFE7FFE7029A62
:10172000116853699069D2F81CE0A0F1010C6FF0C8
:10173000FF0000EB0E2040EA4C60126A013A1043B1
:101740000022CFF6FF7202EB03421043C8610298F9
:101750008068B0F5407F1CD1FFE7029A1168536A98
:10176000906AD2F82CE001386FF0FF0C0CEB0E2CD5
:1017700040EA0C00D2F830C06FF00F0202EB0C12FE
:1017800010430022CFF6FF7202EB03421043C86001
:10179000FFE702980168C26BD1F8C0001043C1F89E
:1017A000C0000298FEF7FAFE0299002088650299AF
:1017B0000866029A012182F85C108DF80F00FFE79D
:1017C0009DF80F0004B080BD80B5A4B02390002028
:1017D0002290219020901F901E9009A85421FEF77E
:1017E00051FD2398006846F20041C4F2000188428E
:1017F00053D1FFE74FF4805009904FF000701790DD
:1018000009A800F0ADFC18B1FFE7FEF7AFFEFFE757
:1018100041F2D000C2F200000168013101600068AD
:10182000012810D1FFE7FFE741F25800C4F202009F
:10183000016841F000710160006800F000700890DC
:101840000898FFE7FFE7FFE741F24C00C4F202000F
:10185000016841F008010160006800F0080007908D
:101860000798FFE703201E9002201F90002003909E
:10187000209021900920229040F60040C4F60000FC
:101880001EA900F00BF9039A15200490114600F0F0
:1018900063FB049800F056FB5DE02398006846F671
:1018A0000001C4F20001884254D1FFE74FF4805098
:1018B00009904FF00070179009A800F051FC18B182
:1018C000FFE7FEF753FEFFE741F2D000C2F200004F
:1018D0000168013101600068012810D1FFE7FFE7CE
:1018E00041F25800C4F20200016841F00071016049
:1018F000006800F0007006900698FFE7FFE7FFE73A
:1019000041F24C00C4F20200016841F002010160A2
:10191000006800F0020005900598FFE74FF4405082
:101920001E9002201F9000200190209021900920FD
:10193000229040F20040C4F600001EA900F0AEF86C
:10194000019A57200290114600F006FB029800F021
:10195000F9FAFFE7FFE724B080BD000080B58EB044
:101960000D900C919DF83000C00780B1FFE70D98F5
:10197000402102AA6B46FFF73FFB039830B9FFE70F
:101980000D9802A96A46FEF7CDFCFFE7FFE70EB00F
:1019900080BD000080B58EB00D900C919DF8300098
:1019A0000007002810D5FFE70D98412102AA6B46D9
:1019B000FFF722FB039830B9FFE70D9802A96A46AA
:1019C000FEF7B0FCFFE7FFE70EB080BD82B00090ED
:1019D000009890F85C00012810D1FFE700990220E0
:1019E00081F85C0000980168886920F00100886136
:1019F0000099002008668DF8070008E00099086E3D
:101A000040F00400086601208DF80700FFE79DF80C
:101A1000070002B07047000081B0009001B070472D
:101A200081B0009001B0704782B00190009102B087
:101A30007047000082B00190009102B07047000032
:101A400082B00190009102B07047000080B582B072
:101A500001900198006846F20041C4F200018842FA
:101A600008D1FFE7019841F2A001C2F20001FEF7A0
:101A7000AFFC11E00198006846F60001C4F20001D5
:101A8000884208D1FFE7019841F2C001C2F200018B
:101A9000FEF79EFCFFE7FFE702B080BD8BB00A9027
:101AA000099100200890FFE7099800680899C8404C
:101AB000002800F0B181FFE709980068089A012129
:101AC0009140084007900798002800F0A181FFE7A7
:101AD0000998406800F00300012807D0FFE7099843
:101AE000406800F0030002282FD1FFE70A988068C1
:101AF000069008984100032000FA01F106988843F7
:101B000006900998C0680899490000FA01F1069802
:101B10000843069006980A9988600A9840680690DB
:101B20000899012000FA01F1069888430690099867
:101B30004068C0F30010089900FA01F106980843C4
:101B4000069006980A994860FFE70998406800F0F7
:101B5000030003280CD1FFE70998406800F0030058
:101B600003281DD1FFE709988068012818D0FFE7F6
:101B70000A98C068069008984100032000FA01F115
:101B8000069888430690099880680899490000FAE9
:101B900001F106980843069006980A99C860FFE785
:101BA0000998406800F00300022826D1FFE70A9850
:101BB00008996FF0030202EA51010844006A069096
:101BC000089800F0070081000F2000FA01F1069844
:101BD0008843069009980069089901F00701890077
:101BE00000FA01F106980843069006980A99089BA6
:101BF00002EA530211440862FFE70A98006806905F
:101C000008984100032000FA01F1069888430690E5
:101C10000998406800F003000899490000FA01F1B2
:101C200006980843069006980A99086009988079F2
:101C30008007002800F0EB80FFE7FFE741F260003B
:101C4000C4F20200016841F001010160006800F087
:101C5000010005900598FFE7089820F0030008218F
:101C6000C4F2010140580690089800F0030081007A
:101C70000F2000FA01F10698884306900A98B0F107
:101C8000904F03D1FFE70020049042E00A9840F211
:101C90000041C4F60001884203D1FFE70120039010
:101CA00034E00A9840F60001C4F60001884203D1EE
:101CB000FFE70220029026E00A9840F60041C4F6B1
:101CC0000001884203D1FFE70320019018E00A9841
:101CD00041F20001C4F60001884203D1FFE704206D
:101CE00000900AE00A9941F20042C4F60002062080
:101CF000914208BF05200090FFE700980190FFE7A0
:101D000001980290FFE702980390FFE70398049080
:101D1000FFE70498089901F00301890000FA01F136
:101D20000698084306900698089921F003010822B6
:101D3000C4F20102885040F20840C4F20100006879
:101D40000690079906988843069009988079C006FE
:101D5000002805D5FFE70799069808430690FFE796
:101D6000069840F20841C4F20101086040F20C40BC
:101D7000C4F201000068069007990698884306900F
:101D8000099880798006002805D5FFE7079906980D
:101D900008430690FFE7069840F20C41C4F20101A7
:101DA000086040F20440C4F2010000680690079900
:101DB000069888430690099880798007002805D501
:101DC000FFE70799069808430690FFE7069840F258
:101DD0000441C4F20101086040F20040C4F2010075
:101DE00000680690079906988843069009988079BC
:101DF000C00728B1FFE70799069808430690FFE758
:101E0000069840F20041C4F201010860FFE7FFE7D5
:101E100008980130089047E60BB0704741F2E07037
:101E2000C2F200000068704740F20400C2F20000F5
:101E3000026841F2E071C2F20001086810440860D3
:101E40007047000080B582B000208DF807000320A5
:101E500000F09AF80F2000F00DF820B1FFE7012004
:101E60008DF8070002E000F049F8FFE79DF8070051
:101E700002B080BD80B582B0019000208DF80300D3
:101E800040F20400C2F20000006878B3FFE740F2BD
:101E90000000C2F20000006840F20401C2F200013A
:101EA0000A684FF47A71B1FBF2F1B0FBF1F001F086
:101EB00005FAB0B9FFE701980F280DD8FFE701999F
:101EC0004FF0FF30002200F047F8019840F208017F
:101ED000C2F20001086003E001208DF80300FFE773
:101EE00003E001208DF80300FFE703E001208DF8F7
:101EF0000300FFE79DF8030002B080BD80B582B00B
:101F0000FFE741F26000C4F20200016841F0010104
:101F10000160006800F0010001900198FFE7FFE711
:101F200041F25800C4F20200016841F080510160A2
:101F3000006800F0805000900098FFE700F006F97C
:101F400002B080BD80B582B08DF807009DF9070012
:101F500003F074FC02B080BD80B586B08DF8170028
:101F60000491039203F082FC02909DF91700019006
:101F700002980499039A02F0F5FA0146019803F0D9
:101F80007DFC06B080BD000080B582B00190019854
:101F900003F096FC02B080BD85B003900398002842
:101FA0005ED1FFE747F20000C4F20000006800F4D1
:101FB000C060B0F5806F49D1FFE747F28001C4F2FD
:101FC0000001086820F48070086047F20002C4F243
:101FD00000021168012060F34A21116040F2000103
:101FE000C2F200010968322251434DF68362C4F205
:101FF0001B32A1FB022100EB91400290FFE747F268
:102000001400C4F200000168002049050029019075
:1020100006D5FFE70298002818BF01200190FFE7CE
:102020000198C00720B1FFE7029801380290E6E767
:1020300047F21400C4F2000000684005002804D5EF
:10204000FFE703208DF813007CE008E047F28001F1
:10205000C4F20001086820F480700860FFE76DE0BA
:102060000398B0F5007F5ED1FFE747F20000C4F2AD
:102070000000006800F4C060B0F5806F49D1FFE750
:1020800047F28001C4F20001086840F480700860E3
:1020900047F20002C4F200021168012060F34A21F5
:1020A000116040F20001C2F200010968322251437E
:1020B0004DF68362C4F21B32A1FB022100EB91407A
:1020C0000290FFE747F21400C4F20000016800200C
:1020D00049050029009006D5FFE70298002818BF9F
:1020E00001200090FFE70098C00720B1FFE70298A9
:1020F00001380290E6E747F21400C4F200000068DD
:102100004005002804D5FFE703208DF8130019E0EF
:1021100008E047F28001C4F20001086840F48070D2
:102120000860FFE709E047F20001C4F20001086817
:10213000022262F34A200860FFE7FFE700208DF8E3
:102140001300FFE79DF8130005B0704747F2080140
:10215000C4F20001086840F4804008607047000045
:1021600080B586B0059000208DF80B008DF80A0030
:10217000059880780007002840F1B580FFE700202F
:102180008DF8090041F25800C4F202000068C00056
:10219000002813D4FFE7FFE741F25800C4F2020021
:1021A000016841F080510160006800F080500190AA
:1021B0000198FFE701208DF80900FFE747F20001D1
:1021C000C4F20001086840F480700860FFF726FE42
:1021D0000390FFE747F20000C4F200000068C0056A
:1021E00000280CD4FFE7FFF719FE0399401A0328D3
:1021F00004D3FFE703208DF80B0000E0EAE79DF829
:102200000B0000285BD1FFE741F29000C4F202000E
:10221000006800F4407004900498C8B1FFE7049887
:102220000599096D884213D0FFE741F29001C4F28D
:102230000201086820F440700490086840F480307F
:102240000860086820F48030086004980860FFE7A0
:102250009DF81000C007E0B1FFE7FFF7DFFD039036
:10226000FFE741F29000C4F20200006880070028F6
:102270000ED4FFE7FFF7D2FD0399401A41F28931EE
:10228000884204D3FFE703208DF80B0000E0E8E765
:10229000FFE79DF80B0060B9FFE741F29001C4F23F
:1022A0000201086820F44070059A126D104308601E
:1022B00004E09DF80B008DF80A00FFE704E09DF8AC
:1022C0000B008DF80A00FFE79DF80900012809D1ED
:1022D000FFE741F25801C4F20201086820F0805083
:1022E0000860FFE7FFE705980078C00760B1FFE7E7
:1022F00041F28801C4F20201086820F00300059A47
:10230000526810430860FFE70598007880070028AE
:102310000CD5FFE741F28801C4F20201086820F001
:102320000C00059A926810430860FFE70598007852
:10233000400700280CD5FFE741F28801C4F20201F2
:10234000086820F03000059AD26810430860FFE763
:1023500005980078000700280CD5FFE741F28801B6
:10236000C4F20201086820F0C000059A1269104307
:102370000860FFE705980078C00600280CD5FFE745
:1023800041F28801C4F20201086820F44070059A05
:10239000526910430860FFE705980078800600281E
:1023A0000CD5FFE741F28801C4F20201086820F46D
:1023B0004060059A926910430860FFE7059800782D
:1023C000400600280CD5FFE741F28801C4F2020163
:1023D000086820F44050059AD26910430860FFE76E
:1023E00005980078000600280CD5FFE741F2880127
:1023F000C4F20201086820F44040059A126A1043B2
:102400000860FFE705984078C00760B1FFE741F238
:102410008801C4F20201086820F44030059A526A2B
:1024200010430860FFE705988078800700280CD5E6
:10243000FFE741F29C01C4F20201086820F00300AA
:10244000059A926A10430860FFE705984078800774
:1024500000280CD5FFE741F28801C4F202010868A8
:1024600020F44020059AD26A10430860FFE70598DF
:102470004078400700281BD5FFE741F28801C4F2ED
:102480000201086820F44010059A126B104308609E
:102490000598006BB0F5801F09D1FFE741F20C01F0
:1024A000C4F20201086840F480100860FFE7FFE70B
:1024B00005984078000700281BD5FFE741F2880106
:1024C000C4F20201086820F44000059A526B1043E0
:1024D00008600598406BB0F5800F09D1FFE741F225
:1024E0000C01C4F20201086840F480100860FFE7A4
:1024F000FFE705984078C00600281BD5FFE741F2AA
:102500008801C4F20201086820F04070059A926BBD
:10251000104308600598806BB0F1807F09D1FFE718
:1025200041F20C01C4F20201086840F48010086016
:10253000FFE7FFE705984078800600281BD5FFE7F6
:1025400041F28801C4F20201086820F04060059A57
:10255000D26B104308600598C06BB0F1006F09D1D1
:10256000FFE741F20C01C4F20201086840F4801058
:102570000860FFE7FFE705984078400600281BD574
:10258000FFE741F28801C4F20201086820F04060D0
:10259000059A126C104308600598006CB0F1006F4A
:1025A00009D1FFE741F20C01C4F20201086840F4CE
:1025B00080100860FFE7FFE70598407800060028D4
:1025C0001BD5FFE741F28801C4F20201086820F040
:1025D0004050059A526C104308600598406CB0F169
:1025E000805F09D1FFE741F20C01C4F202010868E3
:1025F00040F480300860FFE7FFE705988078C00767
:10260000D8B1FFE741F28801C4F20201086820F066
:102610004040059A926C104308600598806CB0F1B8
:10262000804F09D1FFE741F20C01C4F202010868B2
:1026300040F480300860FFE7FFE7059880784007A6
:1026400000281BD5FFE741F29C01C4F20201086893
:1026500020F44010059AD26C104308600598C06CB5
:10266000B0F5001F09D1FFE741F20C01C4F20201ED
:10267000086840F480100860FFE7FFE79DF80A0053
:1026800006B080BD80B586B0049003910020009014
:10269000049820B9FFE701208DF8170081E1039825
:1026A00042F20001C4F20201096801F00F01884200
:1026B00016D9FFE742F20000C4F20200016821F0DF
:1026C0000F01039A11430160006800F00F000399A5
:1026D000884204D0FFE701208DF8170061E1FFE791
:1026E00004980078C007002800F0A380FFE7049852
:1026F0004068032839D1FFE741F20000C4F202002C
:1027000000688001002804D4FFE701208DF817003D
:1027100047E102F05FF8019001984BF20141C0F2ED
:10272000C441884220D3FFE741F20800C4F202000E
:10273000006810F0F00F0AD0FFE7049800788007D7
:10274000002810D5FFE70498806860B9FFE741F2E0
:102750000801C4F202010868082262F30710086049
:1027600080200090FFE7FFE738E0049840680228E7
:102770000ED1FFE741F20000C4F2020000688003BE
:10278000002804D4FFE701208DF8170009E10DE0CF
:1027900041F20000C4F2020000684005002804D4A1
:1027A000FFE701208DF81700FBE0FFE700F02CF9B0
:1027B000019001984BF20141C0F2C44188420CD310
:1027C000FFE741F20801C4F202010868082262F33F
:1027D0000710086080200090FFE7FFE741F2080142
:1027E000C4F20201086820F00300049A5268104302
:1027F0000860FFF713FB0290FFE741F20800C4F204
:102800000200006800F00C0004994968B0EB810FE9
:102810000ED0FFE7FFF702FB0299401A41F289311F
:10282000884204D3FFE703208DF81700B9E0E4E7FE
:10283000FFE704980078800700282CD5FFE704986C
:1028400000784007002809D5FFE741F20801C4F2EB
:102850000201086840F4E0600860FFE7049800782F
:10286000000700280BD5FFE741F20801C4F202017E
:10287000086840F4E06020F460500860FFE741F22F
:102880000801C4F20201086820F0F000049A92687E
:10289000104308600DE00098802809D1FFE741F25D
:1028A0000801C4F20201086820F0F0000860FFE7A8
:1028B000FFE7039842F20001C4F20201096801F047
:1028C0000F01884228D2FFE742F20001C4F2020160
:1028D000086820F00F00039A10430860FFF79EFA83
:1028E0000290FFE742F20000C4F20200006800F02C
:1028F0000F00039988420ED0FFE7FFF78FFA029985
:10290000401A41F28931884204D3FFE703208DF851
:10291000170046E0E6E7FFE7049800784007002844
:102920000CD5FFE741F20801C4F20201086820F467
:10293000E060049AD26810430860FFE704980078CA
:10294000000700280DD5FFE741F20801C4F202019B
:10295000086820F46050049A126940EAC2000860D6
:10296000FFE700F051F841F20801C4F202010968E2
:10297000C9B20A0946F27211C0F60001895C01F081
:102980001F01C84040F20001C2F20001086040F29D
:102990000800C2F200000068FFF76CFA8DF817001B
:1029A000FFE79DF8170006B080BD000040F2000070
:1029B000C2F200000068704780B5FFF7F7FF41F2F0
:1029C0000801C4F202010968C1F3022246F2821131
:1029D000C0F60001895C01F01F01C84080BD000005
:1029E00080B5FFF7E3FF41F20801C4F20201096874
:1029F000C1F3C22246F28211C0F60001895C01F0E7
:102A00001F01C84080BD000086B041F20800C4F23A
:102A10000200006800F00C00042806D1FFE742F233
:102A20000040C0F2F400019069E041F20800C4F2F5
:102A30000200006800F00C00082806D1FFE741F210
:102A40000020C0F27A00019058E041F20800C4F280
:102A50000200006800F00C000C284BD1FFE741F2A7
:102A60000C00C4F20200016801F003010491006847
:102A7000C1B2012000EB11100290049800900228CE
:102A800015D0FFE70098032812D1FFE7029941F221
:102A90000020C0F27A00B0FBF1F041F20C01C4F268
:102AA00002010968C1F306214843059011E0FFE7E0
:102AB000029942F20040C0F2F400B0FBF1F041F2A2
:102AC0000C01C4F202010968C1F3062148430590D4
:102AD000FFE741F20C00C4F20200006800F0C061A0
:102AE000022000EB1160039005980399B0FBF1F010
:102AF000019002E000200190FFE7FFE7FFE7019867
:102B000006B07047B0B588B00690069820B9FFE7C8
:102B100001208DF81F00CCE306980078C00700283C
:102B200000F09B80FFE741F20800C4F20200006859
:102B300000F00C00049041F20C00C4F202000068A6
:102B400000F00300039004980C2804D1FFE70398D9
:102B5000032804D0FFE70498082812D1FFE741F2C8
:102B60000000C4F2020000688003002808D5FFE7D7
:102B70000698406820B9FFE701208DF81F0098E310
:102B80006AE0FFE706984068B0F5803F09D1FFE7AB
:102B900041F20001C4F20201086840F4803008608C
:102BA00020E006984068B0F5A02F0DD1FFE741F274
:102BB0000001C4F20201086840F48020086008683F
:102BC00040F4803008600CE041F20001C4F20201E0
:102BD000086820F480300860086820F480200860CD
:102BE000FFE7FFE7FFE706984068D0B1FFE7FFF790
:102BF00015F90590FFE741F20000C4F202000068F9
:102C0000800300280CD4FFE7FFF708F90599401A64
:102C1000652804D3FFE703208DF81F0049E3EAE7A6
:102C200019E0FFF7FBF80590FFE741F20000C4F25E
:102C300002000068800300280CD5FFE7FFF7EEF8DC
:102C40000599401A652804D3FFE703208DF81F007B
:102C50002FE3EAE7FFE7FFE7FFE706980078800742
:102C6000002840F19F80FFE741F20800C4F2020013
:102C7000006800F00C00049041F20C00C4F2020065
:102C8000006800F00300039004980C2804D1FFE7CB
:102C90000398022804D0FFE7049804282CD1FFE70A
:102CA00041F20000C4F2020000684005002808D587
:102CB000FFE70698C06820B9FFE701208DF81F00E4
:102CC000F7E241F20401C4F20201086820F0FE407C
:102CD000069A126940EA0260086040F20800C2F2F7
:102CE00000000068FFF7C6F820B1FFE701208DF86B
:102CF0001F00DEE2FFE754E00698C06870B3FFE70C
:102D000041F20001C4F20201086840F480700860DA
:102D1000FFF784F80590FFE741F20000C4F20200DB
:102D20000068400500280CD4FFE7FFF777F8059905
:102D3000401A032804D3FFE703208DF81F00B8E2F0
:102D4000EAE741F20401C4F20201086820F0FE4003
:102D5000069A126940EA0260086021E041F200012F
:102D6000C4F20201086820F480700860FFF756F88A
:102D70000590FFE741F20000C4F202000068400540
:102D800000280CD5FFE7FFF749F80599401A0328FA
:102D900004D3FFE703208DF81F008AE2EAE7FFE78C
:102DA000FFE7FFE7069800780007002849D5FFE70E
:102DB0000698406910B3FFE741F29401C4F20201A2
:102DC000086840F001000860FFF728F80590FFE769
:102DD00041F29400C4F202000068800700280CD47D
:102DE000FFE7FFF71BF80599401A032804D3FFE714
:102DF00003208DF81F005CE2EAE721E041F2940134
:102E0000C4F20201086820F001000860FFF706F82C
:102E10000590FFE741F29400C4F2020000688007C9
:102E200000280CD5FFE7FEF7F9FF0599401A0328A3
:102E300004D3FFE703208DF81F003AE2EAE7FFE73B
:102E4000FFE7069800784007002840F1C680FFE7BA
:102E500000208DF80B0041F25800C4F20200006817
:102E6000C000002813D4FFE7FFE741F25800C4F286
:102E70000200016841F080510160006800F080505C
:102E800001900198FFE701208DF80B00FFE747F262
:102E90000000C4F200000068C005002822D4FFE74B
:102EA00047F20001C4F20001086840F48070086035
:102EB000FEF7B4FF0590FFE747F20000C4F2000000
:102EC0000068C00500280CD4FFE7FEF7A7FF0599AE
:102ED000401A032804D3FFE703208DF81F00E8E120
:102EE000EAE7FFE7FFE706988068012809D1FFE7D6
:102EF00041F29001C4F20201086840F0010008604C
:102F00001FE00698806805280DD1FFE741F2900187
:102F1000C4F20201086840F004000860086840F04C
:102F2000010008600CE041F29001C4F2020108685F
:102F300020F001000860086820F004000860FFE746
:102F4000FFE7FFE706988068E0B1FFE7FEF766FF5E
:102F50000590FFE741F29000C4F20200006880078C
:102F600000280ED4FFE7FEF759FF0599401A41F2F9
:102F70008931884204D3FFE703208DF81F0098E1D0
:102F8000E8E71BE0FEF74AFF0590FFE741F29000FB
:102F9000C4F202000068800700280ED5FFE7FEF7A4
:102FA0003DFF0599401A41F28931884204D3FFE779
:102FB00003208DF81F007CE1E8E7FFE79DF80B0098
:102FC000012809D1FFE741F25801C4F20201086863
:102FD00020F080500860FFE7FFE706980078800641
:102FE000002849D5FFE70698806910B3FFE741F252
:102FF0009801C4F20201086840F001000860FEF781
:103000000DFF0590FFE741F29800C4F2020000684E
:10301000800700280CD4FFE7FEF700FF0599401A4F
:10302000032804D3FFE703208DF81F0041E1EAE7FE
:1030300021E041F29801C4F20201086820F0010089
:103040000860FEF7EBFE0590FFE741F29800C4F23E
:1030500002000068800700280CD5FFE7FEF7DEFEBF
:103060000599401A032804D3FFE703208DF81F00B9
:103070001FE1EAE7FFE7FFE70698C069002800F0D4
:103080001481FFE741F20800C4F20200006800F07A
:103090000C000C2800F0B080FFE70698C0690228F9
:1030A0007CD1FFE741F20001C4F20201086820F080
:1030B00080700860FEF7B2FE0590FFE741F2000065
:1030C000C4F202000068800100280CD5FFE7FEF77B
:1030D000A5FE0599401A032804D3FFE703208DF8C5
:1030E0001F00E6E0EAE741F20C01C4F202010868C1
:1030F00048F20C02C0F29F121040DDF818C0DCF854
:103100002020DCF82450DCF828E0DCF82C306FF0CC
:103110000F0404EB0514224342EA0E22DCF830408F
:1031200040F2000ECFF6E07E0EEA045EAEF5001E21
:1031300042EA0E02DCF834E04FF07E4C0CEA0E6CF2
:103140000CF17E4C42EA0C0242EAC3621043086072
:1031500041F20002C4F20202106840F08070106078
:10316000086840F080700860FEF758FE0590FFE7A1
:1031700041F20000C4F202000068800100280CD473
:10318000FFE7FEF74BFE0599401A032804D3FFE73B
:1031900003208DF81F008CE0EAE72CE041F20001EB
:1031A000C4F20201086820F080700860FEF736FE65
:1031B0000590FFE741F20000C4F2020000688001C0
:1031C00000280CD5FFE7FEF729FE0599401A0328D1
:1031D00004D3FFE703208DF81F006AE0EAE741F21D
:1031E0000C01C4F2020108684FF6FC72CFF6EE62E1
:1031F00010400860FFE757E00698C069012804D135
:10320000FFE701208DF81F0053E041F20C00C4F2EB
:10321000020000680390039800F003000699096A11
:1032200088423BD1FFE7039800F0F00006994A6A14
:103230006FF00F0101EB021188422FD1FFE70398D5
:1032400000F4FE400699896AB0EB012F26D1FFE712
:10325000039800F078400699C96AB0EBC16F1DD1A0
:10326000FFE7039800F4C00006990A6B0021CFF62F
:10327000E07101EA0251A1F5001188420ED1FFE789
:10328000039800F0C06006994A6B4FF07E4101EA56
:10329000026101F17E41884204D0FFE701208DF8F0
:1032A0001F0006E0FFE7FFE7FFE700208DF81F00A3
:1032B000FFE79DF81F0008B0B0BD000080B582B0E8
:1032C0000190019801F0D6FA02B080BD85B003905C
:1032D0000291FFE7039890F83C00012804D1FFE732
:1032E00002208DF81300A7E00399012081F83C002B
:1032F000FFE7FFE70399022081F83D00039800688B
:103300004068019003980068806800900398006806
:1033100042F60041C4F20101884212D0FFE703984F
:10332000006843F20041C4F20101884209D0FFE77E
:103330000398006845F20001C4F2010188420AD1F5
:10334000FFE7019820F4700001900298416801980D
:1033500008430190FFE701984FF68F71CFF6FF51B8
:103360000840019002980168019808430190019873
:103370000399096848600398006842F60041C4F266
:10338000010188423CD0FFE703980068B0F1804F0C
:1033900036D0FFE70398006840F20041C4F2000114
:1033A00088422DD0FFE70398006840F60001C4F280
:1033B0000001884224D0FFE70398006840F60041EE
:1033C000C4F2000188421BD0FFE70398006843F273
:1033D0000041C4F20101884212D0FFE7039800685F
:1033E00044F20001C4F20101884209D0FFE70398CA
:1033F000006845F20001C4F2010188420ED1FFE7E6
:10340000009820F08000009002988168009808439E
:1034100000900098039909688860FFE703990120EC
:1034200081F83D00FFE70399002081F83C00FFE7A9
:1034300000208DF81300FFE79DF8130005B07047DA
:1034400080B582B00090009820B9FFE701208DF888
:10345000070045E0009890F83D0040B9FFE700996B
:10346000002081F83C00009800F03EF8FFE700994A
:10347000022081F83D00009951F8040B01F06CFA2C
:103480000099012081F84800FFE70099012081F8A8
:103490003E00009981F83F00009981F840000099B2
:1034A00081F84100009981F84200009981F84300B9
:1034B000FFE7FFE70099012081F84400009981F8B7
:1034C0004500009981F84600009981F84700FFE720
:1034D0000099012081F83D0000208DF80700FFE7EA
:1034E0009DF8070002B080BD82B00190019800688D
:1034F000B0F1804F10D1FFE7FFE741F25800C4F26E
:103500000200016841F001010160006800F0010063
:1035100000900098FFE7FFE702B0704783B001908A
:10352000019890F83D00012804D0FFE701208DF8B4
:103530000B006CE00199022081F83D0001980068C1
:1035400042F60041C4F2010188423CD0FFE70198F5
:103550000068B0F1804F36D0FFE70198006840F274
:103560000041C4F2000188422DD0FFE701980068B5
:1035700040F60001C4F20001884224D0FFE7019820
:10358000006840F60041C4F2000188421BD0FFE70A
:103590000198006843F20041C4F20101884212D050
:1035A000FFE70198006844F20001C4F2010188427B
:1035B00009D0FFE70198006845F20001C4F201015B
:1035C000884219D1FFE70198006880680721C0F29E
:1035D000010108400090009806280CD0FFE70098F1
:1035E000B0F5803F07D0FFE701980168086840F018
:1035F00001000860FFE706E001980168086840F0F4
:1036000001000860FFE700208DF80B00FFE79DF840
:103610000B0003B07047000080B586B004900391A2
:1036200000208DF80B00FFE7049890F83C0001287B
:1036300004D1FFE702208DF81700E7E0049901208C
:1036400081F83C00FFE7FFE70499022081F83D0084
:10365000049800688068019001984FF68871CFF651
:10366000CE7108400190019820F47F4001900198AC
:10367000049909688860039800680090002800F0A9
:10368000AB80FFE70098102800F0A680FFE70098C5
:10369000202800F0A180FFE70098302800F09C80EF
:1036A000FFE70098402800F08A80FFE70098502844
:1036B0006BD0FFE70098602874D0FFE7009870286F
:1036C0003FD0FFE70098B0F5805F39D0FFE7009862
:1036D000B0F5005F4AD0FFE70098B0F5801F7BD0BF
:1036E000FFE70098B0F1101F76D0FFE70098202187
:1036F000C0F2100188426FD0FFE700983021C0F27D
:103700001001884268D0FFE700984021C0F2100104
:10371000884261D0FFE700985021C0F21001884232
:103720005AD0FFE700986021C0F21001884253D0C0
:10373000FFE700987021C0F2100188424CD052E09F
:1037400055E004980068039B5A689968DB6801F0AB
:10375000F1F90498006880680190019840F07700C2
:103760000190019804990968886040E00498006815
:10377000039B5A689968DB6801F0DCF904980168DA
:10378000886840F48040886031E004980068039ABB
:103790005168D26801F000FA04980068502101F0E5
:1037A000E3F924E004980068039A5168D26801F0B4
:1037B00051FA04980068602101F0D6F917E00498E6
:1037C0000068039A5168D26801F0E6F9049800682D
:1037D000402101F0C9F90AE00498006803990968DA
:1037E00001F0C2F903E001208DF80B00FFE7049916
:1037F000012081F83D00FFE70499002081F83C009A
:10380000FFE79DF80B008DF81700FFE79DF8170004
:1038100006B080BD83B00190FFE7019890F8840066
:10382000012804D1FFE702208DF80B002CE001995C
:10383000012081F88400FFE7FFE701992420C1F807
:103840008800019800680068009001980168086885
:1038500020F001000860009820F0005000900199CD
:1038600000204866009801990968086001992020A5
:10387000C1F88800FFE70199002081F88400FFE784
:1038800000208DF80B00FFE79DF80B0003B0704798
:1038900082B00190ADF8021002B0704781B0009084
:1038A00001B0704780B584B002900191FFE70298A3
:1038B00090F88400012804D1FFE702208DF80F0062
:1038C00032E00299012081F88400FFE7FFE70299C6
:1038D0002420C1F8880002980068006800900298CF
:1038E0000168086820F0010008600298006880689C
:1038F00020F0606001990843029909688860029885
:1039000001F010FA009802990968086002992020D5
:10391000C1F88800FFE70299002081F88400FFE7E2
:1039200000208DF80F00FFE79DF80F0004B080BD68
:1039300080B584B002900191FFE7029890F884006E
:10394000012804D1FFE702208DF80F0032E0029930
:10395000012081F88400FFE7FFE702992420C1F8E5
:103960008800029800680068009002980168086862
:1039700020F00100086002980068806820F0604034
:1039800001990843029909688860029801F0CAF910
:10399000009802990968086002992020C1F88800FF
:1039A000FFE70299002081F88400FFE700208DF8EE
:1039B0000F00FFE79DF80F0004B080BD81B00090BC
:1039C00001B0704781B0009001B0704781B00090A5
:1039D00001B0704780B590B00F900F980068C06933
:1039E0000E900F98006800680D900F98006880682E
:1039F0000C900E9840F60F0108400B900B98E0B920
:103A0000FFE79DF838008006002815D5FFE79DF8F0
:103A100034008006002806D4FFE79DF83300C00676
:103A2000002809D5FFE70F98406F20B1FFE70F98F6
:103A3000416F8847FFE796E2FFE70B98002800F008
:103A40000C81FFE70C980121C1F20001084209D165
:103A5000FFE70D9840F22011C0F20041084200F04B
:103A6000FC80FFE79DF83800C00788B1FFE79DF8AC
:103A70003500C00760B1FFE70F98016801200862B8
:103A80000F99D1F8900040F00100C1F89000FFE7D5
:103A90009DF838008007002811D5FFE79DF8300019
:103AA000C00760B1FFE70F980168022008620F9914
:103AB000D1F8900040F00400C1F89000FFE79DF8B5
:103AC00038004007002811D5FFE79DF83000C007F7
:103AD00060B1FFE70F980168042008620F99D1F8E0
:103AE000900040F00200C1F89000FFE79DF8380018
:103AF0000007002819D5FFE79DF83400800600284C
:103B000007D4FFE70C980121C1F2000108420CD054
:103B1000FFE70F980168082008620F99D1F890001C
:103B200040F00800C1F89000FFE79DF83900000759
:103B3000002813D5FFE79DF83700400700280DD572
:103B4000FFE70F9801684FF4006008620F99D1F801
:103B5000900040F02000C1F89000FFE70F98D0F8E7
:103B60009000002878D0FFE79DF8380080060028F4
:103B700015D5FFE79DF834008006002806D4FFE73E
:103B80009DF83300C006002809D5FFE70F98406F65
:103B900020B1FFE70F98416F8847FFE7FFE70F98D5
:103BA000D0F890000A900F980068806800F04000FC
:103BB000402806D0FFE79DF8280010F0280F42D0DB
:103BC000FFE70F9801F046FA0F98006880684006FA
:103BD000002833D5FFE7FFE7FFE70F98006850E8BC
:103BE000020F20F040000990FFE709990F98026842
:103BF00042E802100028F0D1FFE7FFE70F98D0F865
:103C00008000B0B1FFE70F98D0F8801045F23D007A
:103C1000C0F6000088630F98D0F88000FCF7E0FD44
:103C200030B1FFE70F98D0F88000816B8847FFE73D
:103C300003E00F98FFF7CAFEFFE703E00F98FFF7D6
:103C4000C5FEFFE707E00F98FFF7C0FE0F990020C1
:103C5000C1F89000FFE7FFE785E10F98C06E0128EB
:103C600040F02281FFE79DF83800C006002840F1AF
:103C70001B81FFE79DF83400C006002840F1148145
:103C8000FFE70F980168102008620F9800688068AD
:103C90004006002840F1A680FFE70F98D0F880008A
:103CA00000684068ADF82200BDF8220000287CD0F2
:103CB000FFE7BDF822000F99B1F85C10884274DA72
:103CC000FFE7BDF822000F99A1F85E000F98D0F829
:103CD0008000006800688006002859D4FFE7FFE7ED
:103CE000FFE70F98006850E8000F20F480700790FD
:103CF000FFE707990F98026842E800100028F0D10A
:103D0000FFE7FFE7FFE7FFE70F98006850E8020FC3
:103D100020F001000690FFE706990F98026842E83C
:103D200002100028F0D1FFE7FFE7FFE7FFE70F9859
:103D3000006850E8020F20F040000590FFE7059969
:103D40000F98026842E802100028F0D1FFE7FFE771
:103D50000F992020C1F88C000F990020C866FFE75A
:103D6000FFE70F98006850E8000F20F01000049063
:103D7000FFE704990F98026842E800100028F0D18C
:103D8000FFE7FFE70F98D0F88000FCF7CFFCFFE7D4
:103D90000F99022008670F98B0F85C10B0F85E2009
:103DA000891A89B2FFF774FD1BE0BDF822000F9954
:103DB000B1F85C10884213D1FFE70F98D0F880006B
:103DC000006800688006002809D5FFE70F990220E7
:103DD00008670F98B0F85C10FFF75AFDFFE7FFE7A0
:103DE000FFE7C0E00F99B1F85C00B1F85E10401A2F
:103DF000ADF80E000F98B0F85E00002853D0FFE732
:103E0000BDF80E0000284ED0FFE7FFE7FFE70F9850
:103E1000006850E8000F20F490700290FFE70299CC
:103E20000F98026842E800100028F0D1FFE7FFE792
:103E3000FFE7FFE70F98006850E8020F4FF6FE71AA
:103E4000CEF6FF7108400190FFE701990F980268D4
:103E500042E802100028EDD1FFE7FFE70F9920208C
:103E6000C1F88C000F990020C8660F994867FFE7DA
:103E7000FFE70F98006850E8000F20F01000009056
:103E8000FFE700990F98026842E800100028F0D17F
:103E9000FFE7FFE70F99022008670F98BDF80E10A3
:103EA000FFF7F6FCFFE75EE09DF83A00C006002849
:103EB0000FD5FFE79DF832004006002809D5FFE73F
:103EC0000F9801684FF4801008620F98FFF77AFD91
:103ED00049E09DF838000006002815D5FFE79DF859
:103EE00034000006002806D4FFE79DF832000006E3
:103EF000002809D5FFE70F98806F20B1FFE70F98E2
:103F0000816F8847FFE72EE09DF8380040060028C3
:103F10000AD5FFE79DF834004006002804D5FFE7E6
:103F20000F9801F0E7F81EE09DF83A00000600281F
:103F30000AD5FFE79DF837004006002804D5FFE7C3
:103F40000F98FFF73BFD0EE09DF83B00C00750B116
:103F5000FFE79DF837000006002804D5FFE70F981B
:103F6000FFF79CFCFFE710B080BD000080B582B079
:103F70000090009820B9FFE701208DF8070046E087
:103F80000098806908B1FFE700E0FFE70098D0F8EB
:103F9000880040B9FFE70099002081F8840000986C
:103FA00000F03AF8FFE700992420C1F88800009853
:103FB0000168086820F0010008600098806A20B15C
:103FC000FFE7009800F0F2FEFFE7009801F0B4F878
:103FD000012804D1FFE701208DF8070017E00098C1
:103FE0000168486820F4904048600098016888683B
:103FF00020F02A00886000980168086840F00100FD
:104000000860009800F076FF8DF80700FFE79DF844
:10401000070002B080BD000080B5A2B02190002052
:1040200020901F901E901D901C9007A85421FCF713
:1040300029F92198006843F60001C4F20101884281
:1040400040F09280FFE7012007900020089007A829
:10405000FEF786F818B1FFE7FCF788FAFFE7FFE7FD
:1040600041F26000C4F20200016841F48041016045
:10407000006800F4804006900698FFE7FFE741F2F1
:104080004C00C4F20200016841F0010101600068C7
:1040900000F0010005900598FFE74FF4C0601C9008
:1040A00002201D90002003901E901F90072020905A
:1040B0004FF090401CA9FDF7F1FC039941F2EC0090
:1040C000C2F2000004900822C4F202020260182228
:1040D00042608160C1608022026141618161202271
:1040E000C2610162FCF78AFC18B1FFE7FCF73EFAF7
:1040F000FFE7FFE7219841F2EC01C2F20001C0F8AE
:10410000801021988862FFE741F24C10C2F2000053
:1041100002901C21C4F202010160192141601021AA
:1041200081600021C1608022026141618161C161C1
:104130000162FCF763FC18B1FFE7FCF717FAFFE731
:10414000FFE7219841F24C11C2F20001C1672198AA
:104150008862FFE72520019000221146FDF7FCFE52
:104160000198FDF7EFFEFFE722B080BD81B000901F
:1041700001B07047FFE7FEE780B586B0FFE741F288
:104180004800C4F20200016841F0040101600068C7
:1041900000F0040005900598FFE7FFE741F24800B2
:1041A000C4F20200016841F001010160006800F002
:1041B000010004900498FFE70B2001900022029276
:1041C0001146FDF7C9FE0198FDF7BCFE029A0C20CE
:1041D00003901146FDF7C0FE0398FDF7B3FE06B04D
:1041E00080BD000080B588B041F2AC10C2F2000082
:1041F000019046F20041C4F20001016000214160DB
:104200008160C16001220274417481744FF00A0E12
:10421000C0F814E082614FF00D0CC0F81CC00323FD
:104220000362C0F824E08262C0F82CC003634263DA
:104230008163C163FDF762F918B1FFE7FCF796F9F6
:10424000FFE70020029003900221049101210591D3
:104250000690079041F2AC10C2F2000002A9FCF7F0
:10426000CFFD18B1FFE7FCF781F9FFE768460023AF
:10427000036041F2AC10C2F2000002221146FCF7CA
:104280001BFE18B1FFE7FCF771F9FFE741F2AC1034
:10429000C2F20000FDF79AFB18B1FFE7FCF766F9E0
:1042A000FFE741F2AC10C2F2000040F2012100220F
:1042B000FCF752FC18B1FFE7FCF758F9FFE708B02C
:1042C00080BD000080B58AB041F21020C2F200002B
:1042D000029046F60001C4F2000101600021039142
:1042E00041608160C1600174417481744FF00A0EB5
:1042F000C0F814E0012282614FF00D0CC0F81CC020
:1043000003230362C0F824E08262C0F82CC0036378
:1043100042638163C163FDF7F1F818B1FFE7FCF771
:1043200025F9FFE7002004900590022106910791EE
:104330000890099041F21020C2F2000004A9FCF795
:104340005FFD18B1FFE7FCF711F9FFE768460023AE
:10435000036041F21020C2F2000002221146FCF775
:10436000ABFD18B1FFE7FCF701F9FFE741F21020C0
:10437000C2F200000A210222FCF7D2FD18B1FFE7C9
:10438000FCF7F4F8FFE741F21020C2F200004FF40E
:1043900002710022FCF7E0FB18B1FFE7FCF7E6F83A
:1043A000FFE741F21020C2F20000FDF70FFB18B149
:1043B000FFE7FCF7DBF8FFE70AB080BD84B0FFE75A
:1043C00041F24C00C4F20200016841F0200101609A
:1043D000006800F0200003900398FFE7FFE741F238
:1043E0004C00C4F20200016841F002010160006863
:1043F00000F0020002900298FFE7FFE741F24C0054
:10440000C4F20200016841F001010160006800F09F
:10441000010001900198FFE7FFE741F24C00C4F270
:104420000200016841F008010160006800F0080026
:1044300000900098FFE704B07047000080B588B096
:104440000021009107910691059104910391029139
:10445000019141F27420C2F200004FF080420260EC
:10446000A922426081604FF0FF32C2600161816128
:10447000FEF7E6FF18B1FFE7FCF778F8FFE74FF427
:104480008050049041F27420C2F2000004A9FFF7AA
:10449000C3F818B1FFE7FCF769F8FFE700200190C7
:1044A000039041F27420C2F2000001A9FEF70EFF52
:1044B00018B1FFE7FCF75AF8FFE741F27420C2F2A7
:1044C0000000FFF72BF808B080BD000080B582B077
:1044D00041F2C020C2F20000009043F60001C4F295
:1044E000010101604FF4E1314160002101918160DF
:1044F000C16001610C2242618161C161016241625E
:104500008162FFF733FD18B1FFE7FCF72FF8FFE7F3
:1045100041F2C020C2F200000021FFF709FA18B1F1
:10452000FFE7FCF723F8FFE741F2C020C2F20000EA
:104530000021FFF7B7F918B1FFE7FCF717F8FFE71D
:1045400041F2C020C2F20000FFF764F918B1FFE7A2
:10455000FCF70CF8FFE702B080BD0000FFE7FEE7C4
:10456000FFE7FEE788B0079006910592079800F0F4
:10457000070004900498C0F10700052803D3FFE763
:104580000420019004E00498C0F107000190FFE7C7
:104590000198039004980430062803D8FFE7002010
:1045A000009003E0049803380090FFE70098029021
:1045B00006980399012202FA01F101390840029B91
:1045C000984005999A40013A1140084308B0704755
:1045D00080B584B003908DF80B108DED010A03981F
:1045E00008B9FFE74DE003986821FBF74BFE9DF803
:1045F0000B000138B0FA80F04009039908669DED80
:10460000010A01F09DFC78B1FFE79DED010A9FEDE5
:104610001E1AB4EE410AF1EE10FA05DDFFE79DED3A
:10462000010A8DED000A04E09FED180A8DED000AE5
:10463000FFE79DED000A039880ED030A039800212F
:10464000C4F2C8210161039A0020CCF2C820506155
:10465000039B00229A61039AD1610399086203992E
:104660004DF2A540C5F26830886203994CF6CD4002
:10467000C3F64C70C86203990120C8650399486667
:10468000FFE704B080BD00BF17B7D1386F12833A7F
:104690007047000080B584B002900191029800F04C
:1046A00029F818B1FFE7002003901FE00199029854
:1046B0000368C0681A0100EB031EDEF80430DEF860
:1046C00008C0DEF80CE0C1F80CE0C1F808C04B608F
:1046D00080580860029908688A68431CB3FBF2F0AE
:1046E00000FB1230086001200390FFE7039804B03C
:1046F00080BD000081B00090009908684968401AA8
:10470000B0FA80F0400901B07047000010B586B0E3
:10471000DDF820C0CDF810C0039302920191009003
:10472000009800F025F818B1FFE7002005901CE084
:1047300000994868D1F80CE00EEB00110401DDF897
:1047400004C00298039A049B4EF804C0CB608A60B0
:104750004860009948688A68431CB3FBF2F000FB8C
:104760001230486001200590FFE7059806B010BDA3
:1047700081B00090009A116850689268431CB3FBA6
:10478000F2F000FB1230401AB0FA80F0400901B09C
:104790007047000083B002900191009202990020BE
:1047A000086002994860009802998860019802990F
:1047B000C86003B07047000081B0009000990A689B
:1047C00048688968801A4218B2FBF1F000FB11209A
:1047D00001B0704786B041F20C00C4F202000168DB
:1047E00001F0030104910068C1B2012000EB111037
:1047F000029004980090022815D0FFE70098032843
:1048000012D1FFE7029941F20020C0F27A00B0FB1A
:10481000F1F041F20C01C4F202010968C1F3062172
:104820004843059011E0FFE7029942F20040C0F2D0
:10483000F400B0FBF1F041F20C01C4F2020109688E
:10484000C1F3062148430590FFE741F20C00C4F292
:104850000200006800F0C061022000EB11600390CC
:1048600005980399B0FBF1F00190019806B07047EC
:104870007047000080B582B0009000980138B0F118
:10488000807F03D3FFE70120019019E000980138F1
:104890004EF21401CEF2000108604FF0FF300F21FC
:1048A00000F0ECFF4EF21801CEF20001002008608B
:1048B0004EF21002CEF20002072111600190FFE7D4
:1048C000019802B080BD000080B5FDF7ADFA80BD53
:1048D00080B594B006A800903821FBF7D3FC0020E7
:1048E00005900490039002900190FDF755FB00980D
:1048F000012106914FF48031079102210D9103228D
:104900000E920F9155221092119112911391FEF770
:10491000F9F818B1FFE7FBF729FEFFE70F20019038
:1049200003200290002003900490059001A8042128
:10493000FDF7A8FE18B1FFE7FBF718FEFFE714B07C
:1049400080BD00004EF68851CEF20001086840F4A8
:10495000700008607047000083B0029001910298D7
:1049600000680090029842F60041C4F201018842BA
:104970002DD0FFE70298B0F1804F28D0FFE70298D2
:1049800040F20041C4F20001884220D0FFE70298C3
:1049900040F60001C4F20001884218D0FFE70298F7
:1049A00040F60041C4F20001884210D0FFE70298AF
:1049B00043F20041C4F20101884208D0FFE70298A7
:1049C00045F20001C4F2010188420AD1FFE70098D4
:1049D00020F0700000900198416800980843009012
:1049E000FFE7029842F60041C4F20101884245D037
:1049F000FFE70298B0F1804F40D0FFE7029840F205
:104A00000041C4F20001884238D0FFE7029840F626
:104A10000001C4F20001884230D0FFE7029840F65E
:104A20000041C4F20001884228D0FFE7029843F217
:104A30000041C4F20101884220D0FFE7029844F20D
:104A40000001C4F20101884218D0FFE7029844F245
:104A50000041C4F20101884210D0FFE7029844F6F9
:104A60000001C4F20101884208D0FFE7029845F234
:104A70000001C4F2010188420AD1FFE7009820F446
:104A8000407000900198C168009808430090FFE7CB
:104A9000009820F08000019949690843009001982E
:104AA00080680299C8620198006802998862029839
:104AB00042F60041C4F20101884228D0FFE7029883
:104AC00043F20041C4F20101884220D0FFE702987E
:104AD00044F20001C4F20101884218D0FFE70298B5
:104AE00044F20041C4F20101884210D0FFE702986D
:104AF00044F60001C4F20101884208D0FFE70298A1
:104B000045F20001C4F20101884205D1FFE7019896
:104B1000006902990863FFE70299086840F0040001
:104B2000086002990120486100980299086003B06A
:104B30007047000085B0049003910292019304989D
:104B400080680090009820F47F40009003980299BC
:104B5000019A41EA0221014300980843009000981D
:104B60000499886005B0704783B002900191029863
:104B70008068009000984FF68F71CFF6CF71084093
:104B8000009001980099084340F0070000900098B9
:104B90000299886003B0704785B004900391029237
:104BA0000498006A00900499086A20F001000862E5
:104BB000049842F60041C4F20101884228D0FFE780
:104BC000049843F20041C4F20101884220D0FFE77B
:104BD000049844F20001C4F20101884218D0FFE7B2
:104BE000049844F20041C4F20101884210D0FFE76A
:104BF000049844F60001C4F20101884208D0FFE79E
:104C0000049845F20001C4F20101884206D1FFE791
:104C10000499086A20F004000862FFE7049880699C
:104C20000190019820F0F00001900299019840EA6B
:104C300001100190009820F00A000090039900985C
:104C400008430090019804998861009804990862CB
:104C500005B0704785B00490039102920498006AF1
:104C600000900499086A20F010000862049842F647
:104C70000041C4F20101884231D0FFE7049843F2B9
:104C80000041C4F20101884229D0FFE7049844F2B0
:104C90000001C4F20101884203D1FFE70020F0B90E
:104CA000FFE7049844F20041C4F20101884203D1B5
:104CB000FFE7002098B9FFE7049844F60001C4F22A
:104CC0000101884203D1FFE7002040B9FFE70498C3
:104CD00045F20001C4F20101884206D1FFE70499C0
:104CE000086A20F040000862FFE70498806901909C
:104CF000019820F4704001900299019840EA013037
:104D00000190009820F0A00000900399009840EADC
:104D10000110009001980499886100980499086234
:104D200005B0704782B001900198406E40B9FFE72E
:104D300001990120A1F86A000199A1F8680032E008
:104D400008208DF803008DF8020001980068806843
:104D5000C0F342608DF80100019800688068400F40
:104D60008DF800009DF802009DF8002046F2A21385
:104D7000C0F60003995C484346F29A11C0F6000160
:104D80008A5CB0FBF2F0019AA2F86A009DF8030079
:104D90009DF801209B5C5843895CB0FBF1F00199C0
:104DA000A1F86800FFE702B07047000081B00090F2
:104DB000009890F82800000700280BD5FFE700981E
:104DC0000068406820F40040009A1168926B10431C
:104DD0004860FFE7009890F82800C00758B1FFE747
:104DE00000980068406820F40030009A1168D26A88
:104DF00010434860FFE7009890F8280080070028DB
:104E00000BD5FFE700980068406820F48030009AD6
:104E10001168126B10434860FFE7009890F8280073
:104E2000400700280BD5FFE700980068406820F491
:104E30008020009A1168526B10434860FFE7009889
:104E400090F82800C00600280BD5FFE700980068FE
:104E5000806820F48050009A1168D26B10438860FB
:104E6000FFE7009890F82800800600280BD5FFE7A0
:104E700000980068806820F40050009A1168126C55
:104E800010438860FFE7009890F82800400600284B
:104E90001CD5FFE700980068406820F48010009A55
:104EA0001168526C104348600098406CB0F5801F48
:104EB0000BD1FFE700980068406820F4C000009A1A
:104EC0001168926C10434860FFE7FFE7009890F884
:104ED0002800000600280BD5FFE70098006840680E
:104EE00020F40020009A1168D26C10434860FFE75C
:104EF00001B0704780B588B0069006990020C1F8CF
:104F00009000FCF78BFF059006980068006800078A
:104F100000282FD5FFE70698059B6A466FF07E4173
:104F200011604FF40011002200F0F8FB08B3FFE716
:104F3000FFE7FFE70698006850E8000F20F08000C8
:104F40000490FFE704990698026842E800100028E0
:104F5000F0D1FFE7FFE706992020C1F88800FFE7BE
:104F60000699002081F88400FFE703208DF81F00D8
:104F70005FE0FFE70698006800684007002842D518
:104F8000FFE70698059B6A466FF07E4111604FF47B
:104F90008001002200F0C2FBA0B3FFE7FFE7FFE7BC
:104FA0000698006850E8000F20F490700390FFE727
:104FB00003990698026842E800100028F0D1FFE744
:104FC000FFE7FFE7FFE70698006850E8020F20F0D0
:104FD00001000290FFE702990698026842E8021079
:104FE0000028F0D1FFE7FFE706992020C1F88C00E8
:104FF000FFE70699002081F88400FFE703208DF881
:105000001F0016E0FFE706992020C1F888000699E6
:10501000C1F88C0006990020C86606990867FFE76A
:105020000699002081F88400FFE700208DF81F001A
:10503000FFE79DF81F0008B080BD000080B582B07A
:1050400001900198806A00900098FEF7BFFC02B0C2
:1050500080BD000084B00390FFE7FFE7039800687D
:1050600050E8000F20F490700290FFE70299039837
:10507000026842E800100028F0D1FFE7FFE7FFE7F1
:10508000FFE70398006850E8020F4FF6FE71CEF676
:10509000FF7108400190FFE701990398026842E818
:1050A00002100028EDD1FFE7FFE70398C06E01284A
:1050B00014D1FFE7FFE7FFE70398006850E8000F0F
:1050C00020F010000090FFE700990398026842E882
:1050D00000100028F0D1FFE7FFE7FFE70399202049
:1050E000C1F88C0003990020C8660399486704B092
:1050F0007047000080B582B00190FFE7FFE701989C
:10510000006850E8000F20F040000090FFE7009991
:105110000198026842E800100028F0D1FFE7FFE79D
:1051200001992020C1F88800019900208867019822
:10513000FFF71CF802B080BD80B592B0119000203E
:105140008DF837001198006848F20001C4F20001A0
:10515000884201D1FFE700E0FFE7119988680B69F9
:105160004A69C969184310430843109011980068B0
:10517000006846F6F311CCF6FF7108401099084319
:1051800011990968086011980068406820F440503F
:10519000119A1168D2681043486011988069109084
:1051A0001198006848F20001C4F20001884206D05C
:1051B000FFE71198016A109808431090FFE71198D3
:1051C000006880684FF2FF41C1F2FF11084010995A
:1051D000084311990968886011980068C06A20F036
:1051E0000F00119A1168526A1043C862FFE71198C4
:1051F000006843F60001C4F20101884225D1FFE7AF
:1052000041F28800C4F20200006800F00300014689
:105210000A91032814D80A99DFE801F0020A060E61
:1052200001208DF83D000FE002208DF83D000BE0DD
:1052300004208DF83D0007E008208DF83D0003E0D4
:1052400010208DF83D00FFE715E11198006844F249
:105250000041C4F2000188422AD1FFE741F28800F0
:10526000C4F20200006800F00C00014609910C280D
:1052700019D80999DFE801F0071717170F17171743
:105280000B171717130000208DF83D000FE00220C8
:105290008DF83D000BE004208DF83D0007E008206C
:1052A0008DF83D0003E010208DF83D00FFE7E1E0C0
:1052B0001198006844F60001C4F2000188422CD124
:1052C000FFE741F28800C4F20200006800F03000FD
:1052D0000146089160B1FFE70898102810D0FFE759
:1052E0000898202808D0FFE7089830280CD00FE055
:1052F00000208DF83D000FE002208DF83D000BE00E
:1053000004208DF83D0007E008208DF83D0003E003
:1053100010208DF83D00FFE7ABE01198006844F6DF
:105320000041C4F2000188422CD1FFE741F288001D
:10533000C4F20200006800F0C0000146079160B1AD
:10534000FFE70798402810D0FFE70798802808D08B
:10535000FFE70798C0280CD00FE000208DF83D0033
:105360000FE002208DF83D000BE004208DF83D0099
:1053700007E008208DF83D0003E010208DF83D0087
:10538000FFE775E01198006845F20001C4F20001E2
:1053900088422FD1FFE741F28800C4F20200006882
:1053A00000F440700146069178B1FFE70698B0F529
:1053B000807F12D0FFE70698B0F5007F09D0FFE7A5
:1053C0000698B0F5407F0CD00FE000208DF83D002E
:1053D0000FE002208DF83D000BE004208DF83D0029
:1053E00007E008208DF83D0003E010208DF83D0017
:1053F000FFE73CE01198006848F20001C4F20001A8
:1054000088422FD1FFE741F28800C4F20200006811
:1054100000F440600146059178B1FFE70598B0F5CA
:10542000806F12D0FFE70598B0F5006F09D0FFE755
:105430000598B0F5406F0CD00FE000208DF83D00CE
:105440000FE002208DF83D000BE004208DF83D00B8
:1054500007E008208DF83D0003E010208DF83D00A6
:10546000FFE703E010208DF83D00FFE7FFE7FFE7CF
:10547000FFE7FFE7FFE7FFE71198006848F2000148
:10548000C4F20001884240F07E80FFE79DF83D00B5
:1054900001460491082819D80499DFE801F005179E
:1054A00009170F1717171300FDF786FA0B9013E073
:1054B00042F20040C0F2F4000B900DE0FDF7A4FAB8
:1054C0000B9009E04FF400400B9005E000200B909A
:1054D00001208DF83700FFE70B98002852D0FFE736
:1054E0000B9811994A6A46F2AA11C0F6000131F8E8
:1054F0001210B0FBF1F00C900C981199496801EB77
:105500004101884207D3FFE70C9811994968B0EB35
:10551000013F04D9FFE701208DF8370031E00B98F7
:1055200011994A6802924A6A46F2AA11C0F600012D
:1055300031F81220002303931946FAF76BFE029A02
:10554000039B090241EA1061000210EB520041F195
:105550000001FAF75FFE0E900E98B0F5407F0BD376
:10556000FFE70E990020B0EB115F05D1FFE70E9821
:1055700011990968C86003E001208DF83700FFE742
:10558000FFE7FFE7B9E01198C069B0F5004F61D1BE
:10559000FFE79DF83D000146019108281DD80199BB
:1055A000DFE801F005090D1B131B1B1B1700FDF79E
:1055B00003FA0B9017E0FDF713FA0B9013E042F299
:1055C0000040C0F2F4000B900DE0FDF71DFA0B90C7
:1055D00009E04FF400400B9005E000200B90012003
:1055E0008DF83700FFE70B9898B3FFE70B98119AF7
:1055F0005168536A46F2AA12C0F6000232F813202C
:10560000B0FBF2F0400000EB5100B0FBF1F00E9067
:105610000E98102818D3FFE7BDF83A00A0B9FFE7AD
:105620000E9820F00F00ADF83E000E9800F00E012D
:10563000BDF83E0040EA5100ADF83E00BDF83E0026
:1056400011990968C86003E001208DF83700FFE771
:10565000FFE751E09DF83D000146009108281DD864
:105660000099DFE801F005090D1B131B1B1B170038
:10567000FDF7A2F90B9017E0FDF7B2F90B9013E0DC
:1056800042F20040C0F2F4000B900DE0FDF7BCF9CF
:105690000B9009E04FF400400B9005E000200B90C8
:1056A00001208DF83700FFE70B9820B3FFE70B9838
:1056B000119A5168536A46F2AA12C0F6000232F8F3
:1056C0001320B0FBF2F000EB5100B0FBF1F00E90B4
:1056D0000E9810280AD3FFE7BDF83A0030B9FFE76B
:1056E000BDF8380011990968C86003E001208DF801
:1056F0003700FFE7FFE7FFE7FFE711990120A1F877
:105700006A001199A1F86800119900204867119961
:1057100088679DF8370012B080BD000080B586B064
:10572000DDF820C0049003918DF80B200193FFE772
:1057300004980068C06903990840401AB0FA80F0E4
:1057400040099DF80B10884266D1FFE708980130A8
:10575000002860D0FFE7FCF761FB0199401A089927
:10576000884203D8FFE7089820B9FFE703208DF8A7
:10577000170055E00498006800684007002849D5E4
:10578000FFE70398802845D0FFE70398402841D0E1
:10579000FFE704980068C06900F008010120B0EB41
:1057A000D10F16D1FFE70498016808200090086225
:1057B0000498FFF74FFC00980499C1F89000FFE7A8
:1057C0000499002081F88400FFE701208DF817007C
:1057D00026E004980068C06900F400610120B0EB85
:1057E000D12F16D1FFE7049801684FF400600862DA
:1057F0000498FFF72FFC04992020C1F89000FFE7E0
:105800000499002081F88400FFE703208DF8170039
:1058100006E0FFE7FFE78BE700208DF81700FFE7C2
:105820009DF8170006B080BD80B541F2C020C2F2DD
:105830000000FEF7CFF880BDFFE7FEE781B08DF8EE
:1058400003009DF9030000280ED4FFE79DF9031023
:1058500001F01F02012090404A094EF20011CEF2E1
:10586000000141F82200FFE701B070474EF60C50EE
:10587000CEF200000068C0F30220704782B08DF8BD
:10588000070000919DF9070000280AD4FFE700985F
:1058900000019DF907104EF20042CEF2000288543A
:1058A0000BE0009800019DF8071001F00F014EF683
:1058B0001452CEF200028854FFE702B07047000095
:1058C00083B00290029800F0070000904EF60C5151
:1058D000CEF200010868019001984FF6FF021040D7
:1058E00001900198009A40EA02200022C0F2FA5288
:1058F000104301900198086003B0704741F25430A2
:10590000C2F2000000687F281BDCFFE741F254313F
:10591000C2F200010B6841F25852C2F2000245F691
:105920001D50C0F6000042F823000B6841F25832C7
:10593000C2F20002022042F8230008680130086029
:10594000FFE7704741F25430C2F2000000687F2840
:105950001BDCFFE741F25431C2F200010B6841F257
:105960005852C2F2000246F29100C0F6000042F81E
:1059700023000B6841F25832C2F20002012042F8C3
:105980002300086801300860FFE7704780B58AB0DF
:1059900008900791069200200590049003900290D1
:1059A000089830B1FFE7079818B1FFE7069820B9CB
:1059B000FFE74FF0FF30099028E041F29000C2F27B
:1059C000000002A9FEF766FED0B1FFE700200190BB
:1059D000FFE70198029988420BD2FFE7019A02A8DB
:1059E0001044007A08998854FFE70198013001902B
:1059F000EFE703980799086002980699086002E0AB
:105A00000020099002E001200990FFE709980AB000
:105A100080BD000080B598B01490139112920020C0
:105A20001190149828B9FFE71298412801D3FFE795
:105A300071E0139804900020059006901299079148
:105A400008904FF4801109910A900B900C901399D3
:105A50000E9112990D910390FFE7039812998842D5
:105A60000BD2FFE71498039A805C0DA911440872C9
:105A7000FFE7039801300390EFE7EFF310801590F4
:105A800015981190EFF3108072B6169041F2AC1099
:105A9000C2F20000FBF7C6FB08B3FFE741F2A0002B
:105AA000C2F20000FEF788FEC8B9FFE7149A41F27F
:105AB000AC10C2F2000004A9FBF754F970B1FFE783
:105AC0000D990E9A0F9B1098EC46CCF8000041F20D
:105AD000A000C2F20000FEF719FEFFE715E00D99E5
