:020000040800F2
:100000007034002079020008DD3100081930000842
:10001000D9310008650500083141000800000000E2
:100020000000000000000000000000007B39000814
:100030001107000800000000E13100087D390008C8
:10004000930200089302000893020008930200083C
:10005000930200089302000893020008930200082C
:10006000930200089302000815070008D90500084C
:10007000E9050008F9050008090600081906000846
:100080002906000893020008930200089302000862
:100090009302000839070008930200089302000841
:1000A00093020008930200089302000893020008DC
:1000B00093020008930200089302000893020008CC
:1000C00093020008930200089302000893020008BC
:1000D00093020008353F0008453F0008553F0008DF
:1000E000930200089302000893020008930200089C
:1000F000930200089302000893020008930200088C
:10010000930200089302000893020008930200087B
:10011000930200089302000893020008930200086B
:1001200039060008930200089302000849060008F7
:10013000930200089302000893020008930200084B
:10014000930200089302000893020008930200083B
:10015000930200089302000893020008930200082B
:10016000930200089302000893020008930200081B
:10017000930200089302000893020008930200080B
:1001800093020008930200089302000893020008FB
:1001900093020008000000009302000849070008CD
:1001A00093020008930200089302000893020008DB
:1001B00093020008930200089302000893020008CB
:1001C00093020008930200089302000893020008BB
:1001D000930200089302000800F002F800F03CF8D7
:1001E0000AA090E8000C82448344AAF10107DA4592
:1001F00001D100F031F8AFF2090EBAE80F0013F0A8
:10020000010F18BFFB1A43F001031847B046000066
:10021000D0460000103A24BF78C878C1FAD85207F7
:1002200024BF30C830C144BF04680C607047000070
:100230000023002400250026103A28BF78C1FBD8EF
:10024000520728BF30C148BF0B6070471FB504F08C
:100250001BFB1FBD10B510BD00F0CFF81146FFF716
:10026000F5FF04F095FA00F0EDF803B4FFF7F2FFA4
:1002700003BC00F0F5F80000094880470948004732
:10028000FEE7FEE7FEE7FEE7FEE7FEE7FEE7FEE746
:10029000FEE7FEE704480549054A064B70470000A3
:1002A000ED390008D9010008702E002070340020BC
:1002B0007030002070300020032A40F2308010F0AF
:1002C000030C00F0158011F8013BBCF1020F6244F1
:1002D00098BF11F801CB00F8013B38BF11F8013B82
:1002E000A2F1040298BF00F801CB38BF00F8013B2F
:1002F00011F0030300F04F80083AC0F0088051F875
:10030000043B083A51F804CBA0E80810F5E7121DA9
:100310005CBF51F8043B40F8043BAFF30080D207C8
:1003200024BF11F8013B11F801CB48BF11F8012B94
:1003300024BF00F8013B00F801CB48BF00F8012BB7
:1003400070474FF0000200B5134694469646203998
:1003500022BFA0E80C50A0E80C50B1F12001BFF47E
:10036000F7AF090728BFA0E80C5048BF0CC05DF8E4
:1003700004EB890028BF40F8042B08BF704748BF32
:1003800020F8022B11F0804F18BF00F8012B7047A6
:1003900070477047704710B5203AC0F00B80B1E845
:1003A0001850203AA0E81850B1E81850A0E81850AA
:1003B000BFF4F5AF5FEA027C24BFB1E81850A0E8B3
:1003C000185044BF18C918C0BDE810405FEA827CCD
:1003D00024BF51F8043B40F8043B08BF7047D207E4
:1003E00028BF31F8023B48BF11F8012B28BF20F885
:1003F000023B48BF00F8012B7047754600F02CF80F
:10040000AE4605006946534620F00700854618B001
:1004100020B5FFF73FFFBDE820404FF000064FF04A
:1004200000074FF000084FF0000B21F00701AC4629
:10043000ACE8C009ACE8C009ACE8C009ACE8C00948
:100440008D46704710B50446AFF300802046BDE8E6
:100450001040FFF70ABF000000487047102E002030
:1004600001491820ABBEFEE72600020070470000DD
:1004700010B500200F4981F81402C8604860086078
:100480004FF40070886001460A481430FFF759FFA6
:100490004FF400720849094802F0D9FA08B100F097
:1004A00047F907480068006840F00E0004490968F1
:1004B000086010BDB41F0020CC210020780200206D
:1004C0003404002010B500200E49C8604860086060
:1004D0004FF40070886001460A481430FFF731FF7E
:1004E0004FF400720849094802F0B1FA08B100F06F
:1004F0001FF907480068006840F00E0004490968C9
:10050000086010BD0C240020242600200C030020CD
:10051000F404002010B500200E49C860486008604F
:100520004FF40070886001460A481430FFF709FF55
:100530004FF400720849094802F089FA08B100F046
:10054000F7F807480068006840F00E0004490968A1
:10055000086010BD642800207C2A0020A003002031
:10056000B405002000BFFEE770B586B004460D4616
:10057000164600200290039004900590E8680390CE
:1005800028680290002004E0325C04A90A54411C4F
:10059000C8B203998142F7D80B48844207D1059825
:1005A00000900A4802A90EC902F027FE09E0084897
:1005B000844206D105980090064802A90EC902F0AF
:1005C0001CFE06B070BD0000400000207406002034
:1005D000A40000201413002010B5024800F0A2FA75
:1005E00010BD00006C01002010B5024800F09AFA1E
:1005F00010BD0000CC01002010B5024800F092FAB6
:1006000010BD00003404002010B5024800F08AFA42
:1006100010BD00009404002010B5024800F082FADA
:1006200010BD0000F404002010B5024800F07AFA72
:1006300010BD00005405002010B5024800F072FA09
:1006400010BD00001406002010B5024800F06AFA40
:1006500010BD0000B405002030B5114D0468AC4257
:1006600006D210490478083C1425B4FBF5F208E0E2
:100670000C4920310478083C1425B4FBF5F404F14E
:1006800008020B46446CA40803EB84048464054C04
:100690008034C46402F01F050124AC40046530BD01
:1006A0000804024000080240027902F07F014A1E5D
:1006B000064B03EB82024265044A403282654A1EC1
:1006C00002F01F0301229A40C265704700090240F0
:1006D00030B5D0E913546C60446D14B1D0E91654B0
:1006E0006C6090F8444004F01F050124AC40056C98
:1006F0006C60046863608468102C04D10468A26094
:100700000468E16003E00468A1600468E26030BD51
:100710007047000010B50548006800F0100020B1D7
:1007200010200249086003F0BBFD10BD1404014015
:1007300072B600BFFEE7000010B5024800F07BFC77
:1007400010BD00004000002010B5024800F073FC0E
:1007500010BD0000A40000201B49087F012801D023
:10076000032816D11949096821F40071174A11604C
:1007700000BF1146096841F4006111601146096823
:1007800021F40061116000BF1146096841F4007155
:100790001160022801D0032811D100BF0B4909685C
:1007A00041F48051094A11601146096821F48051D1
:1007B000116000BF1146096841F480611160002199
:1007C000014A117770470000140000200020024009
:1007D0001249096A01F4800191B100F0010129B1C7
:1007E0000E49496941F004010C4A516100F00201CF
:1007F00069B10A49496941F40041084A516106E07A
:100800000649496948F204021143044A5161034907
:10081000496941F48031014A51617047002002402A
:10082000174A126A02F4800232B9154A526922F458
:100830000062134B5A610FE001F0010232B1104A1D
:10084000526922F400620E4B5A6105E00C4A52696B
:1008500042F400620A4B5A61094A526922F47E72DC
:10086000C3B242EAC302064B5A611A46526942F0C9
:1008700002025A611A46526942F480325A61704744
:100880000020024010B50849496941F00101064CB9
:100890006161026000BF00BF00BFBFF36F8F00BF88
:1008A00000BF00BF436010BD00200240F0B502460B
:1008B000402314460D460C4E766946F480260A4FB6
:1008C0007E6100BFEFF31086304672B600BF2E681F
:1008D0002660241D2D1D5E1EF3B2002BF7D100BF34
:1008E00080F3108800BFF0BD0020024070B50546BF
:1008F00000F0C2FE064606E000F0BEFE801BA842E5
:1009000001D9032070BD1A48006900F48030B0F5A9
:10091000803FF1D0164800694CF2FA3100EA010438
:10092000CCB11448406820431249486000BF04F02D
:10093000704030B10E48806904F0704108430C49A2
:10094000886124F0704018B124F0704008490861B3
:1009500000BF0120D6E70648006900F0010020B181
:1009600000BF01200249086100BF0020CAE7000063
:1009700000200240140000202DE9F04105462C68BB
:10098000B4F1005F02D31E48844201D3BDE8F08178
:10099000012003F00BFC00204FF0E02108614861CA
:1009A000886101F0D3F8002008E04FF0FF321549CC
:1009B00041F82020144941F82020401C0828F4DB8D
:1009C000002080F3148800BF00BF00BF00BFBFF34A
:1009D0006F8F00BF00BF00BF00BF00BF00BFBFF3ED
:1009E0004F8F00BF00BF00BF6E68374600BF84F363
:1009F000088800BF03F0DAFBB84700BFC6E7000075
:100A00000000042080E100E080E200E001460022D6
:100A100009B90120704791F82500022803D004206D
:100A2000C863012227E00868006820F001000B6815
:100A300018600868006820F00E000B681860886C69
:100A4000006820F480708B6C186091F8440000F00E
:100A50001F03012098400B6C5860D1E91330586097
:100A6000486D40B1486D006820F480704B6D18608F
:100A7000D1E916305860012081F8250000BF002020
:100A800081F8240000BF1046C4E770B50446002575
:100A900094F8250002280BD00420E063012084F89C
:100AA000250000BF002084F8240000BF012534E0A9
:100AB0002068006820F00100216808602068006854
:100AC00020F00E0021680860A06C006820F480709F
:100AD000A16C086094F8440000F01F0101208840D8
:100AE000216C4860D4E913104860606D40B1606DBE
:100AF000006820F48070616D0860D4E916104860C9
:100B0000012084F8250000BF002084F8240000BFE5
:100B1000A06B10B12046A16B8847284670BD0146E6
:100B2000C86B704770B50446206C0568206806687D
:100B300094F8440000F01F01042088402840E0B1F0
:100B400006F00400C8B12068006800F0200028B951
:100B50002068006820F004002168086094F84400D0
:100B600000F01F0104208840216C4860206B0028A1
:100B700056D02046216B884752E094F8440000F09C
:100B80001F0102208840284018B306F0020000B37D
:100B90002068006800F0200040B92068006820F05C
:100BA0000A0021680860012084F8250094F84400B8
:100BB00000F01F0102208840216C486000BF002027
:100BC00084F8240000BFE06A50B32046E16A8847F9
:100BD00026E094F8440000F01F01082088402840D7
:100BE000F0B106F00800D8B12068006820F00E00CF
:100BF0002168086094F8440000F01F01012088403B
:100C0000216C48600120E06384F8250000BF0020CB
:100C100084F8240000BF606B10B12046616B8847E8
:100C200070BD000070B504460CB9012070BD30499C
:100C3000206888420BD22F492068401A1421B0FB4B
:100C4000F1F0800060642B48083820640AE02849ED
:100C50002068401A1421B0FBF1F080006064244841
:100C600008382064022084F825002068056847F6CB
:100C7000F0708543D4E902010843216908436169A2
:100C80000843A1690843E1690843216A0843054311
:100C9000206805602046FFF7DFFCA068B0F5804FB4
:100CA00001D100206060207900F07F00A16C086015
:100CB000D4E913104860606860B16068042809D8FE
:100CC0002046FFF7F1FC0020616D0860D4E91610A2
:100CD000486003E000206065A065E0650020E063F7
:100CE000012084F82500002084F8240000BF9DE73F
:100CF00008040240080002402DE9F04104460D4678
:100D000016461F464FF0000800BF94F82400012843
:100D100002D10220BDE8F081012084F8240000BF48
:100D200094F8250001283FD1022084F825000020F6
:100D3000E0632068006820F00100216808603B46FD
:100D4000324629462046FFF7C3FC206B30B12068AD
:100D5000006840F00E00216808600BE02068006821
:100D600020F00400216808602068006840F00A0054
:100D700021680860A06C006800F4803028B1A06C85
:100D8000006840F48070A16C0860606D28B1606DEF
:100D9000006840F48070616D08602068006840F071
:100DA00001002168086006E000BF002084F82400EC
:100DB00000BF4FF002084046ACE770B5034614464A
:100DC00093F85C5001F4C07000B100BF012D01D058
:100DD000022D7DD11868826D01F0070010B102F07C
:100DE000010018B301F0380010B102F00200E8B1C0
:100DF00001F4E07010B102F00400B8B101F4F05059
:100E000010B102F0080088B101F4604010B102F0A6
:100E1000100058B101F4403010B102F0200028B1A8
:100E200001F47C0040B102F0400028B91868C06DA0
:100E300040F001001E68F06501F0070010B102F0FB
:100E4000010018BB01F0380010B102F00200E8B94F
:100E500001F4E07010B102F00400B8B901F4F050F0
:100E600010B102F0080088B901F4604010B102F03E
:100E7000100058B901F4403010B102F0200028B938
:100E800001F47C0040B102F0400028B11868C06D48
:100E900040F002001E68F06501F0800030B1186873
:100EA000D0F8DC0020431E68C6F8DC0001F4807036
:100EB00030B11868D0F8E00020431E68C6F8E000A2
:100EC0001868406D08431E687065002070BDFFE71C
:100ED000186E40F0020018660120F7E7704770476F
:100EE0002DE9F04304460E469C4694F85C80B8F128
:100EF000020F7DD1402E26D12068D0F8900000F05E
:100F00000F0030B9206E40F4807020660120BDE8EB
:100F1000F0832068D0F89000C0F301232068D0F857
:100F20009000C0F3006040B12068D0F88000C0F3AA
:100F3000402010B1581C00F0030303EBC309A06C60
:100F400000EBC90124E02068D0F8980000F00F0001
:100F500028B9206E40F4807020660120D7E7206811
:100F6000D0F89800C0F301232068D0F89800C0F3AF
:100F7000006040B12068D0F88000C0F3002010B1BC
:100F8000581C00F0030303EBC309E06C00EBC9013C
:100F9000086800F080405060506820B90868C0F3CD
:100FA0008A40106003E0086820F060401060086824
:100FB00000F000509060086800F000401061091DCA
:100FC000088880B2D0610868C0F30340D060086828
:100FD00000F480105061086800F400109061086807
:100FE000C0F3066010620868C00F5062091D00E07F
:100FF00018E00F46002503E0785D0CF805006D1C35
:10100000DFF82C90D06819F80000A842F4D8402EE0
:1010100003D12068C0F8943002E02068C0F89C300A
:10102000002074E7206E40F00800206601206EE783
:101030009248000870472DE9FC5F04462068006D67
:1010400000F4E0572068406D07402068006D00F014
:1010500007082068406D00EA08082068006D00F06D
:1010600038092068406D00EA09092068006D00F425
:10107000710A2068406D00EA0A0A2068006D00F4D9
:10108000602B2068406D00EA0B0B2068456D2068DE
:10109000066DC6F3801040B1C5F3801028B1402022
:1010A000216808652046FFF7C5FFC6F30020A0B100
:1010B000C5F3002088B12068D0F8D80000902068DF
:1010C000D0F8E0000099084000904FF4807021684B
:1010D00008652046009900F0BAF82FB1206807652E
:1010E0003946204600F0B5F8B8F1000F06D0206868
:1010F000C0F850804146204600F071F8B9F1000F69
:1011000006D02068C0F850904946204600F082F88A
:10111000C6F3402048B1C5F3402030B14FF4007011
:1011200021680865204600F095F8C6F3C01098B114
:10113000C5F3C01080B12068D0F8D40001902068B9
:10114000D0F8DC00019908400190802021680865F2
:101150002046019900F07CF8C6F3403048B1C5F351
:10116000403030B14FF4005021680865204600F04F
:101170006DF8C6F3C03048B1C5F3C03030B14FF49C
:10118000004021680865204600F05FF8C6F3803013
:1011900050B1C5F3803038B14FF480402168086504
:1011A000206E40F080002066BBF1000F06D0206862
:1011B000C0F850B059462046FFF791FEBAF1000F33
:1011C00006D02068C0F850A0206E40EA0A002066D1
:1011D000206E10B12046FFF781FEBDE8FC9F30B5C0
:1011E0008DB005460C4604F0010088B101AB03AA9E
:1011F00040212846FFF774FE002201212846FFF710
:10120000DCFD049820B901AA03A92846FFF7ACF930
:101210000DB030BD30B58DB005460C4604F0080069
:1012200088B101AB03AA41212846FFF759FE0022ED
:1012300008212846FFF7C1FD049820B901AA03A997
:101240002846FFF791F90DB030BD704770477047E1
:1012500070477047704700002DE9F04104460F4683
:1012600000BF3C480078012802D10220BDE8F0818F
:1012700001203849087000BF4FF47A70FFF736FB41
:101280000646002E5FD1334948603348006800F4B9
:10129000007090B13048006800F4806048B12E487A
:1012A000006820F480602C490860032029490877F1
:1012B00015E001202749087711E02748006800F46D
:1012C000806048B12448006820F4806022490860AA
:1012D00002202049087702E000201E490877206894
:1012E00001280FD16068FFF773FA4FF47A70FFF7A7
:1012F000FDFA06461848406948F204018843164939
:1013000048611EE04FF0FF303860A56813E02846C2
:101310006168FFF785FA4FF47A70FFF7E7FA06463F
:101320000D48406940F2FA3188430B4948610EB1DB
:101330003D6005E06D1CD4E902010844A842E6D8EE
:1013400000BFFFF709FA00BF00200249087000BF84
:1013500030468BE71400002000200240012006499F
:10136000496941F00041044A51611146496901F05F
:10137000004101B100207047002002402DE9F047F4
:101380000446884615461E464FF0000900BF29480E
:101390000078012802D10220BDE8F087012025490C
:1013A000087000BF4FF47A70FFF7A0FA0746002FCD
:1013B00038D1204948602048006800F4806048B176
:1013C0001D48006820F480601B490860022019490C
:1013D000087702E00020174908773CB92A463346CF
:1013E0004046FFF74FFA4FF001090BE0012C01D006
:1013F000022C07D129464046FFF758FA022C01D1AA
:101400004FF480294FF47A70FFF770FA0746B9F16C
:10141000000F05D00848406920EA090006494861E4
:10142000FFF79AF900BF00200249087000BF384654
:10143000B2E700001400002000200240002008490C
:10144000496901F0004151B10649054A91600649D8
:1014500091601146496901F0004101B101207047D6
:101460000020024023016745AB89EFCD78B50346E4
:101470000022D2E0012696400D6805EA0604002C01
:101480007BD00D7905F00305012D04D00D7905F011
:101490000305022D13D1986856000325B540A843D3
:1014A0005600CD68B540284398605868012595409E
:1014B000A8430D79C5F300159540284358600D7970
:1014C00005F00305032D07D10D7905F00305032D64
:1014D0000CD18D68012D09D0D86856000325B54080
:1014E000A84356008D68B5402843D8600D7905F0B3
:1014F0000305022D13D1D60803F1200555F8260067
:101500005507EE0E0F25B540A8435607F60E0D6998
:10151000B5402843D60803F1200545F82600186891
:1015200056000325B540A8430D7905F00305560084
:10153000B540284318604D6805F44035002D6BD048
:1015400000BF394D2D6E45F00105374E35663546E5
:101550002D6E05F00105009500BF00BF4FEAB635BE
:10156000960855F8260095072E0F0F25B540A8437D
:10157000B3F1904F02D100251AE04DE02B4DAB4264
:1015800001D1012514E02A4DAB4201D102250FE023
:10159000284DAB4201D103250AE0274DAB4201D1D2
:1015A000042505E0254DAB4201D1052500E00625C7
:1015B0009607360FB5402843214D960845F826007A
:1015C000204D2868A0434D6805F4801505B12043DF
:1015D0001C4D28602D1D2868A0434D6805F400159A
:1015E00005B12043174D2D1D2860164D2D1F28686D
:1015F000A0434D6805F4003505B12043114D2D1F62
:1016000028602D1F2868A0434D6805F4803505B17A
:1016100020430C4D083D2860521C0D68D540002D1C
:101620007FF428AF78BD000000100240000400489D
:1016300000080048000C0048001000480014004852
:101640000800014008040140024613690B400BB139
:10165000012000E00020704710B5426921EA020332
:1016600002EA010443EA0443836110BD0AB18161C7
:1016700000E0816270470000014800687047000088
:10168000080000200348006803490968084401492C
:1016900008607047080000201000002010B50024EA
:1016A000032000F097F80F2000F008F808B101249B
:1016B00001E000F02FF8204610BD000070B5044690
:1016C000002511480068D8B10F4800684FF47A71BE
:1016D000B1FBF0F00D490968B1FBF0F6304600F0BF
:1016E000EDFF58B9102C07D200222146501E00F001
:1016F00033F80748046004E0012502E0012500E01A
:101700000125284670BD0000100000203400002094
:101710000C00002008B500BF0E48006E40F001002C
:101720000C4908660846006E00F00100009000BFFA
:1017300000BF00BF0846806D40F0805088650846B5
:10174000806D00F08050009000BF00BF00F0E2F814
:1017500008BD0000001002402DE9F05F80460D46F4
:10176000164602F0E7FC074639462A46334601F0A2
:101770000700C0F1070ABAF1040F02D94FF0040ABA
:1017800001E0C0F1070AD14600F1040ABAF1070FDF
:1017900002D24FF0000A01E0A0F1030AD4464FF054
:1017A000010A0AFA09FAAAF1010A0AEA020A0AFA7D
:1017B0000CFA4FF0010B0BFA0CFBABF1010B0BEA2F
:1017C000030B4AEA0B042146404602F0BBFCBDE88D
:1017D000F09F000000BF00F00702064B19684FF6AB
:1017E000FF031940044B0B4343EA0221014B1960EC
:1017F00000BF70470CED00E00000FA0502468ABB0E
:101800004148006800F4C060B0F5806F2BD13E48BD
:101810008030006820F480703B4BC3F8800018468D
:10182000006820F4C06040F4007018603748006819
:1018300032235843364BB0FBF3F0411C00E0491E05
:101840003148406900F48060B0F5806F01D1002913
:10185000F5D12D48406900F48060B0F5806F51D11A
:101860000320704708E028488030006820F480702A
:10187000254BC3F8800045E0B2F5007F3AD12248FD
:10188000006800F4C060B0F5806F2AD11E48803037
:10189000006840F480701C4BC3F880001846006854
:1018A00020F4C06040F400701860184800683223CB
:1018B0005843174BB0FBF3F0411C00E0491E12489F
:1018C000406900F48060B0F5806F01D10029F5D146
:1018D0000D48406900F48060B0F5806F12D103209C
:1018E000BFE709488030006840F48070064BC3F8B9
:1018F000800007E00448006820F4C06040F4806085
:10190000014B18600020ACE700700040340000205C
:1019100040420F000348806840F4804001498860DD
:1019200070470000007000402DE9F04104460D466C
:101930004FF0000814B90120BDE8F0817D4800682F
:1019400000F00F00A8420ED27A48006820F00F0085
:101950002843784908600846006800F00F00A84254
:1019600001D00120E8E7207800F00100002864D0D1
:101970006068032823D17048006800F0007008B93F
:101980000120D9E701F064FC06466C48864237D94D
:101990006948806800F0F00030B1207800F0020063
:1019A00002282DD1A06858BB6348806820F0F00061
:1019B00040F08000604988604FF0800820E0606857
:1019C000022806D15C48006800F4003040B90120CC
:1019D000B2E75948006800F4806008B90120ABE71D
:1019E00000F022F906465548864209D952488068D7
:1019F00020F0F00040F080004F4988604FF08008F0
:101A00004D48806820F00300616808434A498860B7
:101A1000FFF732FE074608E0FFF72EFEC01B41F23B
:101A20008831884201D9032086E74348806800F066
:101A30000C006168B0EB810FEED1207800F002005D
:101A4000022820D1207800F00400042805D13A486B
:101A5000806840F4E06038498860207800F0080031
:101A6000082807D13448806820F4605040F4E060D2
:101A7000314988603048806820F0F000A168084350
:101A80002D49886008E0B8F1800F05D12A488068A8
:101A900020F0F000284988602648006800F00F0018
:101AA000A84219D92348006820F00F002843214993
:101AB0000860FFF7E1FD074608E0FFF7DDFDC01B0A
:101AC00041F28831884201D9032035E7194800687E
:101AD00000F00F00A842F0D1207800F004000428A4
:101AE00007D11548806820F4E060E1680843124996
:101AF0008860207800F00800082808D10E48806827
:101B000020F46050216940EAC1000B49886000F070
:101B10008BF809498968C1F30311094A515C01F046
:101B20001F01C8400749086007480068FFF7C6FD65
:101B300002E70000002002400010024000B4C4048C
:101B4000A2480008340000200C00002010B5FFF768
:101B500093FD04463048006840F480702E490860C8
:101B600006E0FFF789FD001B022801D9032010BD04
:101B70002948006800F480600028F2D026484068B8
:101B800040F0804024494860FFF776FD044601207C
:101B90002149886008E0FFF76FFD001B41F28831A2
:101BA000884201D90320E2E71B48806800F00C005E
:101BB0000428F0D119481A4908601A480068FFF74C
:101BC0007DFD08B10120D2E74FF480701249086012
:101BD0000860FFF751FD044606E0FFF74DFD001BCE
:101BE000022801D90320C2E70B48006800F000700A
:101BF0000028F2D14FF480500749C8600020886166
:101C0000401E086204489430006840F40000C1F8A7
:101C100094000020ABE70000001002400024F40014
:101C2000340000200C00002070B5224DAD6805F096
:101C30000C05042D01D120483AE01E4DAD6805F099
:101C40000C05082D01D11D4832E01A4DAD6805F094
:101C50000C050C2D2BD1174DED6805F00304154D27
:101C6000ED68C5F303156A1C022C0CD0032C09D1B6
:101C7000124DB5FBF2F50F4EF668C6F3062605FBCE
:101C800006F10AE000BF0C4DB5FBF2F5094EF6680F
:101C9000C6F3062605FB06F100BF00BF054DED6843
:101CA000C5F341656D1C6B00B1FBF3F000E0002053
:101CB00070BD0000001002400024F40000127A0001
:101CC0002DE9F843044614B90120BDE8F8832078D3
:101CD00000F00100002865D0FC48806800F00C0787
:101CE000FA48C06800F003060C2F01D1032E01D082
:101CF000082F0AD1F548006800F40030002851D0C0
:101D0000606800284ED10120DFE700BF6068B0F5B1
:101D1000803F06D1ED48006840F48030EB49086010
:101D20001AE06068B0F5A02F0BD1E848006840F4D5
:101D30008020E64908600846006840F4803008606A
:101D40000AE0E248006820F48030E0490860084674
:101D5000006820F48020086000BF606888B1FFF749
:101D60008BFC054606E0FFF787FC401B642801D981
:101D70000320AAE7D548006800F400300028F2D01C
:101D800010E0FFF779FC054606E0FFF775FC401B05
:101D9000642801D9032098E7CC48006800F400309B
:101DA0000028F2D1207800F00200022860D1C74854
:101DB000806800F00C07C548C06800F003060C2FCF
:101DC00001D1022E01D0042F18D1C048006800F4C0
:101DD000806018B1E06808B9012076E7BB48406828
:101DE00020F0FE40217C40EA0160B8494860B848D4
:101DF0000068FFF763FC18B3012066E7E06800B3F2
:101E0000B248006840F48070B0490860FFF734FCC5
:101E1000054606E0FFF730FC401B022801D90320ED
:101E200053E7AA48006800F480600028F2D0A74871
:101E3000406820F0FE40217C40EA0160A3494860F0
:101E400016E0A248006820F48070A0490860FFF7FF
:101E500013FC054606E0FFF70FFC401B022801D9E2
:101E6000032032E79948006800F480600028F2D12E
:101E7000207800F00800082836D16069D0B1934876
:101E80009430006840F001009049C1F89400FFF7D9
:101E9000F3FB054606E0FFF7EFFB401B022801D9E4
:101EA000032012E789489430006800F002000028FF
:101EB000F1D019E085489430006820F00100834992
:101EC000C1F89400FFF7D8FB054606E0FFF7D4FB06
:101ED000401B022801D90320F7E67C4894300068B3
:101EE00000F002000028F1D1207800F0040004285E
:101EF00072D14FF000087548806D012121EA107001
:101F000078B100BF7148806D40F080506F4988659E
:101F10000846806D00F08050009000BF00BF4FF079
:101F200001086C48006800F48070B0B96948006826
:101F300040F4807067490860FFF79EFB054606E0A5
:101F4000FFF79AFB401B022801D90320BDE6614838
:101F5000006800F480700028F2D000BFA06801285B
:101F600008D15A489030006840F001005749C1F844
:101F7000900021E0A06805280FD1544890300068F7
:101F800040F004005149C1F890000846D0F8900094
:101F900040F00100C1F890000EE04C48903000681D
:101FA00020F001004949C1F890000846D0F890009F
:101FB00020F00400C1F8900000BFA068A8B1FFF7AE
:101FC0005BFB054609E0FFF757FB401B41F28831F8
:101FD000884202D9032078E625E03C48903000682A
:101FE00000F002000028EED013E0FFF745FB0546A5
:101FF00008E0FFF741FB401B41F28831884201D9DC
:10200000032062E631489030006800F002000028AA
:10201000EFD1B8F1010F05D12C48806D20F0805030
:102020002A49886500BF207800F02000202836D19A
:10203000A069D0B125489830006840F001002349DC
:10204000C1F89800FFF718FB054606E0FFF714FB00
:10205000401B022801D9032037E61C48983000684D
:1020600000F002000028F1D019E01848983000680C
:1020700020F001001549C1F89800FFF7FDFA054668
:1020800006E0FFF7F9FA401B022801D903201CE6FD
:102090000E489830006800F002000028F1D1E06995
:1020A000002860D00948806800F00C000C287AD025
:1020B000E069022858D10548006820F08070034983
:1020C0000860FFF7D9FA05460DE000000010024055
:1020D0000C00002000700040FFF7CEFA401B0228E1
:1020E00001D90320F1E54A48006800F0007000289B
:1020F000F2D1D4E90810401E41EA0011A06A41EA79
:102100000021208E0122C2EB500041EA40513420D0
:10211000005DC2EB500041EA40612C20005D41EAC5
:10212000C0603B49C9683B4A114008433849C86010
:102130000846006840F0807008600846C06840F0BB
:102140008070C860FFF798FA054606E0FFF794FA3A
:10215000401B022801D90320B7E52D48006800F094
:1021600000700028F2D051E02948006820F080700B
:1021700027490860FFF780FA054606E0FFF77CFA7A
:10218000401B022801D903209FE52148006800F088
:1021900000700028F2D11E48C0681F4908401C4941
:1021A000C86033E0FFE7E069012800D18DE51848F9
:1021B000C66806F00301206A814225D106F0F001CD
:1021C000606A401EB1EB001F1ED106F4FE41A06AFA
:1021D000B1EB002F18D106F078412C20005DB1EB57
:1021E000C06F11D106F4C001208E0122C2EB500055
:1021F000B1EB405F08D106F0C0613420005DC2EB56
:102200005000B1EB406F01D001205EE500205CE59D
:10221000001002400C809F01FCFFEEFE70B50446EA
:102220000025606D40B1606DFEF7F0FB20B1206EBF
:1022300040F0100020660125A06D40B1A06DFEF7B2
:10224000E5FB20B1206E40F01000206601252068DB
:10225000406820F0030021684860012084F85D0098
:10226000284670BD10B5044607492068884209D148
:102270000020064981F8B600012081F8B50020460B
:1022800000F006F810BD0000003001402C2D0020A9
:102290000146086E704770B504460CB9012070BD48
:1022A000606A38B96068B0F5827F00D105E000212E
:1022B000E16102E00021216161610021A16294F8E5
:1022C0005D0028B9002084F85C00204600F062F828
:1022D000022084F85D002068006820F0400021683A
:1022E0000860E068B0F5E06F01D9002501E04FF427
:1022F0008055E068B0F5706F05D0E068B0F5E06F2C
:1023000001D00021A162A08800F48270218901F42B
:1023100004410843217C01F002010843217D01F0C2
:1023200001010843218B01F400710843217F01F072
:10233000380108432021095D01F080010843218D07
:1023400001F400510843216808600421A06901EAF2
:10235000104094F8241001F01001084394F8341050
:1023600001F008010843A18901F47061084305F4F4
:1023700080510843216848602068C06920F40060EB
:102380002168C86100202066012084F85D000020DB
:1023900085E7000010B586B00446142101A8FDF7BA
:1023A000D0FF35492068884263D100BF3348006EB2
:1023B00040F48050314908660846006E00F48050B1
:1023C000009000BF00BF00BF0846C06C40F0010095
:1023D000C8640846C06C00F00100009000BF00BF58
:1023E000F02001900220029001200390022004902E
:1023F0000520059001A94FF09040FFF737F82048DD
:10240000204908600A20486000211E488160C160A0
:1024100080210161002141618161C1614FF400515E
:102420000162FEF7FFFB08B1FEF782F900BF154815
:10243000A065846200BF12481430134908600B2065
:1024400048601021104881600021C1608021016135
:10245000002141618161C1614FF400510162FEF7C9
:10246000E1FB08B1FEF764F900BF074860658462CC
:1024700000BF06B010BD0000003001400010024057
:10248000080002406C010020CC010020704770471A
:102490002DE9F04704460E4617461D4694F85D8028
:1024A000D4F80490B8F1010F0AD0B9F5827F04D1B5
:1024B000A06810B9B8F1040F02D00220BDE8F0877F
:1024C0000EB107B10DB90120F8E700BF94F85C0028
:1024D000012801D10220F1E7012084F85C0000BF4F
:1024E00094F85D00042802D0052084F85D000020E7
:1024F0002066A663A587E5872764A4F84450A4F85E
:102500004650E06420652068406820F4C04021689F
:102510004860E068B0F5E06F06D92068406820F4B4
:102520008050216848604DE02068406840F4805049
:1025300021684860606D8069B0F5806F19D194F8AA
:102540003C0000F0010048B92068406820F4804059
:1025500021684860E08F4010E0870AE0206840680A
:1025600040F4804021684860E08F012101EB600069
:10257000E087A06D8069B0F5806F23D12068406846
:1025800020F4805021684860B4F8460000F0010053
:1025900058B92068406820F4005021684860B4F8B9
:1025A00046004010A4F846000CE02068406840F463
:1025B000005021684860B4F84600012101EB60003A
:1025C000A4F8460094F85D00042806D13548A16DB2
:1025D00008633548A16DC86205E03448A16D086301
:1025E0003348A16DC8623348A16D48630020A16DD6
:1025F0008863B4F84630D4F800C00CF10C01226CAA
:10260000A06DFEF779FB50B1206E40F010002066FF
:1026100000BF002084F85C0000BF01204EE7206866
:10262000406840F00100216848600020616D086347
:10263000616DC862616D4863616D8863E38FD4F832
:1026400000C00CF10C02A16B606DFEF755FB50B1A0
:10265000206E40F01000206600BF002084F85C006F
:1026600000BF01202AE72068006800F040004028F1
:1026700005D02068006840F040002168086000BF75
:10268000002084F85C0000BF2068406840F0200013
:10269000216848602068406840F002002168486076
:1026A00000200BE7D1330008ED330008DF330008CA
:1026B00069340008A93300087047704770B50446B4
:1026C0002546681EB0F1807F01D301200FE0681E0F
:1026D0004FF0E02148610F214FF0FF3001F032FD53
:1026E00000204FF0E021886107200861002070BDC4
:1026F00030B502460B4600BF92F83C00012801D1DC
:10270000022030BD012082F83C0000BF022082F888
:102710003D001068416810688468234D1068A84225
:1027200007D0224D1068A84203D0214D1068A8425E
:1027300003D121F47001586801431E480140186814
:10274000014310684160184D1068A8421BD0106802
:10275000B0F1804F17D0184D1068A84213D0174D14
:102760001068A8420FD0164D1068A8420BD00F4D2C
:102770001068A84207D0134D1068A84203D00C4D32
:102780001068A84205D124F08004986804431068BA
:102790008460012082F83D0000BF002082F83C00E8
:1027A00000BF00BFADE70000002C01400034014035
:1027B000005001408FFFFFFD000400400008004072
:1027C000000C00400040014010B504460CB9012047
:1027D00010BD94F83D0028B9002084F83C00204644
:1027E00000F02AF8022084F83D00211D206801F045
:1027F0000DF9012084F8480000BF84F83E00012153
:102800003F200155402001554120015542200155EE
:102810004320015500BF00BF012084F8440045203B
:102820000155462001554720015500BF012084F87D
:102830003D000020CCE7000008B50168B1F1804FF1
:102840000DD100BF0649896D41F00101044A91652F
:102850001146896D01F00101009100BF00BF08BD64
:1028600000100240014691F83D00012801D00120EE
:102870007047022081F83D001C4B086898421BD02D
:102880000868B0F1804F17D0194B0868984213D0F0
:10289000184B086898420FD0174B086898420BD025
:1028A000164B0868984207D0154B0868984203D029
:1028B000144B0868984210D108688068124B00EAEF
:1028C0000302062A0FD0B2F5803F0CD008680068DA
:1028D00040F001000B68186005E00868006840F0EF
:1028E00001000B6818600020C2E70000002C0140C6
:1028F0000004004000080040000C0040003401408B
:102900000040014000500140070001002DE9F04166
:1029100004460D46002700BF94F83C00012802D170
:102920000220BDE8F081012084F83C0000BF0220B5
:1029300084F83D00206886684248064026F47F46B9
:10294000206886602868B0F5005F33D015DC402829
:1029500051D008DC002858D0102857D0202856D055
:10296000302862D154E0502831D0602839D0702806
:1029700013D0B0F5805F58D10EE000F00F010029B0
:1029800053D10011A0F5803008284ED2DFE800F0C6
:10299000414243444546474849E0D5E902136A6845
:1029A000206801F0A7F82068866846F0770620685E
:1029B00086603CE0D5E902136A68206801F09AF865
:1029C0002068806840F48040216888602FE0EA68D1
:1029D0006968206801F0A6F85021206801F096F897
:1029E00025E0EA686968206801F0D8F8602120686D
:1029F00001F08CF81BE0EA686968206801F092F841
:102A00004021206801F082F811E000BF00BF00BF44
:102A100000BF00BF00BF00BF00BF00BF00BF00BFBE
:102A20002968206801F072F801E0012700BF00BFAB
:102A3000012084F83D0000BF002084F83C0000BF66
:102A400038466EE788FFCEFF0146086F70472DE9D4
:102A5000F04104460E461746D4F88C00202825D1B4
:102A600006B117B90120BDE8F0810120E066002021
:102A700020673A463146204601F0F8F905469DB9EF
:102A8000E06E01280FD110202168086200BF00BF4E
:102A9000216851E8001F41F01000226842E800015F
:102AA0000029F5D100E001252846DCE70220DAE71D
:102AB00070B504460D460D492068884204D1294668
:102AC000204601F031FD10E009492068884204D118
:102AD0002946204601F062FD07E006492068884249
:102AE00003D12946204601F095FD70BD0038014014
:102AF000004400400048004070477047704770B580
:102B00000446D4F88850D4F88C602068806800F0BF
:102B10008000802823D1212D21D100BF00BF216852
:102B2000083151E8001F21F080002168083141E898
:102B30000002002AF3D100BFE06F68B1E06FFDF73B
:102B400065FF48B1E06FFDF7EAFF202804D11020AF
:102B5000C4F89000032070BD204601F067F920689A
:102B6000806800F04000402826D1222E24D100BFEA
:102B700000BF2168083151E8001F21F040002168A2
:102B8000083141E80002002AF3D100BFD4F88000E8
:102B900078B1D4F88000FDF739FF50B1D4F8800047
:102BA000FDF7BDFF202804D11020C4F890000320B9
:102BB000D1E7204601F0ECF80020CCE710B5044640
:102BC0000B492068884203D1204601F009FC0EE041
:102BD00008492068884203D1204601F039FC06E00C
:102BE00005492068884202D1204601F067FC10BDEB
:102BF0000038014000440040004800400146D1F840
:102C0000900070472DE9F04704462068C5692068A8
:102C100006682068876840F60F0005EA0009B9F1E8
:102C2000000F0FD105F0200060B106F0200010B9B0
:102C300007F0805030B1606F10B12046616F884757
:102C4000BDE8F087B9F1000F7ED0DF48384018B9F1
:102C5000DE4830400028F7D005F0010058B106F4F6
:102C6000807040B1012021680862D4F8900040F0E3
:102C70000100C4F8900005F0020058B107F001000F
:102C800040B1022021680862D4F8900040F00400AE
:102C9000C4F8900005F0040058B107F0010040B1FD
:102CA000042021680862D4F8900040F00200C4F8C3
:102CB000900005F0080070B106F0200010B9C2487D
:102CC000384040B1082021680862D4F8900040F0F4
:102CD0000800C4F8900005F4006060B106F0806060
:102CE00048B14FF4006021680862D4F8900040F0C9
:102CF0002000C4F89000D4F89000002852D005F0CD
:102D0000200050B106F0200010B907F0805020B12B
:102D1000606F10B12046616F8847D4F890A020689A
:102D2000806800F04000402802D00AF0280070B30C
:102D3000204601F02DF82068806800F0400040280F
:102D400026D100BF00BF00E02DE02168083151E826
:102D5000001F21F040002168083141E80002002AEC
:102D6000F1D100BFD4F8800068B19948D4F8801040
:102D70008863D4F88000FDF788FE98B1D4F880000D
:102D8000816B88470EE02046FFF718FF0AE003E05A
:102D90002046FFF713FF05E02046FFF70FFF002056
:102DA000C4F890004CE7E06E012865D105F01000F2
:102DB000002861D006F010000028FAD01020216809
:102DC00008622068806800F0400040287AD1D4F87A
:102DD0008000006840681FFA80F8B8F1000F5CD0EE
:102DE000B4F85C00404558DDA4F85E80D4F880005B
:102DF0000068006800F02000E8BB00BF00BF216849
:102E000051E8001F21F48070226842E80001002987
:102E1000F5D100BF00BF00BF2168083151E8001F95
:102E200021F001002168083141E80002002AF3D1B5
:102E300000BF00BF00BF2168083151E8001F21F02A
:102E400040002168083141E80002002AF3D100BFA8
:102E50002020C4F88C000020E06600BF00BF21687D
:102E600051E8001F21F01000226842E8000100290B
:102E7000F5D100BF01E004E068E0D4F88000FDF780
:102E8000C5FD02202067B4F85C00B4F85E20801A0B
:102E900081B22046FFF70CFE12E0B4F85C0040451A
:102EA0000ED1D4F880000068006800F020002028CF
:102EB00006D102202067B4F85C102046FFF7F8FD29
:102EC000BEE6FFE734F85C0F6188401A1FFA80F80D
:102ED00060885C3CC8B3B8F1000F36D000BF00BFBB
:102EE000216851E8001F21F49070226842E8000137
:102EF0000029F5D100BF00BF00BF2168083151E8AB
:102F0000001F314AD24301EA02002168083141E83A
:102F10000002002AF1D100BF2020C4F88C0000205C
:102F2000E066606700BF00BF216851E8001F21F024
:102F30001000226842E800010029F5D100BF0220FC
:102F4000206741462046FFF7B3FD79E605F480107F
:102F500050B107F4800038B14FF480102168086246
:102F60002046FFF7CBFD6BE605F0800058B106F078
:102F7000800010B907F4000028B1A06F10B12046FE
:102F8000A16F88475CE605F0400030B106F04000D4
:102F900018B1204600F032FF52E605F4000030B1CF
:102FA00006F0804018B12046FFF7A7FD48E605F07F
:102FB000807030B106F0004018B12046FFF79CFD4C
:102FC0003EE600BF3CE600000100001020010004C6
:102FD000153C00087047704710B504460B4920683F
:102FE000884203D1204601F025FA0EE00849206806
:102FF000884203D1204601F053FA06E005492068D3
:10300000884202D1204601F081FA10BD003801400B
:10301000004400400048004000BFFEE700B587B014
:10302000142102A8FDF78DF900BF2348C06C40F0C1
:1030300020002149C8640846C06C00F020000190BF
:1030400000BF00BF00BF0846C06C40F00100C8646C
:103050000846C06C00F00100019000BF00BF00BF37
:103060000846C06C40F00200C8640846C06C00F01E
:103070000200019000BF00BF00BF0846C06C40F0D6
:103080000800C8640846C06C00F00800019000BF4A
:1030900000BF002204210948FEF7E8FA042002904C
:1030A00001200390022004900020059002A903480B
:1030B000FEF7DCF907B000BD001002400014004824
:1030C00000B587B0142102A8FDF73BF900BF2448E2
:1030D000C06C40F020002249C8640846C06C00F073
:1030E0002000019000BF00BF00BF0846C06C40F048
:1030F0000100C8640846C06C00F00100019000BFE8
:1031000000BF00BF0846C06C40F00200C86408461B
:10311000C06C00F00200019000BF00BF00BF084675
:10312000C06C40F00800C8640846C06C00F008009D
:10313000019000BF00BF002209150A48FEF796FA69
:103140004FF4806002900120039000200490022040
:10315000059002A90348FEF789F907B000BD0000F9
:1031600000100240000C004800B587B0002003901A
:103170000490059006900090019002904FF08040DE
:1031800014490860A9204860002112488160491E46
:10319000C160002101618161FFF716FB08B1FDF7F5
:1031A000C7FA4FF48050039003A90A48FFF7AEFB1B
:1031B00008B1FDF7BDFA002000900290694605486D
:1031C000FFF796FA08B1FDF7B3FA0248FFF74AFB9A
:1031D00007B000BD2C02002000BFFEE700BFFEE7E5
:1031E0007047014648680A68801A8A6810448A68ED
:1031F000B0FBF2F302FB130070470FB430B5044686
:10320000204600F016F818B1002030BC5DF814FB21
:103210006168E06800EB011004A92EC92EC0606847
:10322000401CA168B0FBF1F201FB120060600120BC
:10323000EBE701464868401C8A68B0FBF2F302FBEA
:1032400013000A68904201D1012070470020FCE77A
:1032500070B5164DED6805F00304144DED68C5F327
:1032600003156B1C022C0CD0032C09D1104DB5FB9F
:10327000F3F50E4EF668C6F3062605FB06F10AE0E6
:1032800000BF0C4DB5FBF3F5084EF668C6F30626F5
:1032900005FB06F100BF00BF044DED68C5F34165B5
:1032A0006D1C6A00B1FBF2F070BD0000001002401E
:1032B00000127A000024F40010B50D4890F85C402C
:1032C0000CB1582C00D9582400F028F82346094A9C
:1032D00009490A48FFF7DCF820B10120044981F8C8
:1032E000B50010BD0120024981F8B6000020F8E7C2
:1032F0002C2D00207C2C0020D42C00200801002044
:103300000148B0F8440070470801002010B51021B2
:103310004FF09040FEF798F910BD00001CB5204812
:10332000FEF77CFF1E480068006820F040001C4942
:10333000096808601A480068C06801901848006869
:103340008068019000BF1748006C40F48050154918
:10335000086400BF00BF1348006C20F4805011497E
:10336000086401200E4981F85D00002008660846C7
:10337000FEF791FF00BF0020009009480068C06878
:103380000090074800688068009000BF00BF0448B4
:103390000068006840F040000149096808601CBDF1
:1033A000080100200010024070B50546AC6A206894
:1033B000406820F0030021684860206E40F0100053
:1033C0002066012084F85D002046FEF74BFF70BDAB
:1033D00070B50446A56A2846FFF759F870BD70B568
:1033E0000446A56A2846FFF768F970BD70B5054622
:1033F000AC6AFEF741F906462868006800F0200034
:1034000020282CD02068406820F0200021684860E7
:10341000A06850B96068B0F5827F06D12068406826
:1034200020F003002168486005E02068406820F033
:1034300001002168486032466421204600F048F8C7
:1034400008B1202020660020A4F84600012084F85E
:103450005D00206E18B12046FEF704FF70BD2046C7
:10346000FFF714F800BFF9E770B50546AC6AFEF740
:1034700003F906462868006800F02000202822D0C2
:103480002068406820F020002168486032466421AE
:10349000204600F05EF818B1206E40F02000206653
:1034A0002068406820F00300216848600020E08721
:1034B000A4F84600012084F85D00206E18B1204673
:1034C000FEF7D0FE70BD2046FFF7F6F800BFF9E723
:1034D000F8B504460E4615466068B0F5827F0DD1FA
:1034E000A068B0F5004F03D0A068B0F5806F05D19B
:1034F0002068006820F04000216808603346002200
:1035000080212046009500F0D3F828B1206E40F0CD
:10351000200020660320F8BD6068B0F5827F16D1D8
:10352000A068B0F5004F03D0A068B0F5806F0ED151
:10353000334600224FF4C0612046009500F03CF86D
:1035400028B1206E40F0200020660320E3E7002031
:10355000E1E7F8B504460E461546334600224FF41F
:10356000C0512046009500F027F828B1206E40F0A9
:10357000200020660320F8BD33460022802120462B
:10358000009500F095F828B1206E40F020002066EC
:103590000320F0E7334600224FF4C0612046009537
:1035A00000F00AF828B1206E40F0200020660320C9
:1035B000E1E70020DFE700002DE9FC5F04460D464F
:1035C00016461F46DDF8309000200090FEF754F8B4
:1035D000A0EB0900A7EB0008FEF74EF88246206832
:1035E00000F10C0B31480068C0EBC00000EB80001C
:1035F000000D00FB08F0019051E0B5F5C06F05D15A
:1036000026B99BF8000000909DF80000781C002867
:1036100045D0FEF731F8A0EB0A00404502D2B8F1E0
:10362000000F34D12068406820F0E0002168486035
:103630006068B0F5827F0DD1A068B0F5004F03D06F
:10364000A068B0F5806F05D12068006820F04000C8
:1036500021680860A06AB0F5005F0DD100BF206846
:10366000006820F40050216808602068006840F479
:1036700000502168086000BF012084F85D0000BF91
:10368000002084F85C0000BF0320BDE8FC9F019887
:1036900010B94FF0000802E00198401E0190206828
:1036A00080682840B042A8D10020EEE73400002016
:1036B0002DE9F84F04460D4690461E46DDF8289049
:1036C000FDF7DAFFA0EB0900371AFDF7D5FF8246B8
:1036D0002C480068C0F3CB307843009046E0701C63
:1036E000002843D0FDF7C8FFA0EB0A00B84200D283
:1036F000A7BB2068406820F0E0002168486060684F
:10370000B0F5827F0DD1A068B0F5004F03D0A0685E
:10371000B0F5806F05D12068006820F04000216876
:103720000860A06AB0F5005F0DD100BF2068006896
:1037300020F40050216808602068006840F40050C0
:103740002168086000BF012084F85D0000BF0020F0
:1037500084F85C0000BF0320BDE8F88FFFE7009805
:1037600008B9002702E00098401E00902068806899
:103770002840A84201D1012000E000204045AED100
:103780000020E9E73400002010B500F0B1F810B9CE
:103790004FF4805010BD4FF40060FBE710B50446B5
:1037A00000F0A6F880B300F09BF8B0B1184800888C
:1037B0004FF6FF71884202D14FF4002003E0144815
:1037C0000088000480094FF0006101EB5000A04226
:1037D00001D9022010BD0120FCE70D4800884FF6FA
:1037E000FF71884202D14FF4002003E008480088AE
:1037F000000480094FF0006101EB5000A04201D9A4
:103800000120E7E70220E5E7FFE70120E2E700000B
:10381000E075FF1F10B5044600F06AF870B300F0C1
:103820005FF8A8B1012C10D1164800884FF6FF713F
:10383000884201D1E00403E01248008800048009B6
:103840004FF0006101EB500010BD4FF00060FBE74E
:10385000022C10D10B4800884FF6FF71884201D12D
:10386000A00403E007480088000480094FF00061CD
:1038700001EB5000E8E74FF00060E5E74FF0006033
:10388000E2E70000E075FF1F00B500F019F800F155
:10389000006000BD70B50446204600F031F810B954
:1038A0004FF0FF3070BD2046FFF778FF05462846F1
:1038B000FFF7B0FF261AFFF767FFB6FBF0F0F1E75E
:1038C000064800884FF6FF71884202D14FF400206D
:1038D00070470248008800048009F9E7E075FF1F7F
:1038E00002480068C0F3002070470000000001405B
:1038F0000248006AC0F38050704700000020024078
:1039000000B50246B2F1006F05D3FFF7BDFF90424C
:1039100001D9012000BD0020FCE770B50446FFF787
:1039200033FF05462046FFF7EBFF40B1A4F10060EE
:10393000B0FBF5F105FB110008B9012070BD0020B6
:10394000FCE710B502460B46FFF79EFF044643B95D
:10395000B2F1006F03D3A24201D8012010BD0020B4
:10396000FCE7B2F1006F06D3A24204D2A01A98423B
:1039700001D30120F2E70020F0E7704710B5FDF712
:1039800081FE10BD00B593B0382105A8FCF7D9FC25
:1039900014216846FCF7D5FC0020FDF72FFF01201D
:1039A00005900004069002200C9003210D91022145
:1039B0000E9155210F91022110911191129105A89C
:1039C000FEF77EF908B1FCF7B3FE0F20009003204C
:1039D0000190002002900390049004216846FDF7B6
:1039E000A3FF08B1FCF7A4FE13B000BD03480068B4
:1039F00040F47000014908607047000088ED00E065
:103A000001480068406A70472C02002010B5026827
:103A10002F4B984211D0B0F1804F0ED02D4B9842D1
:103A20000BD02D4B984208D02C4B984205D02C4BF4
:103A3000984202D02B4B984203D122F070024B687F
:103A40001A43234B98421AD0B0F1804F17D0214B24
:103A5000984214D0204B984211D0204B98420ED05F
:103A60001F4B98420BD0204B984208D01F4B9842D6
:103A700005D01F4B984202D01A4B984203D122F432
:103A80004072CB681A4322F080034C6943EA040277
:103A90008B68C3620B6883620D4B98420ED0104B4B
:103AA00098420BD0104B984208D0104B984205D04A
:103AB0000F4B984202D00B4B984201D10B69036324
:103AC000036843F00403036001234361026010BDF7
:103AD000002C01400004004000080040000C0040A1
:103AE00000340140005001400040014000440140CA
:103AF0000048014030B50C46816821F47F4142EA1C
:103B0000032525432943816030BD00000A468168B2
:103B1000034B194042F007031943816070470000CE
:103B20008FFFCFFF30B50B461446026A056A25F0B9
:103B300001050562134DA84200D113E0124DA842C1
:103B400000D10FE0114DA84200D10BE0104DA8426A
:103B500000D107E00F4DA84200D103E00E4DA8426E
:103B600004D100BF056A25F004050562816921F0D2
:103B7000F00141EA041122F00A021A438161026253
:103B800030BD0000002C01400034014000400140E5
:103B900000440140004801400050014030B50B4650
:103BA0001446026A056A25F010050562134DA84205
:103BB00000D113E0124DA84200D10FE0114DA842F0
:103BC00000D100BF104DA84200D100BF0F4DA84248
:103BD00000D100BF0E4DA84204D100BF056A25F0F8
:103BE00040050562816921F4704141EA043122F007
:103BF000A00242EA03128161026230BD002C014042
:103C000000340140004001400044014000480140B0
:103C10000050014070B50446A56A2846FEF7CEFF65
:103C200070BD2DE9F0410546AC6AD4F88860D4F83F
:103C30008C702068806800F08000802804D1212EDC
:103C400002D1204600F0F2F82068806800F04000C1
:103C5000402804D1222F02D1204600F099F8D4F850
:103C6000900040F01000C4F890002046FEF7A6FF38
:103C7000BDE8F08170B50546AC6A2868006800F0C0
:103C80002000E0BB0020A4F85E0000BF00BF216858
:103C900051E8001F21F48070226842E800010029E9
:103CA000F5D100BF00BF00BF2168083151E8001FF7
:103CB00021F001002168083141E80002002AF3D117
:103CC00000BF00BF00BF2168083151E8001F21F08C
:103CD00040002168083141E80002002AF3D100BF0A
:103CE0002020C4F88C00E06E01280ED100BF00BF78
:103CF000216851E8001F21F01000226800E004E074
:103D000042E800010029F3D100BF00202067E06EE7
:103D1000012815D10020A4F85E002868406886B20A
:103D2000B4F85C00B04201DDA4F85E60B4F85C0059
:103D3000B4F85E20801A81B22046FEF7B9FE02E098
:103D40002046FFF747F970BD70B50546AC6A012003
:103D50002067E06E012816D134F85C0F40086080BF
:103D60002868406886B234F85C09B04201DBA4F8E8
:103D70005E60B4F85C00B4F85E20801A81B2204620
:103D8000FEF796FE02E02046FFF725F970BD000021
:103D900000BF00BF026852E8002F22F49071036850
:103DA00043E80012002AF5D100BF00BF00BF02683F
:103DB000083252E8002F104B02EA03010268083271
:103DC00042E80013002BF2D100BFC16E01290CD1D3
:103DD00000BF00BF026852E8002F22F01001036804
:103DE00043E80012002AF5D100BF2021C0F88C1052
:103DF0000021C16641677047FEFFFFEF10B5044622
:103E000000BF00BF216851E8001F21F04000226878
:103E100042E800010029F5D100BF2020C4F8880045
:103E20000020A0672046FFF7D7F810BD00BF00BFF5
:103E3000026852E8002F22F0C001036843E8001234
:103E4000002AF5D100BF00BF00BF0268083252E867
:103E5000002F22F400010268083242E80013002B10
:103E6000F3D100BF2021C0F88810704770B5044618
:103E70000E46154644F8586FA5800020A063222006
:103E80006063A06A583CF8B12748241DE16FC862FE
:103E90002648E16F08632648E16F48630020E16F20
:103EA000886354F8043C03F12401626DE06F241F21
:103EB0002B46FCF721FF38B11020C4F890002020D9
:103EC000C4F88C00012070BD206960B100BF00BF44
:103ED000216851E8001F41F48070226842E8000127
:103EE0000029F5D100BF00BF00BF2168083151E8AB
:103EF000001F41F001002168083141E80002002A5A
:103F0000F3D100BF00BF00BF2168083151E8001F96
:103F100041F040002168083141E80002002AF3D155
:103F200000BF0020CFE70000753C0008493D0008B5
:103F3000233C000810B50248FEF764FE10BD0000E7
:103F40007802002010B50248FEF75CFE10BD0000AC
:103F50000C03002010B50248FEF754FE10BD00000F
:103F6000A00300202DE9D04390B081460E461746AD
:103F70009846102440216846FCF7E3F9224669463A
:103F8000484600F0BFF9484600F084F9002006E0FA
:103F900056F8201008EB00024DF82210401CB842E1
:103FA000F6D322466946484600F0D6F910B0BDE87F
:103FB000D083000030B500240A4D0B488068B0F56E
:103FC000503F01D9002030BD07488168284600F0E5
:103FD000C1FB044604484068A04201D10120F2E739
:103FE0000020F0E700480108FC2D00202DE9F041F9
:103FF00000240F4D0F4E10488068C01C8708172101
:10400000284600F01DF93A463146284600F0A4F94A
:1040100009488168284600F09DFB04460648406830
:10402000A04202D10120BDE8F0810020FBE70000A2
:104030000090000800480108FC2D00200748006897
:104040000749884201D101207047044800680549AA
:10405000884201D10120F7E70420F5E7FC2D00207C
:104060005A5A50A05A5A5AAA08B50020009023481C
:104070000078042803D122482249086008BD1F485F
:10408000007830B1012809D002281AD0032832D193
:104090002CE0FFF7D3FF194908702CE0FFF78AFFE7
:1040A00058B11948009002201449087000230122D9
:1040B00069461648FFF756FF02E004200F490870D2
:1040C00019E0FFF793FF28B11148009003200B4936
:1040D000087004E00F48009004200849087000238D
:1040E000012269460948FFF73DFF04E0012000F086
:1040F0005DF800F03BF800BF00BFBFE73C000020C8
:1041000080380100000000205A5A50A000800008AA
:10411000AA55AA55AA55AABB10B5052202490348BB
:1041200000F0F0F810BD0000FC2D00200080000819
:1041300000BFFEE702480068C0F30220704700009D
:104140000CED00E010B5002804DB0A07130E054A49
:10415000135406E00A07140E034A00F00F031B1F56
:10416000D45410BD00E400E018ED00E000BF00BF33
:1041700000BFBFF34F8F00BF00BF00BF09480068FA
:1041800000F4E06008490843001D0649086000BFCC
:1041900000BF00BFBFF34F8F00BF00BF00BF00BF15
:1041A00000BFFDE70CED00E00000FA0580F3108889
:1041B00070472DE9F04786B005460E461EB900202F
:1041C00006B0BDE8F0872846FFF7A7FB08B9012035
:1041D000F6E7002700200190FDF730F9002428E0E1
:1041E000FFF7D2FA804604FB08F905EB090AB9FB90
:1041F000F8F0A04201D1AA4501D201271BE05046A8
:10420000FFF78BFB08B9012715E00020029050460C
:10421000FFF7C4FA03905046FFF73CFB04900120DF
:10422000059001A902A8FDF717F8074607B102E0BB
:10423000641CB442D4D300BFFDF790F83846BFE702
:1042400070B504460D4629462046FFF7B2FF70BD03
:1042500030B585B004462046FFF75FFB10B901205A
:1042600005B030BD0020009001902046FFF796FA7F
:1042700002902046FFF70EFB039001200490FDF70B
:10428000DDF8694601A8FCF7E7FF0546FDF766F88B
:104290002846E5E710B504462046FFF7D9FF10BDD4
:1042A00070B5FFF733F830B372B6FFF729F804465C
:1042B00011480068406886B20CB1582C00D95824C7
:1042C000A64202DCA01B85B200E000250B498D70E0
:1042D00055B12A460A490948C01CFBF7EDFF0120E9
:1042E0000649087081F85C500020044981F8B60046
:1042F00062B6FEF7E1FF70BD6C0100202C2D00209E
:104300007C2C002070B504460D46164632462946E0
:10431000204600F001F870BDF0B505460E46144683
:104320000CB90120F0BD0EB90120FBE7A700B4EBEA
:10433000970F04D139462846FFF703FB08B901203F
:10434000F0E7002004E0296846F820102D1D401CED
:10435000A042F8D30020E5E72DE9F05F81468846CA
:10436000154609F0070010B10120BDE8F09FB8F133
:10437000000F00D00DB90120F7E7A9004846FFF76C
:10438000E0FA08B90120F0E74FF0000AFDF756F80F
:1043900000241EE000BF09EB840BDBF80060DBF8B3
:1043A0000470002658F824000643601CA84203D27B
:1043B000002758F82000074332463B465946002064
:1043C000FCF7DCFF8246BAF1000F00D003E0A41C2A
:1043D00000BFAC42DED300BFFCF7C0FF5046C4E7CD
:1043E00010B504462046FEF709FC11490860204636
:1043F000FEF785FB2068006820F001002168086056
:1044000001202168086202202168086204202168D6
:1044100008620820216808622068406A20680068F5
:1044200040F0010021680860FCF722F810BD000090
:1044300038000020044A0168914203D10021034A58
:1044400082F814127047000000380140B41F0020A9
:1044500070B5044600252046FEF7D0FB05462046F1
:10446000FEF74DFB2068006820F00100216808601D
:104470000120216808620220216808620420216866
:1044800008620820216808622068406A2068006885
:1044900040F0010021680860FCF714F870BD0000CE
:1044A000044A0168914203D10021034A82F81412A0
:1044B00070470000004400400C24002070B5044602
:1044C00000252046FEF79AFB05462046FEF717FB1F
:1044D0002068006820F00100216808600120216840
:1044E000086202202168086204202168086208200E
:1044F000216808622068406A2068006840F0010076
:1045000021680860FCF706F870BD0000044A0168E5
:10451000914203D10021034A82F81412704700002F
:1045200000440040642800202DE9F04105460F4674
:1045300017492868884201D0BDE8F0812846FEF777
:1045400083FA0446D5F8800000684068C0F500761C
:10455000C6F30806022C01D0012C05D132460D49C4
:104560000D4800F067F910E07CB90B48C068B0F561
:10457000007F07D20848C068C0F5007205490648A8
:1045800000F0A3F800200449C86000BFD4E7000091
:1045900000380140CC210020B41F00202DE9F0415B
:1045A00005460F4618492868884201D0BDE8F081C9
:1045B0002846FEF749FA0446D5F8800000684068AE
:1045C000C0F50076C6F30806022C01D0012C05D1F7
:1045D00032460E490E4800F02DF913E094B90C480C
:1045E000C068B0F5007F0AD20948C068C0F5007203
:1045F0000748C068054BC118054800F066F8002060
:104600000349C86000BFD1E70044004024260020D1
:104610000C2400202DE9F04105460F461849286872
:10462000884201D0BDE8F0812846FEF70DFA044625
:10463000D5F8800000684068C0F50076C6F308062B
:10464000022C01D0012C05D132460E490E4800F053
:10465000F1F813E094B90C48C068B0F5007F0AD2B5
:104660000948C068C0F500720748C068054BC1180A
:10467000054800F02AF800200349C86000BFD1E7D0
:10468000004400407C2A00206428002000B5014638
:10469000087A08B9487A00BDFFF7B2F902460868FF
:1046A000131A4868984203D8002008720120F2E7E4
:1046B0000020F0E700B50246FFF7A2F91060516054
:1046C000012010720020507200BD2DE9F05F0446F9
:1046D0008946174617B1B9F1000F01D1BDE8F09F27
:1046E00072B62046FEF77DFDA168491EA1EB000BC6
:1046F0005F4501D8384600E058460546BD4202D223
:104700002069401C2061D4F80480A068A0EB080652
:10471000AE4200D92E4604F1140101EB08003246E6
:104720004946FBF7C9FDA5EB060ABAF1000F06D012
:1047300009EB0601524604F11400FBF7BDFD08EB3E
:104740000500A168B0FBF1F201FB1200606062B6E7
:1047500000BFC3E770B502460B464FF0FF310B4D6B
:1047600000200FE0145C6140002408E001F0010625
:104770001EB1064E86EA510100E04908641C082C6F
:10478000F4DB401C9842EDD3C84370BD2083B8EDE4
:10479000FCF784FFFFF7F6F8FEF792FCFEF7E4FC67
:1047A000FEF73CFC01221B491B48FFF7ABFD1948F3
:1047B0000068401C90B11748006878B1154800683F
:1047C000164988420AD0134800681549884205D026
:1047D0001048006811495531884202D11148FCF750
:1047E000CBF8FFF799FC104801681048FFF762FF0B
:1047F0000EE0FFF739FC0D48FFF748FF40B10A48CB
:1048000001680A48FFF756FF04210948FCF724FF16
:10481000EFE70000040000200080000800AA50A07C
:10482000AA55AA550090000800000020E42D0020A1
:10483000001400482DE9F04104460E461546E06894
:10484000A84201D1BDE8F081E068A84209D2E06841
:104850002F1AE06881193A462046FFF736FFE560D7
:1048600010E0E068C0F50078E06881194246204613
:10487000FFF72BFF25B12A4631462046FFF725FFDB
:10488000E56000BF00BFDDE74FF04070E1EE100AC9
:1048900070470001020304050607080C10141820D5
:1048A0003040000000000000000001020304060781
:1048B000080900000000010203040000DC480008B1
:1048C0000000002040000000140200081C490008FD
:1048D000400000203034000030020008E093040063
:1048E00000000000000000001000000001000000B7
:1048F00000000000000000000000000000000000B8
:1049000001000000000000000000000000000000A6
:0C4910000024F400000000000000000083
:04000005080001D915
:00000001FF
