:020000040800F2
:1000000070110020A1010008AD2A0008692900082C
:10001000A92A0008B90700085537000800000000A9
:10002000000000000000000000000000B92B0008E4
:1000300075090008000000001D2B0008112C0008A5
:10004000BB010008BB010008BB010008BB010008A0
:10005000BB010008BB010008BB010008BB01000890
:10006000BB010008BB010008BB010008BB01000880
:10007000BB010008BB010008BB010008BB01000870
:10008000BB010008BB010008BB010008BB01000860
:10009000BB010008BB010008BB010008BB01000850
:1000A000BB010008BB010008BB010008BB01000840
:1000B000BB010008BB010008BB010008BB01000830
:1000C000BB010008BB010008BB010008BB01000820
:1000D000BB01000845370008BB010008BB01000850
:1000E000BB010008BB010008BB010008BB01000800
:1000F000BB010008BB010008BB010008BB010008F0
:10010000BB010008BB010008BB010008BB010008DF
:10011000BB010008BB010008BB010008BB010008CF
:10012000BB010008BB010008BD070008BB010008B7
:10013000BB010008BB010008BB010008BB010008AF
:10014000BB010008BB010008BB010008BB0100089F
:10015000BB010008BB010008CD070008BB01000877
:10016000BB010008BB010008BB010008BB0100087F
:10017000BB010008BB010008BB0100080000000033
:10018000BB010008BB010008DFF810D000F092FAB4
:1001900000F092F800480047B140000870110020BC
:1001A0000648804706480047FEE7FEE7FEE7FEE711
:1001B000FEE7FEE7FEE7FEE7FEE7FEE7D52C0008D8
:1001C000890100082DE9F05F0546002092469B4614
:1001D00088460646814640241BE02846414647465D
:1001E000224600F09EF853465A46C01A914110D359
:1001F00011461846224600F085F82D1A67EB0108D3
:100200004F4622460120002100F07CF817EB000940
:100210004E41201EA4F10104DFDC484631462A4647
:100220004346BDE8F09F40EA01039B0703D009E085
:1002300008C9121F08C0042AFAD203E011F8013BD2
:1002400000F8013B521EF9D27047D2B201E000F82B
:10025000012B491EFBD270470022F6E710B513466A
:100260000A4604461946FFF7F0FF204610BD421C1F
:1002700010F8011B0029FBD1801A704710B500222D
:1002800000E0521C835C8C5CA34201D1002BF8D1AE
:10029000D8B2E1B2401A10BD30B505460020034681
:1002A00000E05B1C934205D2EC5CC85C201A01D1D3
:1002B000002CF6D130BD000070B5054C054D04E0B2
:1002C0002046016808448047241DAC42F8D170BD27
:1002D0008C7C0008987C000830B50B460146002055
:1002E0002022012409E021FA02F59D4205D303FAF8
:1002F00002F5491B04FA02F52844151EA2F1010279
:10030000F1DC30BD202A04DB203A00FA02F10020A3
:1003100070479140C2F1200320FA03F31943904043
:100320007047202A04DB203A21FA02F000217047AE
:1003300021FA02F3D040C2F120029140084319464D
:1003400070472DE9FE4F804681EA0300C00F0C463E
:10035000009021F0004123F00045B8EB0200A941D4
:1003600005D24046214690461C460B46024623F0E5
:100370000040104347D0270DC7F30A00C3F30A51CA
:100380000290401A019040286BDAC3F3130040F446
:10039000801B0098924620B10023D2EB030A63EB46
:1003A0000B0B01985946C0F140025046FFF7AAFFD7
:1003B00006460D4650465946019A00F08DF910EB5D
:1003C00008006141002487EA115284EAE7731A4366
:1003D00040D0009A62B3019A012A4FEA075215DC15
:1003E000001B61EB02014FF0004202EA0752CDE927
:1003F0000042001C41F5801132462B4600F08DF979
:1004000003B0BDE8F08F40462146F9E7001B61EBE1
:100410000201001C41F5801300185B412018A2F571
:10042000001747EB030140EAD570B6196D4111E0A2
:100430006D084FEA360645EAC0754FEA0752001BC1
:1004400061EB0201001C41F5801149084FEA3000C0
:100450000019514132462B4603B0BDE8F04F00F081
:100460004DB90098012240000023D0EB020263EB5B
:10047000E073009821464FEAE074B8EB000061EBAE
:100480000401E9E783F000435BE781F0004158E7AE
:100490002DE9FE4F81EA030404F0004421F00041FD
:1004A00000944FF0000B23F0004350EA01045ED0AB
:1004B00052EA03045BD0C3F30A54C1F30A552C4437
:1004C000A4F2F3340194A0FB0254C1F3130141F4EC
:1004D0008011C3F3130343F4801301FB024400FBB8
:1004E000034E840A970A44EA815447EA8357A4FBDF
:1004F000076802958D0A05FB07854FEA932C04FBDC
:100500000C542705029D4FEA065847EA1637B5EB0B
:1005100008056EEB070C870E920E47EA811742EA38
:100520008312A7FB0201B6EB0B0164EB00042B0D59
:1005300043EA0C335E1844EB1C50DA465146E7FBA5
:100540000201C5F313044FEA0B3343EA14534FEA95
:100550000432019C43EA0603A4F10C040294009CBB
:10056000CDE900B400F0D9F803B0BDE8F08F002069
:100570000146F9E72DE9F04D81EA030404F0004B50
:1005800021F0004514464FF0000A23F0004150EAE4
:10059000050220D054EA01021DD0C5F30A570246D5
:1005A000C5F31303C1F31300C1F30A5640F48015D9
:1005B00043F48013A7EB0608101BD64608F2FD385B
:1005C00073EB050002D308F1010801E092185B41CA
:1005D000B8F1000F03DA00200146BDE8F08D0020DD
:1005E0004FF48011064684460EE0171B73EB050797
:1005F00005D3121B63EB050306434CEA010C4908C3
:100600004FEA300092185B4150EA0107EDD152EAFF
:10061000030012D082EA040083EA0501084305D0F2
:10062000101BAB4106D20122002306E000224FF04E
:10063000004302E06FF0010253101AEB06004CEB8E
:10064000085110EB0A0041EB0B01BDE8F04D00F042
:1006500055B8C1F30A52C1F3130140F2FF3341F41C
:1006600080119A4202DA00200146704740F233437B
:100670009A42A2F2334202DC5242FFF752BEFFF727
:1006800041BE000030B5041E71F1000404DB4FF0E0
:100690000044404264EB0101141E73F1000405DBC9
:1006A0001C464FF00043524263EB0403994208BFDB
:1006B000904230BD064C074D06E0E06840F0010373
:1006C00094E8070098471034AC42F6D3FFF760FD7A
:1006D0000C7B00082C7B0008202A06DBCB17203A75
:1006E00041FA02F043EAE07306E041FA02F3D04037
:1006F000C2F12002914008431946704710B5141EFC
:1007000073F1000408DA401C41F1000192185B41CA
:100710001A4301D120F0010010BD2DE9F04D9246A1
:100720009B4611B1B1FA81F202E0B0FA80F22032B8
:100730009046FFF7E7FD04460F4640EA0A0041EA0B
:100740000B0153465A46084313D0114653EA0100A1
:1007500019D0C8F140025046FFF7E3FD05460E46AA
:10076000504659464246FFF7CDFD084305D00120CB
:1007700004E020463946BDE8F08D0020054346EAF6
:10078000E0762C4337430A986305E40AA0EB08009F
:100790000022FD0A44EA47540A3002D500200146EF
:1007A000E9E7010510196941DDE9084500196941CA
:1007B000BDE8F04DA2E70000FFE7FEE780B540F29C
:1007C0009820C2F2000000F073F980BD80B540F2BD
:1007D000F820C2F2000000F06BF980BD82B00190F9
:1007E0000198007810384AF6AB21CAF6AA21A0FB7E
:1007F000011000090090009947F25A50C0F600001D
:10080000405C0199C8650098042807D3FFE7019967
:100810000868042262F30900886506E00199086807
:1008200040F2FF3290438865FFE70198806D02B087
:100830007047000086B0059000208DF813000598E1
:10084000806A03900598806910BBFFE703980290C7
:1008500003281BD80299DFE801F0020D0218059861
:1008600090F82F00C00720B1FFE701208DF813009A
:10087000FFE70CE00598C06AB0F1C07F04D1FFE744
:1008800001208DF81300FFE701E000E0FFE745E0FD
:1008900005988069B0F5005F25D1FFE703980190C6
:1008A00003281ED80199DFE801F002060211012099
:1008B0008DF8130016E0059890F82F00C00720B1BE
:1008C000FFE701208DF81300FFE70BE00598C06AF1
:1008D000B0F1C07F04D1FFE701208DF81300FFE7DE
:1008E00000E0FFE719E003980090032804D3FFE736
:1008F0000098032804D00EE001208DF813000BE0CF
:10090000059890F82F00C00720B1FFE701208DF86F
:100910001300FFE700E0FFE7FFE7FFE79DF81300A4
:1009200006B0704784B0039002910192009303983F
:100930000168086820F4802008600098039909681D
:10094000486003988068402809D1FFE7019803991F
:1009500009688860029803990968C86008E00298ED
:10096000039909688860019803990968C860FFE7DE
:1009700004B070477047000072B6FFE7FEE7000062
:1009800080B584B002900298806D019000F042FD25
:100990000090029890F8350002280DD0FFE70299E8
:1009A00080204865FFE70299002081F83400FFE7C6
:1009B00001208DF80F0055E002980168086820F0CA
:1009C0001600086002980168486920F080004861BC
:1009D0000298006C20B9FFE70298806C38B1FFE7FD
:1009E00002980168086820F008000860FFE7029894
:1009F0000168086820F001000860FFE702980068BD
:100A00000068C007C8B1FFE700F004FD0099401A74
:100A1000062811D3FFE70299202048650299032098
:100A200081F83500FFE70299002081F83400FFE7E4
:100A300003208DF80F0015E0E0E70298C16D3F201C
:100A40008840019988600299012081F83500FFE70C
:100A50000299002081F83400FFE7FFE700208DF8BD
:100A60000F00FFE79DF80F0004B080BD82B000903A
:100A7000009890F83500022807D0FFE70099802001
:100A8000486501208DF807000EE00099052081F8E7
:100A9000350000980168086820F001000860FFE751
:100AA00000208DF80700FFE79DF8070002B07047AF
:100AB00080B586B005900020039040F20000C2F29D
:100AC0000000006848F2B511C1F64E31A0FB0110DC
:100AD000800A02900598806D01900198006804904A
:100AE00004980599C96DC840000700281AD5FFE78A
:100AF0000598006800684007002812D5FFE70598B0
:100B00000168086820F0040008600598C16D08209D
:100B10008840019988600599486D40F0010048655A
:100B2000FFE7FFE704980599C96DC840C007A0B169
:100B3000FFE7059800684069000600280CD5FFE72C
:100B40000598C16D01208840019988600599486D1C
:100B500040F002004865FFE7FFE704980599C96D7A
:100B6000C8404007002814D5FFE7059800680068D2
:100B7000800700280CD5FFE70598C16D0420884048
:100B8000019988600599486D40F004004865FFE7C9
:100B9000FFE704980599C96DC840C006002847D5ED
:100BA000FFE7059800680068000700283FD5FFE7C9
:100BB0000598C16D102088400199886005980068EB
:100BC0000068400300281AD5FFE705980068006810
:100BD0000003002809D4FFE70598006C20B1FFE767
:100BE0000598016C8847FFE708E00598806C20B104
:100BF000FFE70598816C8847FFE7FFE716E0059857
:100C000000680068C005002807D4FFE70598016860
:100C1000086820F008000860FFE70598006C20B124
:100C2000FFE70598016C8847FFE7FFE7FFE7FFE76D
:100C300004980599C96DC8408006002840F18D8050
:100C4000FFE7059800680068C006002840F184802E
:100C5000FFE70598C16D20208840019988600598BC
:100C600090F83500052834D1FFE705980168086839
:100C700020F01600086005980168486920F080009F
:100C800048610598006C20B9FFE70598806C38B181
:100C9000FFE705980168086820F008000860FFE792
:100CA0000598C16D3F208840019988600599012011
:100CB00081F83500FFE70599002081F83400FFE74F
:100CC0000598006D20B1FFE70598016D8847FFE7A3
:100CD0007BE0059800680068400300281AD5FFE70C
:100CE0000598006800680003002809D4FFE705980C
:100CF000406C20B1FFE70598416C8847FFE708E0AA
:100D00000598C06B20B1FFE70598C16B8847FFE7E6
:100D1000FFE720E0059800680068C005002811D4AE
:100D2000FFE705980168086820F010000860059941
:100D3000012081F83500FFE70599002081F8340093
:100D4000FFE7FFE70598C06B20B1FFE70598C16B8F
:100D50008847FFE7FFE7FFE7FFE70598406DA0B38F
:100D6000FFE70598406DC00730B3FFE70599052000
:100D700081F8350005980168086820F001000860D6
:100D8000FFE70398013003900299884201D9FFE7F9
:100D900007E0FFE7059800680068C0070028F0D169
:100DA000FFE70599012081F83500FFE7059900204C
:100DB00081F83400FFE7FFE70598C06C20B1FFE73A
:100DC0000598C16C8847FFE7FFE706B080BD0000CB
:100DD00080B586B004900020039000F01BFB0290C9
:100DE000049820B9FFE701208DF81700A3E00498CC
:100DF000406A08B1FFE7FFE70499022081F8350057
:100E0000FFE70499002081F83400FFE704980168A7
:100E1000086820F001000860FFE704980068006897
:100E2000C00790B1FFE700F0F5FA0299401A0628D2
:100E30000AD3FFE70499202048650499032081F82C
:100E400035008DF8170076E0E7E704980068006841
:100E50000390039848F23F01CFF21001084003903D
:100E6000049900914868D1F808C0CB680A6940EA43
:100E70000C00184310434A6910438A691043CA6939
:100E80001043096A01430398084303900498406A99
:100E9000042808D1FFE70499C86A096B0143039845
:100EA00008430390FFE703980499096808600498D1
:100EB000006840690390039820F0070003900498AD
:100EC000416A0398084303900498406A04281AD1A1
:100ED000FFE70498816A0398084303900498C06A66
:100EE00080B1FFE70498FFF7A5FC50B1FFE7049934
:100EF000402048650499012081F835008DF81700DD
:100F000019E0FFE7FFE7039804990968486104982E
:100F1000FFF764FC01900498C16D3F20884001995F
:100F20008860049900204865049A012182F83510F0
:100F30008DF81700FFE79DF8170006B080BD000090
:100F400080B588B0069005910492039300208DF837
:100F50000B000698806D0190FFE7069890F834002A
:100F6000012804D1FFE702208DF81F0045E0069913
:100F7000012081F83400FFE7FFE7069890F835007C
:100F800001282BD1FFE70699022081F83500069948
:100F90000020486506980599049A039BFFF7C2FC58
:100FA0000698C16D3F2088400199886006980168C5
:100FB000086840F0160008600698006C38B1FFE73A
:100FC00006980168086840F008000860FFE7069886
:100FD0000168086840F00100086009E0FFE7069931
:100FE000002081F83400FFE702208DF80B00FFE7B6
:100FF0009DF80B008DF81F00FFE79DF81F0008B05B
:1010000080BD00008EB00D900C9100200A900990D8
:1010100008900B90FFE70B980F2800F2CC81FFE7B8
:101020000B99012088400A900C9800680A990840A2
:10103000099009980A99884240F0B881FFE70C9816
:10104000406800F00300012807D0FFE70C984068D3
:1010500000F0030002282FD1FFE70D988068089068
:101060000B984100032000FA01F10898884308908A
:101070000C98C0680B99490000FA01F108980843E0
:10108000089008980D9988600D98406808900B9911
:10109000012000FA01F10898884308900C984068F4
:1010A000C0F300100B9900FA01F10898084308906A
:1010B00008980D994860FFE70C98406800F003001D
:1010C000032818D0FFE70D98C06808900B984100DE
:1010D000032000FA01F10898884308900C98806872
:1010E0000B99490000FA01F1089808430890089804
:1010F0000D99C860FFE70C98406800F003000228D3
:1011000026D1FFE70D980B996FF0030202EA510117
:101110000844006A08900B9800F0070081000F2037
:1011200000FA01F10898884308900C9800690B991F
:1011300001F00701890000FA01F1089808430890BE
:1011400008980D990B9B02EA530211440862FFE7CD
:101150000D98006808900B984100032000FA01F1F7
:101160000898884308900C98406800F003000B9999
:10117000490000FA01F108980843089008980D9971
:1011800008600C9880798007002800F00E81FFE746
:10119000FFE70020079043F64400C4F20200016814
:1011A00041F480410160006800F480400790079896
:1011B000FFE70B9820F0030043F60801C4F2010199
:1011C000405808900B9800F0030081000F2000FAAF
:1011D00001F10898884308900D980021C4F202019B
:1011E000884203D1FFE7002006905EE00D9840F2B0
:1011F0000041C4F20201884203D1FFE701200590BB
:1012000050E00D9840F60001C4F20201884203D17B
:10121000FFE70220049042E00D9840F60041C4F23E
:101220000201884203D1FFE70320039034E00D98C8
:1012300041F20001C4F20201884203D1FFE7042019
:10124000029026E00D9841F20041C4F2020188426A
:1012500003D1FFE70520019018E00D9841F6000149
:10126000C4F20201884203D1FFE7062000900AE0A1
:101270000D9941F60042C4F202020820914208BFD3
:1012800007200090FFE700980190FFE70198029087
:10129000FFE702980390FFE703980490FFE70498A4
:1012A0000590FFE705980690FFE70698C0B20B99F6
:1012B00001F00301890000FA01F108980843089041
:1012C00008980B9921F0030143F60802C4F20102C9
:1012D000885043F60840C4F201000068089009995C
:1012E0000898884308900C988079C006002805D596
:1012F000FFE70999089808430890FFE7089843F624
:101300000841C4F20101086043F60C40C4F2010038
:101310000068089009990898884308900C9880798B
:101320008006002805D5FFE709990898084308902A
:10133000FFE7089843F60C41C4F20101086043F648
:101340000440C4F201000068089009990898884395
:1013500008900C9880798007002805D5FFE7099947
:10136000089808430890FFE7089843F60441C4F240
:101370000101086043F60040C4F2010000680890D3
:1013800009990898884308900C988079C00728B17B
:10139000FFE70999089808430890FFE7089843F683
:1013A0000041C4F201010860FFE7FFE7FFE70B9887
:1013B00001300B902FE60EB07047000083B0029012
:1013C000ADF80610029840690090009ABDF806003A
:1013D00002EA0001904340EA01400299886103B0AB
:1013E0007047000082B00190ADF802108DF8012026
:1013F0009DF8010028B1FFE7BDF80200019988615E
:1014000005E0BDF80200000401998861FFE702B021
:101410007047000040F66850C2F200000068704754
:1014200040F25C00C2F20000027840F66851C2F25D
:1014300000010868104408607047000080B543F65A
:101440000041C4F20201086840F4007008600868B6
:1014500040F480600860086840F4807008600320F1
:1014600000F08AF80F2000F005F800F03BF80020AB
:1014700080BD000080B582B0009040F20000C2F252
:101480000000006840F25C01C2F200010A784FF4EB
:101490007A71B1FBF2F1B0FBF1F000F0A5FD20B1E3
:1014A000FFE701208DF8070018E000980F280DD8FD
:1014B000FFE700994FF0FF30002200F043F800985A
:1014C00040F26001C2F20001086003E001208DF8E3
:1014D000070003E000208DF80700FFE79DF80700F4
:1014E00002B080BD82B0FFE70020019043F64400C7
:1014F000C4F20200016841F480410160006800F418
:10150000804001900198FFE7FFE70020009043F63C
:101510004000C4F20200016841F08051016000689F
:1015200000F0805000900098FFE702B07047000084
:1015300080B582B08DF807009DF9070002F03AF9F6
:1015400002B080BD80B586B08DF81700049103927B
:101550000020029002F046F902909DF917000190D8
:1015600002980499039A01F0A3FA0146019802F047
:1015700041F906B080BD000080B582B001900198AD
:1015800002F05AF902B080BD80B584B0029001919A
:10159000029820B9FFE701208DF80F0021E10198A2
:1015A00043F60041C4F20201096801F007018842D4
:1015B00012D9FFE7019943F60040C4F2020001701E
:1015C000006800F007000199884204D0FFE701207D
:1015D0008DF80F0005E1FFE70298007880070028EA
:1015E0002AD5FFE7029800784007002809D5FFE7D1
:1015F00043F60801C4F20201086840F4E0500860B4
:10160000FFE7029800780007002809D5FFE743F6B6
:101610000801C4F20201086840F460400860FFE776
:1016200043F60801C4F20201086820F0F000029AB3
:10163000926810430860FFE702980078C00700280E
:101640006ED0FFE702984068012811D1FFE743F60A
:101650000000C4F20200006800F400310020B0EB8A
:10166000514F04D1FFE701208DF80F00B9E02CE0C5
:1016700002984068022805D0FFE7029840680328D6
:1016800011D1FFE743F60000C4F20200006800F049
:1016900000710020B0EB516F04D1FFE701208DF8FD
:1016A0000F009EE010E043F60000C4F20200006864
:1016B00000F002010020B0EB510F04D1FFE7012040
:1016C0008DF80F008DE0FFE7FFE743F60801C4F255
:1016D0000201086820F00300029A52681043086073
:1016E000FFF798FE0090FFE743F60800C4F20200FF
:1016F000006800F00C0002994968B0EB810F0ED031
:10170000FFE7FFF787FE0099401A41F289318842CE
:1017100004D3FFE703208DF80F0062E0E4E7FFE762
:10172000019843F60041C4F20201096801F0070183
:10173000884212D2FFE7019943F60040C4F202004A
:101740000170006800F007000199884204D0FFE7AB
:1017500001208DF80F0044E0FFE702980078400771
:1017600000280CD5FFE743F60801C4F2020108681F
:1017700020F4E050029AD26810430860FFE7029814
:101780000078000700280DD5FFE743F60801C4F2F2
:101790000201086820F46040029A126940EAC2001F
:1017A0000860FFE700F04CF843F60801C4F20201BC
:1017B0000968C9B20A0947F24251C0F60001895CC2
:1017C000C84040F20001C2F20001086040F260002F
:1017D000C2F200000068FFF74DFE00208DF80F00F8
:1017E000FFE79DF80F0004B080BD000040F200004C
:1017F000C2F200000068704780B5FFF7F7FF43F6BC
:101800000801C4F202010968C1F3822247F2525171
:10181000C0F60001895CC84080BD000080B5FFF7BC
:10182000E5FF43F60801C4F20201096889B24A0BD8
:1018300047F25251C0F60001895CC84080BD0000EB
:1018400080B586B00020059004900390029043F686
:101850000800C4F20200006800F00C00014601918B
:1018600040B1FFE7019804280AD0FFE70198082853
:101870000CD04FE042F20040C0F2F40002904FE082
:1018800041F20020C0F27A00029049E043F60400E1
:10189000C4F20200016801F03F01059100684002B6
:1018A000002813D5FFE743F60400C4F202000068E5
:1018B000C0F3881041F20021C0F27A01A0FB0101BF
:1018C000059A0023FEF77EFC049012E043F6040024
:1018D000C4F202000068C0F3881042F20041C0F276
:1018E000F401A0FB0101059A0023FEF76BFC0490B4
:1018F000FFE743F60400C4F20200006800F4403140
:10190000022000EBD130039004980399B0FBF1F072
:10191000029005E042F20040C0F2F4000290FFE7BE
:10192000029806B080BD000080B586B0049004988F
:1019300020B9FFE701208DF8170050E304980078E4
:10194000C007002800F0A580FFE743F60800C4F2B6
:101950000200006800F00C00042813D0FFE743F6F3
:101960000800C4F20200006800F00C0008281ED134
:10197000FFE743F60400C4F20200006840020028BA
:1019800015D5FFE743F60000C4F20200006800F43A
:1019900000310020B0EB514F08D0FFE704984068B9
:1019A00020B9FFE701208DF8170018E370E0FFE78A
:1019B00004984068B0F5803F09D1FFE743F6000185
:1019C000C4F20201086840F48030086020E0049806
:1019D0004068B0F5A02F0DD1FFE743F60001C4F237
:1019E0000201086840F480200860086840F48030F4
:1019F00008600CE043F60001C4F20201086820F41C
:101A000080300860086820F480200860FFE7FFE766
:101A1000FFE704984068E8B1FFE7FFF7FBFC03909D
:101A2000FFE743F60000C4F20200006800F4003152
:101A30000020B0EB514F0CD1FFE7FFF7EBFC03990F
:101A4000401A652804D3FFE703208DF81700C6E28B
:101A5000E7E71CE0FFF7DEFC0390FFE743F600003A
:101A6000C4F20200006800F400310020B0EB514FD6
:101A70000CD0FFE7FFF7CEFC0399401A652804D38A
:101A8000FFE703208DF81700A9E2E7E7FFE7FFE78C
:101A9000FFE7049800788007002840F19680FFE770
:101AA00043F60800C4F20200006810F00C0F13D0D7
:101AB000FFE743F60800C4F20200006800F00C00E3
:101AC00008282CD1FFE743F60400C4F202000068A6
:101AD0004002002823D4FFE743F60000C4F20200CE
:101AE000006800F002010020B0EB510F09D0FFE7C1
:101AF0000498C068012804D0FFE701208DF8170082
:101B00006DE243F60001C4F20201086820F0F8001B
:101B1000049A126940EAC2000860FFE754E00498A2
:101B2000C06870B3FFE70021C4F2472101200860BC
:101B3000FFF770FC0390FFE743F60000C4F20200D9
:101B4000006800F002010020B0EB510F0CD1FFE75C
:101B5000FFF760FC0399401A032804D3FFE7032032
:101B60008DF817003BE2E7E743F60001C4F20201FB
:101B7000086820F0F800049A126940EAC200086080
:101B800021E00021C4F2472100200860FFF742FC59
:101B90000390FFE743F60000C4F20200006800F083
:101BA00002010020B0EB510F0CD0FFE7FFF732FC31
:101BB0000399401A032804D3FFE703208DF8170088
:101BC0000DE2E7E7FFE7FFE7FFE70498007800078B
:101BD00000284BD5FFE70498406918B3FFE740F6AB
:101BE0008061C4F2472101200860FFF713FC0390D5
:101BF000FFE743F67400C4F20200006800F002013F
:101C00000020B0EB510F0CD1FFE7FFF703FC039965
:101C1000401A032804D3FFE703208DF81700DEE104
:101C2000E7E722E040F68061C4F247210020086027
:101C3000FFF7F0FB0390FFE743F67400C4F20200E5
:101C4000006800F002010020B0EB510F0CD0FFE75C
:101C5000FFF7E0FB0399401A032804D3FFE70320B2
:101C60008DF81700BBE1E7E7FFE7FFE7049800788E
:101C70004007002840F1CE80FFE700208DF80700E4
:101C800043F64000C4F202000068C000002815D4EA
:101C9000FFE7FFE70020009043F64000C4F2020097
:101CA000016841F080510160006800F080500090B0
:101CB0000098FFE701208DF80700FFE747F20000DA
:101CC000C4F200000068C005002822D4FFE747F2F4
:101CD0000001C4F20001086840F480700860FFF75A
:101CE00099FB0390FFE747F20000C4F20000006890
:101CF000C00500280CD4FFE7FFF78CFB0399401ABE
:101D0000032804D3FFE703208DF8170067E1EAE713
:101D1000FFE7FFE704988068012809D1FFE743F651
:101D20007001C4F20201086840F0010008601FE081
:101D30000498806805280DD1FFE743F67001C4F2CE
:101D40000201086840F004000860086840F00100E3
:101D500008600CE043F67001C4F20201086820F04C
:101D600001000860086820F004000860FFE7FFE752
:101D7000FFE704988068F8B1FFE7FFF74BFB03909B
:101D8000FFE743F67000C4F20200006800F00201B1
:101D90000020B0EB510F0ED1FFE7FFF73BFB03999B
:101DA000401A41F28931884204D3FFE703208DF8BD
:101DB000170014E1E5E71EE0FFF72CFB0390FFE7B7
:101DC00043F67000C4F20200006800F00201002037
:101DD000B0EB510F0ED0FFE7FFF71CFB0399401A41
:101DE00041F28931884204D3FFE703208DF81700C0
:101DF000F5E0E5E7FFE79DF80700012809D1FFE7D7
:101E000043F64001C4F20201086820F080500860E7
:101E1000FFE7FFE704988069002800F0DC80FFE717
:101E200043F60800C4F20200006800F00C00082825
:101E300000F08580FFE70498806902285CD1FFE705
:101E40006021C4F2472100200860FFF7E3FA039005
:101E5000FFE743F60000C4F20200006800F00071E2
:101E60000020B0EB516F0CD0FFE7FFF7D3FA0399D6
:101E7000401A032804D3FFE703208DF81700AEE0D3
:101E8000E7E70499C869D1F820C04B6A8A6A40EA3A
:101E90000C0040EA8310D2034FF6FF739A43A2F579
:101EA00080321043C96A40EA016043F60401C4F27B
:101EB000020108606021C4F2472101200860FFF799
:101EC000A9FA0390FFE743F60000C4F2020000689D
:101ED00000F000710020B0EB516F0CD1FFE7FFF76D
:101EE00099FA0399401A032804D3FFE703208DF8D9
:101EF000170074E0E7E721E06021C4F247210020E9
:101F00000860FFF787FA0390FFE743F60000C4F28A
:101F10000200006800F000710020B0EB516F0CD09F
:101F2000FFE7FFF777FA0399401A032804D3FFE786
:101F300003208DF8170052E0E7E7FFE74AE0049836
:101F40008069012804D1FFE701208DF8170046E0E1
:101F500043F60400C4F2020000680290049880690D
:101F6000012831D0FFE7029800F480000499C96984
:101F7000884229D1FFE7029800F03F000499096ADE
:101F8000884221D1FFE7029847F6C07108400499C2
:101F9000496AB0EB811F17D1FFE7029800F4403087
:101FA0000499896AC9034FF6FF729143A1F5803104
:101FB000884209D1FFE7029800F070600499C96A6D
:101FC000B0EB016F04D0FFE701208DF8170006E0A9
:101FD000FFE7FFE7FFE700208DF81700FFE79DF818
:101FE000170006B080BD000080B582B00190019856
:101FF00000F0E4FD02B080BD81B000900098406B1D
:1020000001B0704780B586B004900391ADF80A2006
:10201000049890F84200202848D1FFE7039820B1A7
:10202000FFE7BDF80A0020B9FFE701208DF817008F
:1020300040E0049901200863049900204863049853
:102040000399BDF80A2001F09BFA8DF80900049865
:10205000006B012821D1FFE7FFE7002001900498E1
:102060000068006801900498006840680190019839
:10207000FFE7FFE7FFE70498006850E8030F40F030
:1020800010000090FFE700990498026842E80310EE
:102090000028F0D1FFE7FFE703E001208DF80900F9
:1020A000FFE79DF809008DF8170003E002208DF886
:1020B0001700FFE79DF8170006B080BD80B582B01D
:1020C0000190ADF802100198006841F20001C4F2DD
:1020D0000101884206D1FFE70198BDF8021000F027
:1020E00001FFFFE702B080BD80B584B003900020FF
:1020F0000290039800684069C0B2C009029003983A
:1021000090F84100212823D1FFE7029800B3FFE7B0
:10211000FFE7FFE70398006850E8050F20F0800014
:102120000190FFE701990398026842E80510002832
:10213000F0D1FFE7FFE70398806B28B1FFE7039832
:10214000806BFEF71DFCFFE7039801F0ABF8FFE79B
:10215000039800684069C0F380100290039890F8DB
:102160004200222823D1FFE7029800B3FFE7FFE7F0
:10217000FFE70398006850E8050F20F0400000904A
:10218000FFE700990398026842E805100028F0D1A3
:10219000FFE7FFE70398C06B28B1FFE70398C06B28
:1021A000FEF7EEFBFFE7039801F01EF8FFE70020C3
:1021B00004B080BD80B582B001900198006841F202
:1021C0000001C4F20101884204D1FFE7019800F048
:1021D000D5FDFFE702B080BD81B000900098406C53
:1021E00001B0704780B592B01190119800680068F6
:1021F000109011980068C0680F90119800684069AD
:102200000E9000200D900C90109800F00F000D9093
:102210000D9888B9FFE79DF84000800600280AD590
:10222000FFE79DF83C008006002804D5FFE71198E1
:1022300001F054F802E2FFE70D98002800F0C28098
:10224000FFE79DF83800C00738B9FFE7BDF83C004C
:1022500010F4907F00F0B680FFE79DF84000C007C3
:1022600058B1FFE79DF83D00C00730B1FFE7119975
:10227000486C40F001004864FFE79DF840004007CB
:1022800000280BD5FFE79DF83800C00730B1FFE705
:102290001199486C40F002004864FFE79DF8400047
:1022A000800700280BD5FFE79DF83800C00730B144
:1022B000FFE71199486C40F004004864FFE79DF87F
:1022C00040000007002811D5FFE79DF83C0080067C
:1022D000002805D4FFE79DF83800C00730B1FFE7BC
:1022E0001199486C40F008004864FFE71198406C71
:1022F000002866D0FFE79DF84000800600280AD538
:10230000FFE79DF83C008006002804D5FFE7119800
:1023100000F0E4FFFFE7119800684069C0F3801007
:102320000C901198406C0007002804D4FFE70C982B
:1023300000283ED0FFE7119800F056FF1198006882
:102340004069400600282FD5FFE7FFE7FFE7119817
:10235000006850E8050F20F040000B90FFE70B9954
:102360001198026842E805100028F0D1FFE7FFE766
:102370001198C06B98B1FFE71198C16B42F6957048
:10238000C0F6000008651198C06BFEF76FFB28B11E
:10239000FFE71198C06B016D8847FFE703E01198D4
:1023A000FFF708FFFFE703E01198FFF703FFFFE7E0
:1023B00006E01198FFF7FEFE119900204864FFE740
:1023C000FFE73BE11198006B012840F01781FFE720
:1023D0009DF84000C006002840F11081FFE79DF8FD
:1023E0003C00C006002840F10981FFE7FFE700201C
:1023F0000A901198006800680A9011980068406877
:102400000A900A98FFE71198006840694006002882
:1024100040F19A80FFE71198C06B00684068ADF802
:102420002600BDF82600002875D0FFE7BDF826007D
:102430001199898D88426EDAFFE7BDF8260011995F
:10244000C8851198C06BC069B0F5807F58D0FFE790
:10245000FFE7FFE71198006850E8030F20F4807051
:102460000890FFE708991198026842E803100028D5
:10247000F0D1FFE7FFE7FFE7FFE71198006850E8BA
:10248000050F20F001000790FFE7079911980268F7
:1024900042E805100028F0D1FFE7FFE7FFE7FFE77C
:1024A0001198006850E8050F20F040000690FFE703
:1024B00006991198026842E805100028F0D1FFE75C
:1024C000FFE71199202081F842001199002008634C
:1024D000FFE7FFE71198006850E8030F20F01000B5
:1024E0000590FFE705991198026842E8031000285B
:1024F000F0D1FFE7FFE71198C06BFEF741FAFFE765
:102500001199022048631198818DC28D891A89B270
:10251000FFF7D4FD17E0BDF826001199898D884298
:1025200010D1FFE71198C06BC069B0F5807F08D16A
:10253000FFE71199022048631198818DFFF7BEFDD6
:10254000FFE7FFE7FFE779E01199888DC98D401A11
:10255000ADF812001198C08D00284ED0FFE7BDF8ED
:102560001200002849D0FFE7FFE7FFE71198006855
:1025700050E8030F20F490700390FFE7039911983F
:10258000026842E803100028F0D1FFE7FFE7FFE709
:10259000FFE71198006850E8050F20F00100029055
:1025A000FFE702991198026842E805100028F0D16F
:1025B000FFE7FFE71199202081F8420011990020E0
:1025C0000863FFE7FFE71198006850E8030F20F069
:1025D00010000190FFE701991198026842E803108A
:1025E0000028F0D1FFE7FFE7119902204863119816
:1025F000BDF81210FFF762FDFFE71FE09DF84000F5
:10260000000600280AD5FFE79DF83C0000060028D8
:1026100004D5FFE7119801F04BF80FE09DF840005A
:10262000400600280AD5FFE79DF83C004006002838
:1026300004D5FFE7119800F021FEFFE712B080BD3E
:1026400080B582B00090009820B9FFE701208DF896
:10265000070040E00098806908B1FFE700E0FFE76D
:10266000009890F8410040B9FFE70099002081F8F8
:102670004000009800F034F8FFE70099242081F82A
:10268000410000980168C86820F40050C8600098B4
:1026900000F0D8FE00980168086920F490400861B5
:1026A00000980168486920F02A0048610098016894
:1026B000C86840F40050C860009900204864009A3F
:1026C000202182F84110009A82F842100099486354
:1026D0008DF80700FFE79DF8070002B080BD0000FD
:1026E00080B58CB00B9000200A900990089007905C
:1026F00006900B98006841F20001C4F20101884283
:1027000040F09380FFE7FFE70020059043F6440088
:10271000C4F20200016841F010010160006800F09D
:10272000100005900598FFE7FFE70020049043F6AE
:102730003000C4F20200016841F00101016000684C
:1027400000F0010004900498FFE74FF4C060069089
:1027500002200790012008900320099007200A908A
:102760000020C4F2020006A9FEF74CFC40F29820BB
:10277000C2F20000039046F24041C4F2020101603F
:102780004FF00061416000218160C1604FF48062C0
:102790000261416181614FF48072C26101624162F4
:1027A000FEF716FB18B1FFE7FEF7E6F8FFE7FFE7D5
:1027B0000B9840F29821C2F20001C1630B98886324
:1027C000FFE740F2F820C2F20000029046F2B84162
:1027D000C4F2020101604FF000614160402181605C
:1027E0000021C1604FF48062026141618161C16179
:1027F00001624162FEF7ECFA18B1FFE7FEF7BCF8A0
:10280000FFE7FFE70B9840F2F821C2F20001816375
:102810000B988863FFE72520019005210022FEF731
:1028200091FE0198FEF784FEFFE70CB080BD00002A
:1028300081B0009001B0704781B0009001B0704746
:1028400080B586B004900391ADF80A20049890F802
:10285000410020286AD1FFE7039820B1FFE7BDF8C7
:102860000A0020B9FFE701208DF8170062E0039805
:1028700004990862BDF80A0004998884BDF80A002A
:102880000499C884049900204864049A212182F89C
:10289000411004998A6B43F25511C0F60001D163CF
:1028A00004998A6B43F2D111C0F6000111640499B6
:1028B0008A6B42F6B171C0F60001D1640499896B4C
:1028C000086503A8019004980268806B0199096863
:1028D0000432BDF80A30FEF733FB58B1FFE7049924
:1028E000102048640499202081F8410001208DF8CF
:1028F00017001FE0049801686FF040000860FFE7D0
:10290000FFE70498006850E8050F40F08000009051
:10291000FFE700990498026842E805100028F0D10A
:10292000FFE7FFE700208DF8170003E002208DF895
:102930001700FFE79DF8170006B080BD80B582B094
:1029400001900198006841F20001C4F2010188423F
:1029500004D1FFE7019800F0B1FAFFE702B080BDB3
:1029600081B0009001B07047FFE7FEE780B584B00A
:10297000FFE70020039043F63000C4F20200016834
:1029800041F480010160006800F480000390039826
:10299000FFE73A200090002201921146FEF7D2FD97
:1029A0000098FEF7C5FD019A462002901146FEF7F9
:1029B000C9FD0298FEF7BCFD04B080BD80B58CB0A7
:1029C00000200B900A90099008900790FFE70020E4
:1029D000069043F63000C4F20200016841F00401A1
:1029E0000160006800F0040006900698FFE7FFE72A
:1029F0000020059043F63000C4F20200016841F067
:102A000080010160006800F0800005900598FFE7F4
:102A1000FFE70020049043F63000C4F20200016892
:102A200041F001010160006800F001000490049889
:102A3000FFE740F60000C4F2020003904FF400519B
:102A4000019101220292FEF7CDFC019A02990398AE
:102A500007920891099100210A9107A9FEF7D2FA7D
:102A60000CB080BD80B582B040F25830C2F2000098
:102A7000019041F20001C4F20101016044F24021E1
:102A8000C0F20F01416000218160C16001610C2230
:102A900042618161C161FFF7D3FD18B1FFE7FDF726
:102AA0006BFFFFE702B080BDFFE7FEE7FFE7FEE751
:102AB00088B0079006910592079800F007000490EF
:102AC0000498C0F10700052803D3FFE70420019014
:102AD00004E00498C0F107000190FFE7019803901B
:102AE00004980430062803D8FFE70020009003E094
:102AF000049803380090FFE7009802900698039925
:102B0000012202FA01F101390840029B984005991F
:102B10009A40013A1140084308B0704770470000DE
:102B200081B000900098806800994968401A009927
:102B3000C96842180098C168B2FBF1F000FB11208F
:102B400001B0704780B586B0059004910392ADF84E
:102B50000A300598C0680499401AADF80800BDF81D
:102B60000800BDF80A10884205DDFFE7BDF80A003D
:102B7000ADF80800FFE703980599049A114418314D
:102B8000BDF80820FDF74FFBBDF80A00BDF808109E
:102B9000401AADF80600BDF8060058B1FFE70398EB
:102BA000BDF80810084405991831BDF80620FDF756
:102BB0003AFBFFE706B080BD7047000080B582B0E9
:102BC000009000980138B0F1807F03D3FFE7012027
:102BD000019019E0009801384EF21401CEF2000184
:102BE00008604FF0FF300F2100F004FE4EF2180194
:102BF000CEF20001002008604EF21002CEF2000278
:102C0000072111600190FFE7019802B080BD00002C
:102C100080B5FEF705FC80BD80B594B008A83021D2
:102C2000FDF71AFB00200790069005900490039092
:102C3000FFE70020029043F64000C4F20200016862
:102C400041F080510160006800F0805002900298CD
:102C5000FFE7FFE70020019047F20000C4F2000008
:102C6000016841F480410160006800F480400190F7
:102C70000198FFE7012008904FF48030099002206E
:102C80000E904FF480010F9104211091A821119111
:102C900012900720139008A8FEF746FE18B1FFE730
:102CA000FDF76AFEFFE70F2003900220049000204A
:102CB00005904FF4A05006904FF48050079003A861
:102CC0000521FEF761FC18B1FFE7FDF755FEFFE7B0
:102CD00014B080BD4EF68851CEF20001086840F471
:102CE000700008607047000080B586B004900391C2
:102CF000FEF790FB00F5FA700290FFE740F27400D7
:102D0000C2F2000001780020019051B1FFE7FEF708
:102D100081FB0146029A0020914238BF01200190B8
:102D2000FFE70198C00708B1FFE7E7E740F274004A
:102D3000C2F20000007818B1FFE7032005901AE006
:102D40000499039A40F62850C2F200000090FDF763
:102D50006AFA009940F27402C2F200020120107077
:102D6000BDF80C2040F25830C2F20000FFF768FDB9
:102D700000200590FFE7059806B080BD80B586B0BD
:102D800005900598FFF728FA0598FFF7ADF9059823
:102D90000168C86820F40050C860FFE70020049074
:102DA00005980068006804900598006840680490E1
:102DB0000498FFE7FFE7002003900598006800688B
:102DC000039005980068406803900398FFE7FFE7C9
:102DD000002002900598006800680290059800683D
:102DE000406802900298FFE7FFE7002001900598F5
:102DF000006800680190059800684068019001989B
:102E0000FFE705980068406805980168C86840F4C5
:102E10000050C86000F0A0FC06B080BD80B586B050
:102E2000049003910020ADF80800049818B1FFE762
:102E3000039818B9FFE7002005903BE072B640F216
:102E40007400C2F20000FFF76BFEADF80A00BDF897
:102E50000A0020B9FFE762B6002005902AE0BDF81D
:102E60000A000399884203D9FFE70398019003E021
:102E7000BDF80A000190FFE70198ADF8080040F2A4
:102E80007400C2F2000000904168049ABDF8083056
:102E9000FFF758FE00994868BDF808208318CA68F3
:102EA000B3FBF2F000FB1230486062B6BDF80800D8
:102EB0000590FFE7059806B080BD000081B0009046
:102EC0000098006841F20001C4F20101884207D174
:102ED000FFE740F27401C2F2000100200870FFE732
:102EE00001B0704780B584B00390ADF80A10039824
:102EF000006841F20001C4F20101884201D0FFE7FD
:102F000045E00398FFF778F801900398C06B0068DC
:102F10004068C0F50070009000986FF35F2000904B
:102F20000198022804D0FFE7019801280CD1FFE79F
:102F3000009A40F27400C2F2000040F62831C2F25A
:102F4000000103F0FFFD22E00198F8B9FFE740F22D
:102F50007400C2F2000001690020B0EB512F0ED1C5
:102F6000FFE740F27400C2F200000169C1F500728F
:102F700040F62831C2F2000100F020FDFFE740F2E8
:102F80007401C2F2000100200861FFE7FFE704B00E
:102F900080BD000080B582B001900198806B0090E8
:102FA00000990020C8850098FFF704F902B080BDA1
:102FB00080B584B00390002002900398806B01904C
:102FC000019800684069C0B2C0090290019890F869
:102FD000410021280AD1FFE7029838B1FFE70199A3
:102FE0000020C884019800F05DF9FFE701980068AF
:102FF0004069C0F380100290019890F842002228A6
:103000000AD1FFE7029838B1FFE701990020C8858F
:10301000019800F0E9F8FFE70199486C40F01000D2
:1030200048640198FFF7C6F804B080BD80B586B04B
:1030300005900598806B0490059800680068C005AD
:1030400000285AD4FFE704990020C885FFE7FFE76E
:103050000498006850E8030F20F480700390FFE7A5
:1030600003990498026842E803100028F0D1FFE7B2
:10307000FFE7FFE7FFE70498006850E8050F20F03E
:1030800001000290FFE702990498026842E80510E7
:103090000028F0D1FFE7FFE7FFE7FFE704980068AB
:1030A00050E8050F20F040000190FFE701990498D7
:1030B000026842E805100028F0D1FFE7FFE7049915
:1030C000202081F842000498006B012814D1FFE70A
:1030D000FFE7FFE70498006850E8030F20F01000B6
:1030E0000090FFE700990498026842E80310002866
:1030F000F0D1FFE7FFE7FFE7FFE70499002048630F
:103100000498006B012805D1FFE70498818DFEF734
:10311000D5FF03E00498FFF78BFBFFE706B080BD07
:1031200080B582B001900198806B009000990120D9
:1031300048630098006B012806D1FFE70098818D55
:103140004908FEF7BBFF03E00098FFF775FBFFE7B8
:1031500002B080BD80B584B003900398806B02906C
:10316000039800680068C00500282AD4FFE7029988
:103170000020C884FFE7FFE70298006850E8050FC9
:1031800020F080000190FFE701990298026842E870
:1031900005100028F0D1FFE7FFE7FFE7FFE70298FF
:1031A000006850E8030F40F040000090FFE70099EE
:1031B0000298026842E803100028F0D1FFE7FFE719
:1031C00003E00298FFF7BAFBFFE704B080BD000000
:1031D00080B582B001900198806B00900098FFF755
:1031E000BFFB02B080BD000084B00390FFE7FFE7A3
:1031F0000398006850E8030F20F490700290FFE7F6
:1032000002990398026842E803100028F0D1FFE712
:10321000FFE7FFE7FFE70398006850E8050F20F09D
:1032200001000190FFE701990398026842E8051048
:103230000028F0D1FFE7FFE70398006B012814D1C5
:10324000FFE7FFE7FFE70398006850E8030F20F06F
:1032500010000090FFE700990398026842E803100D
:103260000028F0D1FFE7FFE7FFE70399202081F86E
:10327000420003990020086304B0704780B582B013
:10328000019001980168C86820F04000C860019969
:10329000202081F841000198FFF750FB002002B088
:1032A00080BD000082B00190FFE7FFE70198006851
:1032B00050E8030F20F0C0000090FFE7009901984C
:1032C000026842E803100028F0D1FFE7FFE7019908
:1032D000202081F8410002B07047000080B586B020
:1032E0000490002003900290049890F84200222855
:1032F00040F0A080FFE704988068B0F5805F13D1AC
:10330000FFE70498006978B9FFE70498806A0290A3
:103310000498006840686FF35F2002990880049960
:10332000886A0230886223E00498806A03900498D7
:103330008068B0F5805F08D0FFE70498806850B9D6
:10334000FFE70498006930B9FFE704980068406817
:103350000399087007E004980068406800F07F0057
:1033600003990870FFE70499886A01308862FFE7D3
:103370000499C88D0138C8850004002856D1FFE79C
:1033800004980168C86820F02000C86004980168AB
:10339000C86820F48070C86004980168486920F00B
:1033A000010048610499202081F84200049900201E
:1033B00048630498006B012830D1FFE7049900208E
:1033C0000863FFE7FFE70498006850E8030F20F068
:1033D00010000190FFE701990498026842E8031089
:1033E0000028F0D1FFE7FFE7049800680068C006F6
:1033F00000280ED5FFE7FFE7002000900498006842
:103400000068009004980068406800900098FFE70A
:10341000FFE70498818DFEF751FE03E00498FFF763
:1034200007FAFFE700208DF8170007E000208DF86D
:10343000170003E002208DF81700FFE79DF8170042
:1034400006B080BD80B586B005900598006800691B
:1034500020F44050059A1168D2681043086105991C
:1034600088680B694A69C969184310430843049086
:1034700005980068C06849F20C61884304990843C4
:1034800005990968C86005980068406920F4407093
:10349000059A11689269104348610598006841F2E5
:1034A0000001C4F20101884209D0FFE705980068D5
:1034B00041F20041C4F20101884204D1FFE7FEF766
:1034C000ADF9039003E0FEF797F90390FFE7059845
:1034D000C069B0F5004F29D1FFE703981921A0FB7F
:1034E0000101059A1368029353685A00DB0FFCF739
:1034F00069FE0299864648F21F53C5F2EB13AEFBF4
:103500000320420910014FF0640C02FB1CEC322234
:1035100002EBCC02A2FB0332F82303EA521300EBC6
:103520004300C2F342121044886026E00398192138
:10353000A0FB0101059A1368019353689A009B0F41
:10354000FCF740FE0199844648F21F52C5F2EB1287
:10355000ACFB02304309642003FB10CC322000EBAB
:103560000C10A0FB0202F02000EA521000EB031046
:10357000C2F3431210448860FFE706B080BD00002C
:1035800080B58AB008900791ADF81A20079808997D
:103590008862BDF81A000899888508990020486457
:1035A000089A222182F842100899CA6B43F22D0131
:1035B000C0F60001D1630899CA6B43F22111C0F62D
:1035C000000111640899CA6B42F6B171C0F600019E
:1035D000D1640899C96B086507A805900898016827
:1035E000C06B0431059A1268BDF81A30FDF7A8FCCB
:1035F00058B1FFE70899102048640899202081F805
:10360000420001208DF827004EE0FFE700200490E3
:103610000898006800680490089800684068049062
:103620000498FFE708980069A0B1FFE7FFE7FFE70C
:103630000898006850E8030F40F480700390FFE79B
:1036400003990898026842E803100028F0D1FFE7C8
:10365000FFE7FFE7FFE7FFE70898006850E8050F7E
:1036600040F001000290FFE702990898026842E8E2
:1036700005100028F0D1FFE7FFE7FFE7FFE7089814
:10368000006850E8050F40F040000190FFE7019905
:103690000898026842E805100028F0D1FFE7FFE72C
:1036A00000208DF82700FFE79DF827000AB080BDB5
:1036B00083B00190019890F8410021283AD1FFE7AA
:1036C00001988068B0F5805F13D1FFE70198006929
:1036D00078B9FFE70198006A0090009800886FF3BE
:1036E0005F200199096848600199086A0230086200
:1036F00008E0019A106A411C11620078019909687A
:103700004860FFE70199C88C0138C884000468B993
:10371000FFE701980168C86820F08000C860019840
:103720000168C86840F04000C860FFE700208DF8DD
:103730000B0003E002208DF80B00FFE79DF80B0063
:1037400003B0704780B540F25830C2F20000FEF777
:1037500049FD80BDFFE7FEE780B582B040F274000E
:10376000C2F20000002101700161816041604FF4EC
:1037700000710191C1601830FCF76EFD019A40F2B2
:103780005830C2F2000040F62831C2F20001FEF7C4
:1037900039FC18B1FFE7FDF7EFF8FFE740F298209A
:1037A000C2F200000168086840F01C00086002B026
:1037B00080BD000081B08DF803009DF90300002852
:1037C0000ED4FFE79DF9031001F01F020120904085
:1037D0004A094EF20011CEF2000141F82200FFE743
:1037E00001B070474EF60C50CEF200000068C0F3F6
:1037F0000220704782B08DF8070000919DF9070004
:1038000000280AD4FFE7009800019DF907104EF246
:103810000042CEF2000288540BE0009800019DF8AF
:10382000071001F00F014EF61452CEF20002885438
:10383000FFE702B07047000083B00290029800F0EA
:10384000070000904EF60C51CEF20001086801907E
:1038500001984FF6FF02104001900198009A40EA4B
:1038600002200022C0F2FA52104301900198086031
:1038700003B0704740F2A030C2F2000000687F2819
:103880001BDCFFE740F2A031C2F200010B6840F2FE
:10389000A452C2F2000243F6B510C0F6000042F88E
:1038A00023000B6840F2A432C2F20002022042F868
:1038B0002300086801300860FFE7704740F2A0303D
:1038C000C2F2000000687F281BDCFFE740F2A03155
:1038D000C2F200010B6840F2A452C2F2000244F2AC
:1038E000FD00C0F6000042F823000B6840F2A4324D
:1038F000C2F20002012042F823000868013008608B
:10390000FFE7704740F2A030C2F2000000687F2855
:103910001BDCFFE740F2A031C2F200010B6840F26D
:10392000A452C2F2000246F2F970C0F6000042F85A
:1039300023000B6840F2A432C2F20002032042F8D6
:103940002300086801300860FFE7704770470000F7
:1039500080B584B0DDF820C0DDF81CC0DDF818C0EB
:10396000039002910192009301F030FA6FF001018F
:1039700000F04CFD039A029B002100F03BF904B0DB
:1039800080BD000080B584B0DDF820C0DDF81CC02B
:10399000DDF818C0039002910192009301F016FA2D
:1039A0006FF0010100F032FD9DF80C1000F084FA78
:1039B00004B080BD80B502F005FF80BD80B58AB03F
:1039C000099008910792079818B1FFE7089808B97D
:1039D000FFE756E072B60998C06801900998FFF7B2
:1039E0009FF80199C04308440690079806998842B9
:1039F00003D8FFE70798009002E006980090FFE7E1
:103A00000098059005980799884205D2FFE7099923
:103A1000486901304861FFE7099880680290099879
:103A2000C0680299401A049004980599884203D905
:103A3000FFE705980490FFE70998029908441830B9
:103A40000899049AFCF7EFFB05980499401A039033
:103A5000039848B1FFE7099818300899049A11446F
:103A6000039AFCF7E0FBFFE70298059942180998D2
:103A7000C168B2FBF1F000FB11200999886062B6C1
:103A8000FFE70AB080BD000080B540F60000C4F238
:103A900002004FF400510122FDF7A4FC80BD00009C
:103AA00080B540F60000C4F202004FF4005100223D
:103AB000FDF798FC80BD000080B588B006900591A8
:103AC0000598406804900698012819DCFFE7FFE795
:103AD00069462420886047F6FD20C0F60000486053
:103AE000086047F6B722C0F600024FF0FF30012110
:103AF000002300F043FAFFE74FF0FF30079041E06A
:103B0000049847F6FA21C0F60001FCF7B7FB18B994
:103B1000FFE7FFF7C5FF31E0049847F6F621C0F64E
:103B20000001FCF7ABFB18B9FFE7FFF7ADFF24E09E
:103B3000049847F6EF21C0F60001FCF79FFB18B987
:103B4000FFE700F023F817E0FFE704986946C86034
:103B50003520886047F6FD20C0F600004860086008
:103B600047F68022C0F600024FF0FF30022100230A
:103B700000F004FAFFE7FFE7FFE7FFE74FF0FF3051
:103B80000790FFE7079808B080BD000080B540F6B9
:103B90000000C4F202004FF40051FDF70FFC80BD9D
:103BA00080B582B002F070FF00200190FFE701981D
:103BB00040F2A031C2F200010968884217DAFFE73B
:103BC000019940F2A450C2F2000050F8210048B11F
:103BD000FFE7019940F2A450C2F2000050F8210022
:103BE0008047FFE7FFE7019801300190DFE702B06F
:103BF00080BD000080B58CB00B908DF82B10099221
:103C0000089300200590089858B1FFE70B98013001
:103C100040B1FFE70B9840799DF82B10884201DAFC
:103C2000FFE70EE1099B089847F6B012C0F60002C4
:103C300069464A60086040F2A470C2F20000029037
:103C400047F66022C0F600027F2102F0B9FF029A17
:103C500006900B989DF82B10BDF9183000F0BAF9BA
:103C600008980690099820F00F0007900998079986
:103C7000411A08980844089008980F3020F00F0067
:103C80000890FFE70898002800F0DB80FFE705991F
:103C900040F2A470C2F200000844079A47F64D2192
:103CA000C0F6000102F0A6FF014605980844059001
:103CB00000200490FFE704980F283BDCFFE70798FB
:103CC000049908440999884209D3FFE707980499A1
:103CD00008440999069A1144884212D3FFE7059ACD
:103CE000501C059040F2A471C2F2000120208854BB
:103CF000059A531C05938854059A531C05938854C0
:103D000013E0059940F2A470C2F20000084407993C
:103D1000049A8A5C47F6F811C0F6000102F06AFFC7
:103D20000146059808440590FFE7FFE70498013035
:103D30000490C0E7059A501C059040F2A471C2F2AD
:103D400000017C208854059A501C0590202088543E
:103D500000200390FFE703980F284ADCFFE707984D
:103D6000039908440999884209D3FFE70798039902
:103D700008440999069A114488420AD3FFE7059A34
:103D8000501C059040F2A471C2F20001202088541A
:103D90002AE007980399405C20281ADBFFE7079880
:103DA0000399405C7E2814DCFFE7059940F2A4707B
:103DB000C2F2000008440799039A8A5C47F6FE1194
:103DC000C0F6000102F016FF014605980844059070
:103DD00009E0059A501C059040F2A471C2F200015E
:103DE0002E208854FFE7FFE7FFE703980130039098
:103DF000B1E70599481C059040F2A472C2F2000296
:103E0000202050540599481C05907C205054059959
:103E1000481C05900D2050540599481C05900A2017
:103E200050540B989DF82B10BDF9143000F0D2F8C7
:103E300007981030079008981038089000200590D7
:103E400020E70CB080BD000080B584B003900291E3
:103E5000039808B9FFE72CE002980399886002985C
:103E6000039A6FF0010100F0ADFA0020ADF80600F2
:103E7000FFE7BDF9060004281BDCFFE7BDF90610CB
:103E800040F62400C2F2000050F8210050B9FFE7CC
:103E90000398BDF9062040F62401C2F2000141F862
:103EA000220006E0FFE7BDF806000130ADF806008D
:103EB000DFE704B080BD000080B588B007908DF8C2
:103EC0001B100798E0B9FFE7FFE769468720086104
:103ED00047F60122C0F60002CA60886047F641201A
:103EE000C0F600004860086047F64712C0F60002BE
:103EF0004FF0FF300121002300F040F8FFE704E01D
:103F00009DF81B0007994871FFE708B080BD0000CD
:103F100080B586B0059005986FF0010100F076FA43
:103F20000490049808B9FFE726E004984079062831
:103F300003DBFFE70020039004E0049840790130A0
:103F40000390FFE7039804994871FFE704984179CB
:103F50006846816040F25111416047F63223C0F655
:103F60000003036047F68F12C0F600024FF0FF30E7
:103F7000002100F003F8FFE706B080BD81B080B5F6
:103F800085B0079304908DF80F10029207A8019056
:103F9000029A019B40F2A470C2F200007F2102F05D
:103FA0003DFE00900098812803DBFFE78020009011
:103FB000FFE704989DF80F10BDF9003040F2A4729D
:103FC000C2F2000200F006F805B0BDE8804001B082
:103FD0007047000080B584B003908DF80B100192FB
:103FE000ADF8023003980130002845D1FFE70020EA
:103FF000ADF80000FFE7BDF9000004283BDCFFE757
:10400000BDF9001040F62400C2F2000050F8210073
:1040100050B3FFE7BDF9001040F62400C2F20000E3
:1040200050F821000079F8B1FFE7BDF9001040F623
:104030002400C2F2000050F8210040799DF80B10D6
:10404000884211DBFFE7BDF9001040F62400C2F200
:10405000000050F821000268BDF9021040F2A4707F
:10406000C2F200009047FFE7FFE7BDF80000013013
:10407000ADF80000BFE718E00398A8B1FFE7039888
:10408000007988B1FFE7039840799DF80B108842CA
:104090000ADBFFE703980268BDF9021040F2A47042
:1040A000C2F200009047FFE7FFE704B080BD0000C8
:1040B00080B582B000200190FDF7C0F9FEF7ACFD9D
:1040C000FEF77CFCFEF752FCFEF7CCFCFFF768FD28
:1040D000FFE702F00DFCFCE780B5FFF737FCFFF7C8
:1040E0003BFB47F26450C0F6000040F28C21C2F264
:1040F0000001012200F006F880BD000080B5FFF746
:10410000EBFF80BD84B0029001918DF803200298EE
:1041100018B1FFE7019820B9FFE74FF0FF30039097
:1041200011E00298019908609DF80300012807D169
:10413000FFE7019840F29421C2F200010860FFE716
:1041400000200390FFE7039804B0704782B08DF819
:1041500003009DF80300012807D1FFE740F29420F7
:10416000C2F200000068019002E000200190FFE729
:10417000019802B07047000080B586B004900391AA
:10418000029200200190049868B1FFE7049800684B
:1041900048B1FFE7049800680068406818B1FFE77D
:1041A000039820B9FFE74FF0FF3005900AE004982C
:1041B000006800684268039802999047019001984E
:1041C0000590FFE7059806B080BD000080B584B07B
:1041D000029001910092029868B1FFE7029800688E
:1041E00048B1FFE7029800680068006818B1FFE76F
:1041F000019820B9FFE74FF0FF30039009E00298E3
:1042000000680068026801980099904700200390B8
:10421000FFE7039804B080BD82B001900020ADF8A4
:104220000200FFE7BDF9020004281BDCFFE7BDF92F
:10423000021040F64400C2F2000050F8210050B9CC
:10424000FFE70198BDF9022040F64401C2F20001E7
:1042500041F8220006E0FFE7BDF802000130ADF8AA
:104260000200DFE702B0704780B582B0019001988C
:10427000012100F0F9F802B080BD000080B582B0E5
:1042800001900198016840698968FBF7F7FF80B9E0
:10429000FFE7019991F8780040F0010081F878007B
:1042A000019840F20801C2F20001096802F05CFACC
:1042B00008E0019840F20801C2F20001496B02F0E7
:1042C00053FAFFE70199002008820199488202B061
:1042D00080BD000084B00390029102980078B8B1CC
:1042E000FFE70298407800F00F00082810D0FFE7A1
:1042F0000398016800200190D9B1FFE70298017886
:1043000003980068027800201142019011D0FFE765
:10431000039890F878100120C907009031B9FFE7A1
:1043200002984078C0F300100090FFE700980190D9
:10433000FFE7019800F00100013804B07047000069
:1043400080B582B000F042FD0190019848B1FFE7CE
:10435000019840F20801C2F20001896B02F004FAF0
:10436000FFE702B080BD000080B582B001900199E6
:10437000088A498A401AADF80200FFE7BDF9020039
:1043800001280BDBFFE70198202102F0A7F8FFE7E7
:10439000BDF802000138ADF80200EFE70198017C9A
:1043A00000F010F902B080BD80B582B000F00EFDC3
:1043B0000190019820B1FFE7019801F0AFF8FFE705
:1043C00002B080BD86B00490039102920498C06848
:1043D000019000200090009820B9FFE7FF208DF8A1
:1043E00017000FE003980099086002980099486050
:1043F00001980099886000980499C86000208DF8A1
:104400001700FFE79DF9170006B0704784B00290CF
:104410000191029818B9FFE70020039017E0029875
:10442000C0680090FFE7009870B1FFE7009800684F
:104430000199884204D1FFE700984068039006E0A4
:10444000009880680090EEE700200390FFE7039853
:1044500004B0704780B582B0019001984FF0FF31F1
:1044600000F002F802B080BD80B584B003908DF8F2
:104470000B109DF90B000130B0FA80F040098DF867
:104480000A000398408A28B9FFE79DF90B0001282C
:104490000BD0FFE70399488A098A884206D1FFE7D3
:1044A0009DF90B00013008B9FFE788E00399488ABD
:1044B000098A884217D1FFE79DF90B00012812D124
:1044C000FFE70399488A013848820399088A01382E
:1044D000088203984169028A0020885403980121C8
:1044E00000F070F86BE09DF80A00ADF80800FFE7F7
:1044F000BDF90800039A118A528A891A884211DA92
:10450000FFE703994869498ABDF908200A448118E0
:10451000805C01F8010CFFE7BDF808000130ADF840
:104520000800E5E70399088A013808829DF80A0027
:1045300048B9FFE70399488A01384882039808215F
:1045400001F0CCFFFFE703984169028A00208854FC
:104550000398408AADF80600FFE7BDF9060003990D
:10456000098A88420EDAFFE703984169BDF90620FF
:10457000895C01F0B3FFFFE7BDF806000130ADF83C
:104580000600EAE70398202101F0A8FF0399088AB2
:10459000498A401A0130ADF80400FFE7BDF9040074
:1045A00001280BDBFFE70398082101F097FFFFE7E5
:1045B000BDF804000138ADF80400EFE7FFE704B0F0
:1045C00080BD000080B582B001908DF80310FFE738
:1045D0009DF80300411E8DF8031040B1FFE70198DC
:1045E00047F29471C0F6000102F0BEF8F0E702B0A5
:1045F00080BD000080B582B0019001984FF0FF317E
:1046000000F044FD02B080BD80B582B001900198F9
:1046100000F006F80198012102F00CF802B080BD0C
:1046200080B582B001900198008A08B9FFE73EE0AA
:1046300001984169028A00208854019890F8780016
:10464000C00780B3FFE7019800F0B2FD019801F0C8
:1046500057F9019900204882019908820198408FFA
:1046600008B9FFE723E0019847F6BB01C0F6000157
:1046700002F07AF801988169026F002301F030FAA4
:104680000090009828B1FFE70198009901F0B6F971
:1046900008E0019840F20801C2F20001896902F0C5
:1046A00063F8FFE703E00198FFF7E8FDFFE702B0DA
:1046B00080BD000083B002900298019000208DF828
:1046C00003000198007830280ED1FFE70198407868
:1046D000782805D0FFE701984078582804D1FFE7F3
:1046E00003208DF803001DE00198007830280ED1DA
:1046F000FFE701984078622805D0FFE701984078ED
:10470000422804D1FFE701208DF8030009E0019859
:104710000078302804D1FFE702208DF80300FFE77E
:10472000FFE7FFE7FFE70198411C0191007870B1B6
:10473000FFE7019800782E2808D1FFE7019840781C
:1047400020B1FFE704208DF8030000E0EBE79DF8BF
:10475000030003B07047000085B00490049800780F
:10476000272804D1FFE704980130019002E0049863
:104770000190FFE70198039000208DF80B0003984B
:1047800000785C2831D1FFE703984078014600911A
:10479000302820D0FFE7009862280CD0FFE700986F
:1047A0006E2810D0FFE70098722808D0FFE7009825
:1047B00074280CD013E008208DF80B0014E00D20B5
:1047C0008DF80B0010E00A208DF80B000CE009209A
:1047D0008DF80B0008E000208DF80B0004E0039832
:1047E00040788DF80B00FFE704E0039800788DF81F
:1047F0000B00FFE79DF80B0005B0704780B58CB04B
:104800000A9000208DF827000A218DF826100A99B9
:1048100008918DF81F0001218DF81E10069005905B
:1048200004900A9800782D2804D1FFE7FF208DF826
:104830001E00FFE70A989DF91E104A1C411C002A21
:1048400008BF0846FFF736FF8DF827009DF82700C0
:1048500001460391012816D0FFE7039802280BD0E8
:10486000FFE70398032814D1FFE710208DF82600F6
:1048700002208DF81F000DE008208DF82600012091
:104880008DF81F0006E002208DF826008DF81F002D
:1048900000E0FFE70A989DF81F1008449DF91E20CC
:1048A000411C0132002A08BF08460890FFE708981B
:1048B000007818B3FFE7089800782E2806D1FFE7A4
:1048C00001200490089801300890F0E706980290C3
:1048D0009DF8260001900898007800F0C5F901992C
:1048E0000246029800FB01200690049800EB80002D
:1048F00040000490089801300890D8E79DF8270000
:1049000004281AD1FFE70498B8B1FFE79DED060A25
:10491000B8EE400A9DED041AB8EE411A80EE010A85
:104920009DF91E0001EE100AB8EEC11A20EE010A30
:104930008DED050A05980B9005E006989DF91E106F
:1049400048430B90FFE70B980CB080BD80B586B054
:104950000490039102920193029850B1FFE70398EB
:10496000007824284DD1FFE703984078002848D0EC
:10497000FFE70398007827280CD1FFE703984078D9
:1049800040B1FFE70398FFF7E7FE019908600020B8
:1049900005903AE0039800782D280AD0FFE70398A5
:1049A000007830280DDBFFE703980078392808DC11
:1049B000FFE70398FFF722FF0199086000200590A8
:1049C00023E00398007824280BD1FFE70398407870
:1049D00038B1FFE704980399019A00F065F8059053
:1049E00013E00398007840B1FFE7039800F010F857
:1049F000019908600020059007E0FFE7FFE7FFE767
:104A0000FFE74FF0FF300590FFE7059806B080BD47
:104A100080B584B00390039802900020ADF80600A2
:104A200003980078222805D1FFE70398013003900E
:104A30000290FFE7FFE70298007860B3FFE7029873
:104A400000785C280BD1FFE70298FFF785FE0399F9
:104A5000BDF80620885402980130029012E00298B6
:104A60000078222806D1FFE70399BDF80620002030
:104A7000885406E0029800780399BDF8062088540F
:104A8000FFE7FFE7029801300290BDF80600013011
:104A9000ADF80600CFE70399BDF806200020885442
:104AA000039804B080BD000080B586B004900391E7
:104AB0000292049803990131026F002301F010F86B
:104AC0000190019848B1FFE70498019900F0B8F906
:104AD000029908600020059003E04FF0FF30059038
:104AE000FFE7059806B080BD70B59EB01C901B9185
:104AF0001A9219930020069018901790169015900E
:104B0000149013901290119010901B98807800F0E0
:104B10000F001A990139884206DDFFE71B9880785B
:104B200000F00F00059003E01A9801380590FFE7A8
:104B300005980F9000200E90FFE70E981A99013902
:104B4000884217DAFFE71C9819990E9B01EB830145
:104B5000496810AA02EB83030022FFF7F7FE20B199
:104B6000FFE74FF0FF301D907BE0FFE70E9801302C
:104B70000E90E2E70F98049007286BD80499DFE8BD
:104B800001F00409111A243041541B9880688047B1
:104B9000189063E01B9880680D900D9910988847D5
:104BA00018905BE01B9880680C900C9A10981199F3
:104BB0009047189052E01B9880680B900B9B1098C0
:104BC0001199129A9847189048E01B9880680A90AB
:104BD000DDF828C010981199129A139BE04718909D
:104BE0003CE01B9880680990DDF824C0109811996A
:104BF000129A139BDDF850E06C46C4F800E0E047E1
:104C000018902BE01B9880680890DDF820C0109861
:104C10001199129A139BDDF850E0159D6C46656062
:104C2000C4F800E0E047189018E01B9880680790EF
:104C3000DDF81CC010981199129A139BDDF850E012
:104C4000159D169E6C46A6606560C4F800E0E047BE
:104C5000189003E04FF0FF301890FFE718981D9070
:104C6000FFE71D981EB070BD81B08DF802009DF861
:104C7000020030280BDBFFE79DF80200392806DC34
:104C8000FFE79DF8020030388DF8030023E09DF81F
:104C9000020061280BDBFFE79DF80200662806DCB6
:104CA000FFE79DF8020057388DF8030013E09DF8E8
:104CB000020041280BDBFFE79DF80200462806DCD6
:104CC000FFE79DF8020037388DF8030003E000206D
:104CD0008DF80300FFE79DF8030001B07047000066
:104CE00082B000900098407800F00F00012804DCAA
:104CF000FFE70098C068019019E00098407800F044
:104D00000F00072804DCFFE70098C06801900EE060
:104D10000098407800F00F00082804DCFFE70098B6
:104D2000C068019003E00098C0680190FFE7019817
:104D300002B0704780B584B0029000208DF8070063
:104D4000FFE79DF8070008280FDCFFE79DF8072024
:104D500040F63801C2F2000130208854FFE79DF888
:104D6000070001308DF80700EBE70298407800F06B
:104D70000F00012804DCFFE702984068039021E05F
:104D80000298407800F00F00072804DCFFE7029843
:104D90004068039016E00298407800F00F00082861
:104DA00004DCFFE70298406803900BE0029840683B
:104DB00040F63801C2F20001009101F033FB009887
:104DC0000390FFE7039804B080BD000082B000208C
:104DD000ADF80200FFE7BDF90200042829DCFFE777
:104DE000BDF9021040F64400C2F2000050F8210064
:104DF000C0B1FFE7BDF9021040F64400C2F2000066
:104E000050F8210090F878004008C00750B1FFE743
:104E1000BDF9021040F64400C2F2000050F8210033
:104E2000019009E0FFE7BDF802000130ADF8020093
:104E3000D1E700200190FFE7019802B07047000021
:104E400080B586B0059004910020039004984078C6
:104E500000F00F0002380146019105282DD8019974
:104E6000DFE801F003080E13131704988068006848
:104E7000039023E004988068B0F9000003901DE0DF
:104E8000049880680078039018E004988068039084
:104E900014E00498806840680290029838B1FFE7F7
:104EA00002990498806800688847009002E000201A
:104EB0000090FFE70098039000E0FFE7039806B03A
:104EC00080BD000080B586B005908DF813109DF868
:104ED000130008B9FFE7B7E018208DF81200002092
:104EE0000390059890F83D0038B1FFE700208DF859
:104EF00012006FF0FF0003901AE0059890F83E0052
:104F000040B1FFE708208DF812000020CFF6FF70B7
:104F100003900CE0059890F83F0038B1FFE71020AF
:104F20008DF812004FF07F400390FFE7FFE7FFE7A7
:104F30000598006F02900020ADF80600FFE7BDF96C
:104F400006000599B1F87410884270DAFFE70298FC
:104F5000BDF9061000EB0110407800F00F000928A1
:104F60005ED1FFE705980299BDF9062001EB021119
:104F7000FFF7B0F9002853D1FFE70298BDF90610FA
:104F800000EB01104068039908400599C96B8842FD
:104F900045D1FFE70298BDF9061000EB011040680B
:104FA0009DF81220FF21914008409DF81310914078
:104FB000884234D1FFE79DF813009DF8121000FAE3
:104FC00001F20599C86B1043C86300208DF81300E7
:104FD0009DF8120068B1FFE70298BDF9061000EBDA
:104FE000011040689DF812100839C8400006A8B9A1
:104FF000FFE70298BDF9061000EB0110806848B188
:10500000FFE70298BDF9061000EB011081680598D2
:105010008847FFE705990020C86308E0FFE7FFE73E
:10502000FFE7BDF806000130ADF8060087E79DF800
:10503000130048B1FFE705990020C86305989DF863
:10504000131000F049FCFFE706B080BD80B584B0C6
:1050500003900291FFF7BAFE0190019808B9FFE7AB
:1050600012E00398012804D1FFE7019800F04EFAFE
:105070000AE00398022806DBFFE7019802994968D5
:1050800001F098FAFFE7FFE704B080BD80B586B075
:1050900005908DF813109DF91300012838DBFFE708
:1050A000059AB2F96C00411EA2F86C1003900599A4
:1050B000B1F86800B1F86A10884205DDFFE705988D
:1050C000B0F86800029004E00598B0F86A00029019
:1050D000FFE7039802994942884218DCFFE70599E7
:1050E000B1F86800B1F86A10884205DDFFE705985D
:1050F000B0F86800019004E00598B0F86A000190EB
:10510000FFE7019840420599A1F86C00FFE717E01E
:105110009DF91300B0F1FF3F10DCFFE70599B1F8EE
:105120006C000130A1F86C0000B2012805DBFFE73C
:1051300005990020A1F86C0038E000E036E0FFE7B8
:105140000598FFF711F90598B0F96C0030B9FFE741
:105150000599002008820599488227E00599486949
:10516000B1F86A20B1F96C301A440A3246F267632A
:10517000C6F2666352FB03FC4FEAAC0303EBDC733D
:1051800003EB8303A2EB430201EB8201096C00F005
:10519000C9FF0599088208B9FFE707E00599088A61
:1051A00048820598416901F0DFFAFFE706B080BD4B
:1051B00080B584B0039003990020A1F86C00039897
:1051C000B0F8680001281DDBFFE7039800F14001FB
:1051D0000291B0F86A0018B9FFE70A20019004E0D4
:1051E0000398B0F86A000190FFE70298019900EB7C
:1051F000810050F8040C03994969FBF73FF808B99E
:10520000FFE72BE00399B1F86A0001EB8000006C26
:10521000496900F087FF38B1FFE70399B1F86A00E8
:105220000130A1F86A00FFE70399B1F86800013086
:10523000A1F8680080B20B2805DBFFE703990A207C
:10524000A1F86800FFE70398B0F86A000A2805DBB8
:10525000FFE703990020A1F86A00FFE704B080BDD2
:1052600080B584B003900291ADF806200399002028
:1052700008820399488203990860039A92F878108B
:1052800041F0010182F878100299039A5161BDF84A
:10529000061048F6A332CBF62E22A1FB0221C90844
:1052A000039A11870399A1F86C000399A1F868008B
:1052B0000399A1F86A00ADF80400FFE7BDF9040006
:1052C000092813DCFFE7DDF808C00399088FBDF952
:1052D0000420531C00FB03C001EB82010864FFE7BC
:1052E000BDF804000130ADF80400E7E7039847F685
:1052F0002C31C0F60001016747F68C40C0F6000073
:10530000401A00090399A1F874000398FEF784FF7E
:1053100003980090026F47F63B11C0F6000100238E
:1053200000F0DEFB0146009800F044FC03980121E8
:1053300001F080F904B080BD80B588B007908DF889
:105340001B100799088A098F0139884211DBFFE792
:10535000079840F20801C2F20001496801F004FA1E
:105360000798012101F066F90798416901F0FCF9FD
:10537000A8E00799488A098A884229D1FFE79DF861
:105380001B00DDF81CC0DCF81410BCF81020531C06
:10539000ACF81030885407984169028A002088547C
:1053A0000799488A013048820798049090F878005D
:1053B000C00720B1FFE79DF81B00039002E02A2000
:1053C0000390FFE704980399C9B201F087F879E0E8
:1053D0000799488A098A884273DAFFE70799088A99
:1053E000498A401AADF81800FFE7BDF918000128F6
:1053F00011DBFFE707984169408ABDF91820024494
:10540000881810F8010C8854FFE7BDF8180001381F
:10541000ADF81800E9E79DF81B00DDF81CC0DCF8CA
:105420001410BCF81220531CACF812308854079AA0
:105430005169108A0130108282B200208854079886
:10544000408A0138ADF81600FFE7BDF9160007994C
:10545000098A88421DDAFFE70798029090F87800E1
:10546000C00738B1FFE707984069BDF91610405CE6
:10547000019002E02A200190FFE702980199C9B249
:1054800001F02CF8FFE7BDF816000130ADF816006A
:10549000DBE70799088A498A401AADF81400FFE74C
:1054A000BDF9140001280BDBFFE70798082101F084
:1054B00015F8FFE7BDF814000138ADF81400EFE768
:1054C000FFE7FFE708B080BD80B582B0FFF77EFC44
:1054D0000190019820B1FFE7019800F019F9FFE76A
:1054E00002B080BD80B582B001900198408A012849
:1054F00009DBFFE70198082100F0F0FF0199488AD5
:1055000001384882FFE702B080BD000080B582B05C
:105510000190019800F002F802B080BD80B584B01F
:1055200003900398006F0290039840F20801C2F2C2
:105530000001896801F018F90020ADF80600FFE7C6
:10554000BDF906000399B1F87410884225DAFFE727
:105550000298BDF9061000EB0110407800F00F0032
:10556000012813DCFFE703980299BDF9062001EB3F
:105570000211FEF7AFFE48B9FFE703980299BDF9A3
:10558000062001EB021100F00BF8FFE7FFE7BDF882
:1055900006000130ADF80600D2E704B080BD00007F
:1055A00080B586B005900491059802900498FFF7A5
:1055B000C1FB0146029801F0D7F8C0F11600ADF822
:1055C0000E00BDF90E00012804DBFFE7BDF90E0057
:1055D000019002E004200190FFE70198ADF80E0071
:1055E000FFE70598202100F079FFFFE7BDF80E00E6
:1055F0000138ADF80E0000040028F2D1FFE704984E
:10560000407800F00F00012809DCFFE7059840F220
:105610000801C2F20001096C01F0A6F83BE0049811
:10562000407800F00F00072809DCFFE7059840F2FA
:105630000801C2F20001496C01F096F82AE00498D2
:10564000407800F00F00082809DCFFE7059840F2D9
:105650000801C2F20001896C01F086F819E0049893
:10566000407800F00F00092809DCFFE7059840F2B8
:105670000801C2F20001C96C01F076F808E0059853
:1056800040F20801C2F20001096D01F06DF8FFE778
:10569000FFE7FFE7FFE7059847F6C401C0F6000102
:1056A00001F062F807208DF80D00FFE79DF90D006D
:1056B000002814D4FFE70598049909789DF90D2076
:1056C000D140CA072D21002A18BF782100F006FF1B
:1056D000FFE79DF80D0001388DF80D00E6E705980D
:1056E00047F6C401C0F6000101F03EF805980090AD
:1056F0000498FFF7F5FA0146009800F0FDFE0598C2
:1057000047F6BB01C0F6000101F02EF806B080BDDF
:1057100080B584B003900398006F0290039840F224
:105720000801C2F20001496901F01EF80020ADF83D
:105730000600FFE7BDF906000399B1F8741088422E
:1057400030DAFFE70298BDF9061000EB011040784F
:1057500000F00F0009281EDBFFE70298BDF90610D4
:1057600000EB0110407800F00F00092813DCFFE780
:1057700003980299BDF9062001EB0211FEF7AAFD7C
:1057800048B9FFE703980299BDF9062001EB021121
:10579000FFF706FFFFE7FFE7BDF806000130ADF8B1
:1057A0000600C7E704B080BD80B584B003900398BD
:1057B000006F0290039840F20801C2F200010969EB
:1057C00000F0D2FF0020ADF80600FFE7BDF90600AB
:1057D0000399B1F87410884230DAFFE70298BDF9F6
:1057E000061000EB0110407800F00F0008281EDBC7
:1057F000FFE70298BDF9061000EB0110407800F0B9
:105800000F00082813DCFFE703980299BDF9062072
:1058100001EB0211FEF75EFD48B9FFE7039802991C
:10582000BDF9062001EB0211FFF7BAFEFFE7FFE723
:10583000BDF806000130ADF80600C7E704B080BD32
:1058400080B584B003900398006F0290039840F2F3
:105850000801C2F20001C96800F086FF0020ADF81F
:105860000600FFE7BDF906000399B1F874108842FD
:1058700030DAFFE70298BDF9061000EB011040781E
:1058800000F00F0002281EDBFFE70298BDF90610AA
:1058900000EB0110407800F00F00072813DCFFE751
:1058A00003980299BDF9062001EB0211FEF712FDE3
:1058B00048B9FFE703980299BDF9062001EB0211F0
:1058C000FFF76EFEFFE7FFE7BDF806000130ADF819
:1058D0000600C7E704B080BD80B582B001908DF8A6
:1058E0000310019991F8780000F0FB0081F878002E
:1058F00001989DF80310FFF71FFD02B080BD000066
:1059000080B582B00190019A5069118A1832EC4634
:105910000823CCF80030202300F0C2FA0199488710
:1059200002B080BD80B582B001900020ADF80000CB
:10593000FFE7BDF800000199498F884247DAFFE789
:105940000198BDF8001000EB8100806900782228E2
:1059500011D1FFE70198BDF8001000EB81008169CB
:10596000002008700198BDF8001000EB81018869E3
:1059700001308861FFE70198BDF8001000EB81005D
:105980008069FAF774FCADF802000198BDF80010C8
:1059900000EB81008169BDF80200084410F8010C99
:1059A00022280DD1FFE70198BDF8001000EB81001F
:1059B0008169BDF802000144002001F8010CFFE7F5
:1059C000FFE7BDF800000130ADF80000B1E702B01C
:1059D00080BD000080B582B001900199488A098A93
:1059E000884209DAFFE701984169428A531C4382E1
:1059F000895C00F073FDFFE702B080BD80B584B024
:105A00000390029100200190039991F8780040F0F2
:105A1000020081F87800029840780007C0B9FFE7DB
:105A20000398FFF77FFF029880680090009A03991F
:105A3000488F183190470190029840784009C0077C
:105A400028B9FFE70398019900F03EFEFFE73CE02C
:105A50000298407800F00F00012814D1FFE7039866
:105A60000299428F00F11803FFF73EF80190029867
:105A700040784009C00728B9FFE70398019900F072
:105A800023FEFFE720E00298407800F00F00022894
:105A90000CDBFFE70298407800F00F00072805DCD8
:105AA000FFE70398029900F087F90CE0029840782C
:105AB00000F00F00082805D1FFE70398029900F0D5
:105AC00079F8FFE7FFE7FFE7FFE7039991F8780030
:105AD00000F0FD0081F87800019804B080BD00005E
