:020000040800F2
:10000000A01F0020DD010008F1200008C51F000826
:10001000ED200008E9020008CD25000800000000DE
:10002000000000000000000000000000C5210008E2
:100030009D03000800000000F5200008C72100080B
:10004000F7010008F7010008F7010008F7010008B0
:10005000F7010008F7010008F7010008F7010008A0
:10006000F7010008F7010008F7010008F701000890
:10007000F7010008F7010008F7010008F701000880
:10008000F7010008F7010008F7010008F701000870
:10009000ED020008F7010008F7010008F701000869
:1000A000F7010008F7010008F7010008F701000850
:1000B000F7010008F7010008F7010008F701000840
:1000C000F7010008F7010008F7010008F701000830
:1000D000F7010008F7010008F7010008F701000820
:1000E000F7010008F7010008F7010008F701000810
:1000F000F7010008F7010008F7010008F701000800
:10010000F7010008F7010008F7010008F7010008EF
:10011000F7010008F7010008F7010008F7010008DF
:100120007D030008F7010008F70100088D030008AF
:10013000F70100080000000000000000F7010008BF
:10014000F7010008FD020008F7010008F7010008A8
:10015000F7010008F7010008F7010008F70100089F
:10016000F7010008F7010008F7010008F70100088F
:10017000F7010008F7010008F7010008000000007F
:1001800000000000F701000800000000000000006F
:10019000F70100080000000000000000F70100085F
:1001A000000000000000000000000000F70100084F
:1001B000F7010008F7010008F7010008F70100083F
:1001C000F7010008DFF810D000F07CF80048004785
:1001D00019280008AFF30080A01F002006488047C0
:1001E00006480047FEE7FEE7FEE7FEE7FEE7FEE71C
:1001F000FEE7FEE7FEE7FEE78D220008C5010008E6
:100200002DE9F05F0546002092469B46884606464B
:10021000814640241BE0284641464746224600F0DE
:1002200041F853465A46C01A914110D31146184618
:10023000224600F028F82D1A67EB01084F462246A7
:100240000120002100F01FF817EB00094E41201E8D
:10025000A4F10104DFDC484631462A464346BDE8A6
:10026000F09FD2B201E000F8012B491EFBD270478B
:100270000022F6E710B513460A4604461946FFF772
:10028000F0FF204610BD202A04DB203A00FA02F1DC
:10029000002070479140C2F1200320FA03F3194374
:1002A00090407047202A04DB203A21FA02F0002116
:1002B000704721FA02F3D040C2F120029140084376
:1002C00019467047064C074D06E0E06840F0010310
:1002D00094E8070098471034AC42F6D3FFF776FF56
:1002E000D0280008F028000800BFFEE710B502483B
:1002F00000F0CCFA10BD00003C00002010B5024810
:1003000000F0C4FA10BD00006400002070B586B093
:1003100005460C4616460020029003900490059076
:100320002069039020680290002004E0325C04A958
:100330000A54411CC8B221698142F7D80B49286888
:10034000884206D105980090094802A90EC901F01B
:10035000D2FE08492868884206D1059800900648D0
:1003600002A90EC901F0C7FE06B070BD00640040CE
:100370003402002000680040D40E002010B502486E
:1003800000F0DCFB10BD0000E400002010B50248C6
:1003900000F0D4FB10BD000044010020704772B68D
:1003A00000BFFEE710B5002201B909E0012901D123
:1003B0000A0205E0022901D10A0201E04FF440726D
:1003C0000E4B1B6823F440730C4C236023461B68C0
:1003D0001343236023461B6823F0F803236023465E
:1003E0001B68022444EAC0042343044C23602346D0
:1003F0001B6843F48033236010BD0000103C0240B2
:100400001C48006800F40070B0B11A48006820F47D
:1004100000701849086000BF0846006840F400609A
:1004200008600846006820F40060086000BF0846C5
:10043000006840F4007008600E48006800F48060B6
:10044000B0B10C48006820F480600A49086000BF21
:100450000846006840F4805008600846006820F4B0
:100460008050086000BF0846006840F48060086063
:1004700070470000003C02400A4A126822F44072B1
:10048000084B1A601A46126842F004021A601A46B3
:1004900012684FF4803343EA00231A43014B1A6079
:1004A00070470000103C0240074A126822F4407274
:1004B000054B1A601A4612681A601A46126842F012
:1004C00001021A6001707047103C024010B50A49E1
:1004D000096821F44071084C21602146096841F403
:1004E000407121602146096841F0010121600260EC
:1004F000BFF36F8F436010BD103C0240084A126882
:1005000022F44072064B1A601A46126842F4807256
:100510001A601A46126842F001021A6001807047A0
:10052000103C0240084A126822F44072064B1A60DE
:100530001A46126842F400721A601A46126842F0B3
:1005400001021A6001607047103C02402A480068AE
:1005500000F0100040B12948C06940F01000274960
:10056000C8611020244908602348006800F020007A
:1005700040B12248C06940F008002049C8612020ED
:100580001D4908601C48006800F0400040B11B484D
:10059000C06940F004001949C8614020164908604C
:1005A0001548006800F0800040B11448C06940F070
:1005B00002001249C86180200F4908600E48006897
:1005C00000F4807048B10D48C06940F001000B494B
:1005D000C8614FF48070084908600748006800F05F
:1005E000020040B10548C06940F020000349C861DD
:1005F00002200149086070470C3C024008000020BE
:1006000070B50446002500201449C86100F07AFD49
:10061000054609E0601C38B124B100F073FD401BB1
:10062000A04201D9032070BD0D48006800F480305D
:100630000028EFD10A48006800F0010010B1012045
:10064000074908600648006800F4F97018B1FFF720
:100650007DFF0120E7E70020E5E70000080000201B
:100660000C3C02402DE9F04105462C68B4F1005FD6
:1006700002D31948844201D3BDE8F081012001F082
:10068000E6FF00204FF0E02108614861886100F03A
:100690000DFF002008E04FF0FF32104941F8202004
:1006A0000F4941F82020401C0828F4DB002080F38B
:1006B0001488BFF36F8F00BFBFF36F8FBFF34F8FEF
:1006C0006E68374600BF84F3088800BF01F0BFFFA3
:1006D000B84700BFD0E700000000042080E100E040
:1006E00080E200E070B50446204600F002F80546BE
:1006F00070BD0146486A704770B5044694F82050B2
:10070000012D01D0022D7DD151B92068C06800F0C3
:10071000030080B9606A40F400106062012070BD7F
:100720002068006900F0030028B9606A40F40010F6
:1007300060620120F3E7206800F5D87000EB01103B
:10074000006800F004009060906840B9206800F5EF
:10075000D87000EB01100068400D106007E02068C1
:1007600000F5D87000EB01100068C00850602068E8
:1007700000F5D87000EB0110006800F00200D060B6
:10078000206800F5D87000EB0110406800F00F0001
:10079000082802D30820106108E0206800F5D8700E
:1007A00000EB0110406800F00F001061206800F5B8
:1007B000D87000EB0110406800F47F40000A90619F
:1007C000206800F5D87000EB01104068000C506103
:1007D000206800F5D87000EB011080681870206860
:1007E00000F5D87000EB0110806800F47F40000A2B
:1007F0005870206800F5D87000EB0110806800F494
:100800007F0000E03CE0000C9870206800F5D87094
:1008100000EB01108068000ED870206800F5D870D9
:1008200000EB0110C0681871206800F5D87000EB6B
:100830000110C06800F47F40000A5871206800F57C
:10084000D87000EB0110C06800F47F00000C9871B4
:10085000206800F5D87000EB0110C068000ED87158
:1008600031B92068C06840F020002668F06005E0DB
:100870002068006940F020002668306100204EE7C3
:10088000606A40F480206062012048E72DE9F05F53
:1008900004460025206846692068D0F80490206846
:1008A00087682068D0F80CA02068D0F810B02068C5
:1008B000D0F8188006F00100002855D007F001009C
:1008C000C0B101202168886007F0020018B12046FD
:1008D00000F02DF90EE007F0040010B145F40065BA
:1008E00008E007F0080010B145F4805502E020460A
:1008F00000F01CF907F48070C8B14FF480702168D3
:10090000886007F4007018B1204600F012F90EE07C
:1009100007F4806010B145F4005508E007F400606A
:1009200010B145F4804502E0204600F001F907F4DB
:100930008030C8B14FF480302168886007F40030FF
:1009400018B1204600F0F7F80EE007F4802010B14F
:1009500045F4004508E007F4002010B145F4803567
:1009600002E0204600F0E6F806F0080038B10AF090
:10097000100020B145F4007510202168C86006F011
:10098000040040B10AF0080028B108202168C860BE
:10099000204600F0A2F806F0020038B12068C068D6
:1009A00000F0030010B1204600F098F806F0400077
:1009B00038B10BF0100020B145F48065102021689B
:1009C000086106F0200040B10BF0080028B10820B3
:1009D00021680861204600F094F806F0100038B154
:1009E0002068006900F0030010B1204600F08AF88A
:1009F00006F4003040B109F0100028B11020216841
:100A00004860204600F091F806F4803040B109F0CB
:100A1000080028B1082021684860204600F08CF8C2
:100A200006F4004088B309F0040078B306F480703F
:100A300020B108F0010008B145F0010506F400708E
:100A400020B108F0020008B145F0020506F480600C
:100A500020B108F0040008B145F0040506F4006078
:100A6000A0B108F0700088B108F07000402817D0DD
:100A700006DC10280BD020280CD0302819D10CE02F
:100A8000502810D0602814D110E01DE019E045F086
:100A900008050FE045F010050CE045F0200509E0E1
:100AA00045F0400506E045F0800503E045F480751B
:100AB00000E000BF00BF2068806920F0700021685E
:100AC00088610420216848602DB1606A2843606213
:100AD0002046FFF707FEBDE8F09F704710B58AB0CB
:100AE000044601AB03AA00212046FFF705FE08B12A
:100AF0000AB010BD01AA03A92046FFF707FC00BFFA
:100B0000F6E7704710B58AB0044608AB01AA012188
:100B10002046FFF7F1FD08B10AB010BD08AA01A9EF
:100B20002046FFF7F3FB00BFF6E7704770477047BA
:100B3000704770477047704770470000F8B504462B
:100B4000002000908C4800684FF41651B0FBF1F77C
:100B5000A56D2E6894F85C1008208840304098B14C
:100B60002068006800F0040070B12068006820F080
:100B700004002168086094F85C1008208840A86090
:100B8000606D40F00100606594F85C1001208840C1
:100B9000304068B12068406900F0800040B194F8AE
:100BA0005C1001208840A860606D40F00200606524
:100BB00094F85C1004208840304068B120680068D8
:100BC00000F0020040B194F85C1004208840A86056
:100BD000606D40F00400606594F85C10102088405F
:100BE000304078B32068006800F0080050B394F8F3
:100BF0005C1010208840A8602068006800F4802005
:100C000080B12068006800F4002028B9206CC8B1C9
:100C10002046216C884715E0A06C98B12046A16C55
:100C200088470FE02068006800F4807028B92068C9
:100C3000006820F0080021680860206C10B1204690
:100C4000216C884794F85C102020884030400028B0
:100C500065D02068006800F0100000285FD094F88C
:100C60005C1020208840A86094F83500052828D121
:100C70002068006820F0160021680860206840693C
:100C800020F0800021684861206C08B9A06C28B170
:100C90002068006820F008002168086094F85C1063
:100CA0003F208840A860012084F8350000BF002064
:100CB00084F8340000BF206D10B12046216D8847B4
:100CC000F8BD2068006800F4802080B120680068CA
:100CD00000F4002028B9606C10B12046616C884790
:100CE0001DE0E06BD8B12046E16B884717E0206833
:100CF000006800F4807068B92068006820F0100077
:100D000021680860012084F8350000BF002084F8C5
:100D1000340000BFE06B10B12046E16B8847606D86
:100D200038B3606D00F00100F0B1052084F83500A3
:100D30002068006820F001002168086000BF00986A
:100D4000401C0090B84200D905E02068006800F01F
:100D500001000028F3D100BF012084F8350000BF56
:100D6000002084F8340000BFE06C10B12046E16C34
:100D7000884700BFA4E70000340000202DE9F041BF
:100D800004460F46002600BF2548007E012802D1F8
:100D90000220BDE8F08101202149087600BF4CF215
:100DA0005030FFF72DFC0546002D31D1401E386034
:100DB000206801280FD1207C6168FFF75DFB4CF2B1
:100DC0005030FFF71DFC05461648006820F004006F
:100DD000144908601AE0A66812E0217C3046FFF74B
:100DE000E1FA4CF25030FFF70BFC05460D48006865
:100DF00020F0FA000B4908600DB13E6005E0761C5A
:100E0000D4E902100844B042E7D800BFFFF7F8FA6F
:100E100000BF00200249087600BF2846B9E700005D
:100E200008000020103C02400348006840F00040E9
:100E30000149086000207047103C02402DE9F04154
:100E40000646884614461D4600BF1E48007E0128FF
:100E500002D10220BDE8F08101201A49087600BFC6
:100E60004CF25030FFF7CCFB07461FBB26B9E1B26E
:100E70004046FFF719FB12E0012E04D1A1B2404613
:100E8000FFF73CFB0BE0022E04D121464046FFF762
:100E900049FB04E022462B464046FFF717FB4CF285
:100EA0005030FFF7ADFB07460748006820F001000F
:100EB0000549086000BF00200249087600BF384697
:100EC000C8E7000008000020103C0240002009494B
:100ED000096801F0004159B10749064A0C3A11600E
:100EE000064911600349096801F0004101B1012080
:100EF00070470000103C024023016745AB89EFCDED
:100F0000F8B502460B460025002400200021D1E060
:100F1000012606FA01F51E6806EA0504AC4274D102
:100F20001E7906F00306012E04D01E7906F0030692
:100F3000022E13D190684F000326BE40B0434F00ED
:100F4000DE68BE4030439060506801268E40B0435A
:100F50001E79C6F300168E40304350601E7906F0AD
:100F60000306032E09D0D0684F000326BE40B043CD
:100F70004F009E68BE403043D0601E7906F00306E5
:100F8000022E13D1CF0802F1200656F827004E0793
:100F9000F70E0F26BE40B0434F07FF0E1E69BE403E
:100FA0003043CF0802F1200646F8270010684F00B2
:100FB0000326BE40B0431E7906F003064F00BE4034
:100FC000304310605E6806F44036002E71D000BFDA
:100FD00000260096394E366846F48046374F3E600C
:100FE0003E46366806F48046009600BF00BF344E89
:100FF0008F0856F827008E07370F0F26BE40B043E4
:10100000304EB24202D100261FE052E02E4EB242D4
:1010100001D1012619E02D4EB24201D1022614E081
:101020002B4EB24201D103260FE02A4EB24201D12B
:1010300004260AE0284EB24201D1052605E0274EDB
:10104000B24201D1062600E007268F073F0FBE40BF
:1010500030431B4E8F0846F82700214E3068A043CE
:101060005E6806F4801606B120431D4E3060361DC2
:101070003068A0435E6806F4001606B12043184E9F
:10108000361D3060164E361F3068A0435E6806F489
:10109000003606B12043124E361F3060361F3068CE
:1010A000A0435E6806F4803606B120430C4E083E2D
:1010B0003060491C1029FFF42BAFF8BD44380240C2
:1010C00008380140000002400004024000080240CD
:1010D000000C0240001002400014024000180240C0
:1010E000083C014010B5426921EA020302EA01040A
:1010F00043EA0443836110BD0AB1816101E00B043E
:101100008361704701480068704700002800002094
:10111000034800680349097808440149086070479A
:10112000280000203000002010B50D48006840F471
:1011300000700B4908600846006840F48060086051
:101140000846006840F480700860032000F092F8C0
:101150000F2000F007F800F02BF8002010BD000071
:10116000003C024070B504460E4800784FF47A7196
:10117000B1FBF0F00C490968B1FBF0F5284600F02E
:1011800077FD08B1012070BD102C07D20022214646
:10119000501E00F031F80548046001E00120F2E73C
:1011A0000020F0E730000020340000202C00002058
:1011B00008B500BF002000900E48006840F4804051
:1011C0000C4908600846006800F48040009000BFA9
:1011D00000BF00BF00200090081F006840F0805052
:1011E000091F08600846006800F08050009000BFAA
:1011F00000BF08BD443802402DE9F05F80460D462F
:101200001646002701F0E4F9074639462A463346D8
:1012100001F00700C0F1070ABAF1040F02D94FF03C
:10122000040A01E0C0F1070AD14600F1040ABAF14C
:10123000070F02D24FF0000A01E0A0F1030AD446E2
:101240004FF0010A0AFA09FAAAF1010A0AEA020AA7
:101250000AFA0CFA4FF0010B0BFA0CFBABF1010B85
:101260000BEA030B4AEA0B042146404601F0B8F9A9
:10127000BDE8F09F00BF00F00702064B19684FF66B
:10128000FF031940044B0B4343EA0221014B196051
:1012900000BF70470CED00E00000FA0538B50024EF
:1012A00000BF002000901D48006840F080501B499E
:1012B00008600846006800F08050009000BF00BF42
:1012C000012017490864FFF71DFF044607E0FFF7F8
:1012D00019FF001BB0F57A7F01D9032038BD1148F2
:1012E000406800F48030B0F5803FF0D101200C4917
:1012F0004864FFF707FF044607E0FFF703FF001B02
:10130000B0F57A7F01D90320E8E70648406800F489
:101310000030B0F5003FF0D10020DFE74038024058
:1013200000000E420070004070B504460D460CB936
:10133000012070BD5848006800F00F00A84209D293
:1013400055490D700846006800F00F00A84201D012
:101350000120EEE7207800F0020002281DD120785D
:1013600000F00400042805D14C48006840F4E05027
:101370004A490860207800F00800082805D147484D
:10138000006840F46040454908604448006820F027
:10139000F000A168084341490860207800F001008E
:1013A000A8B36068012807D13C4808380068C0F33A
:1013B0004040B8B90120BCE76068022802D06068EC
:1013C000032807D1354808380068C0F3406048B9A1
:1013D0000120AEE7314808380068C0F3400008B982
:1013E0000120A6E72D48006820F00300616808434B
:1013F0002A490860FFF786FE064609E0FFF782FEED
:10140000801B41F28831884202D9032091E707E02E
:101410002248006800F00C006168B0EB810FEDD14C
:101420001D48006800F00F00A84209D91A490D7044
:101430000846006800F00F00A84201D0012078E7BC
:10144000207800F00400042807D11448006820F434
:10145000E050E168084311490860207800F0080076
:10146000082808D10D48006820F46040216940EA4E
:10147000C1000A49086000F0FBF808490968C1F397
:101480000311074A515CC8400649086006480068D5
:10149000FFF768FE00204CE7003C0240083802409D
:1014A000B8280008340000202C00002010B5FFF7F9
:1014B00029FE04466848006840F00100664908605B
:1014C00006E0FFF71FFE001B022801D9032010BD14
:1014D0006148006800F002000028F2D05E48006811
:1014E00040F080005C490860FFF70CFE04460020D5
:1014F00059490831086008E0FFF704FE001B41F27B
:101500008831884201D90320E1E753480830006858
:1015100000F00C000028EFD1FFF7F4FD04464E4820
:10152000006820F450204C49086006E0FFF7EAFD0F
:10153000001B642801D90320C9E74748006800F46C
:1015400000300028F2D1FFF7DDFD04464248006874
:1015500020F080704049086006E0FFF7D3FD001BD3
:10156000022801D90320B2E73B48006800F0007070
:101570000028F2D1FFF7C6FD04463748006820F086
:1015800080603549086006E0FFF7BCFD001B0228BB
:1015900001D903209BE73048006800F00060002874
:1015A000F2D1FFF7AFFD04462B48006820F08050D1
:1015B0002949086006E0FFF7A5FD001B022801D9B4
:1015C000032084E72448006800F000500028F2D18E
:1015D00022482149091D08601F49843108602048BC
:1015E000091D08601C480C30006820F4F8501A49A6
:1015F0000C3108600846006820F400500860084676
:10160000006820F4804008600846006840F41F002D
:1016100008600846006840F400100860084600684A
:1016200040F4800008600C487430006820F001002D
:101630000949743108600846006840F0807008600D
:1016400008480949086009480068FFF78BFD08B1A0
:1016500001203CE700203AE7003802401030002427
:10166000103000040024F400340000202C0000207E
:101670002DE9F047002400250026A146A2463F4858
:10168000006800F00C0030B1042807D0082808D00A
:101690000C286BD138E0DFF8E8A06AE0DFF8E4A0BE
:1016A00067E03648001F006800F03F043348001F21
:1016B000006800F4800078B132483049091F096899
:1016C000C1F38811A0FB0170014622460023384671
:1016D000FEF796FD05460DE029482849091F0968CF
:1016E000C1F38811A0FB0171224600233846FEF7A2
:1016F00087FD05462148001F0068C0F30140401CDB
:101700004600B5FBF6FA34E01C48001F006800F004
:101710003F041A48001F006800F4800078B119489F
:101720001649091F0968C1F38811A0FB0170014621
:10173000224600233846FEF763FD05460EE01048BA
:101740000E49091F0968C1F38811A0FB0170014609
:10175000224600233846FEF753FD05460748001F82
:101760000068C0F30279B5FBF9FA02E0DFF810A0D7
:1017700000BF00BF5046BDE8F087000008380240B7
:101780000024F40000127A00F8B504460CB90120D8
:10179000F8BD207800F0010000286FD0FE480068F6
:1017A00000F00C0004281BD0FB48006800F00C007F
:1017B000082807D1F848001F006800F48000B0F541
:1017C000800F0DD0F448006800F00C000C2813D1F5
:1017D000F148001F006800F48000B0F5800F0BD1C5
:1017E000ED4808380068C0F34040002859D06068D0
:1017F000002856D10120CBE700BF6068B0F5803FDC
:1018000008D1E5480838006840F48030E2490839DA
:1018100008601EE06068B0F5A02F0DD1DE480838E2
:10182000006840F48020DC490839086008460068F8
:1018300040F4803008600CE0D7480838006820F495
:101840008030D549083908600846006820F48020B7
:10185000086000BF606890B1FFF754FC054606E0E1
:10186000FFF750FC401B642801D9032090E7CA48C9
:1018700008380068C0F340400028F1D011E0FFF7BD
:1018800041FC054606E0FFF73DFC401B642801D9FA
:1018900003207DE7C04808380068C0F340400028B6
:1018A000F1D1207800F0020002286BD1BA4800681C
:1018B00000F00C00B8B1B848006800F00C0008282F
:1018C00005D1B548001F006800F4800058B1B24847
:1018D000006800F00C000C281CD1AF48001F006805
:1018E00000F48000B0B9AC4808380068C0F340008C
:1018F00020B1E068012801D0012049E7A648083856
:10190000006820F0F800216940EAC100A2490839C6
:10191000086037E0E06800B30120A0490860FFF7E5
:10192000F1FB054606E0FFF7EDFB401B022801D95D
:1019300003202DE7984808380068C0F340000028CD
:10194000F1D095480838006820F0F800216940EA95
:10195000C10091490839086014E000208F490860EF
:10196000FFF7D0FB054606E0FFF7CCFB401B022843
:1019700001D903200CE7884808380068C0F340000C
:101980000028F1D1207800F0080008282CD16069E7
:10199000A8B1012082490860FFF7B4FB054606E0C4
:1019A000FFF7B0FB401B022801D90320F0E67A487C
:1019B0006C300068C0F340000028F1D014E0002033
:1019C00077490860FFF79EFB054606E0FFF79AFBA4
:1019D000401B022801D90320DAE66F486C3000680A
:1019E000C0F340000028F1D1207800F00400042862
:1019F00070D1002768483830006800F0805090B9F6
:101A000000BF0020009064483830006840F08050EB
:101A10006149383108600846006800F08050009045
:101A200000BF00BF01275F48006800F48070B0B9B4
:101A30005C48006840F480705A490860FFF762FB18
:101A4000054606E0FFF75EFB401B022801D9032094
:101A50009EE65448006800F480700028F2D000BF71
:101A6000A068012808D14C486830006840F00100A7
:101A70004949683108601DE0A06805280DD1464835
:101A80006830006840F00400434968310860084647
:101A9000006840F0010008600CE03F4868300068D2
:101AA00020F001003C49683108600846006820F0D9
:101AB0000400086000BFA068A8B1FFF723FB05463B
:101AC00009E0FFF71FFB401B41F28831884202D931
:101AD00003205DE626E0304868300068C0F340002F
:101AE0000028EED013E0FFF70DFB054608E0FFF7F6
:101AF00009FB401B41F28831884201D9032047E6A7
:101B0000254868300068C0F340000028EFD1012F5D
:101B100007D121483830006820F080501E49383104
:101B2000086000BFA069002851D01B48006800F081
:101B30000C00082861D0A069022849D1002017496B
:101B40000866FFF7DFFA054606E0FFF7DBFA401B01
:101B5000022801D903201BE60F4808380068C0F3AB
:101B600040600028F1D1D4E907010843616A40EAE6
:101B700081110122A06AC2EB500041EA00412C20F1
:101B8000005D41EA00613020005D41EA00700249D9
:101B9000091F0860012007E00838024000004742A2
:101BA000800E4742007000402F490866FFF7AAFAEE
:101BB000054606E0FFF7A6FA401B022801D90320DC
:101BC000E6E52A480068C0F340600028F2D048E00B
:101BD000002025490866FFF795FA054606E0FFF75D
:101BE00091FA401B022801D90320D1E51F48006863
:101BF000C0F340600028F2D133E0A069012800D191
:101C0000C6E51A48001D0668A069012827D006F419
:101C10008001E069814222D106F03F01206A8142C1
:101C20001DD147F6C0703040616AB0EB811F16D1FC
:101C300006F440310122A06AC2EB5000B1EB004F24
:101C40000DD106F070612C20005DB1EB006F06D164
:101C500006F0E0413020005DB1EB007F01D00120B3
:101C600096E5002094E5000000004742003802405D
:101C700070B504462546681EB0F1807F01D301206F
:101C80000FE0681E4FF0E02148610F214FF0FF3058
:101C900000F0A6FC00204FF0E021886107200861D9
:101CA000002070BD30B502460B4600BF92F83C00E4
:101CB000012801D1022030BD012082F83C0000BF84
:101CC000022082F83D00106844681068816824F0A2
:101CD00070041868044310684460184D1068A842E6
:101CE0001BD01068B0F1804F17D0154D1068A84276
:101CF00013D0144D1068A8420FD0134D1068A8429D
:101D00000BD0124D1068A84207D0114D1068A842A0
:101D100003D0104D1068A84205D121F08001586809
:101D2000014310688160012082F83D0000BF00205F
:101D300082F83C0000BF00BFBDE70000000001408A
:101D40000004004000080040000C00400004014076
:101D5000004001400018004010B504460CB90120B5
:101D600010BD94F83D0028B9002084F83C002046BE
:101D700000F026F8022084F83D00211D206800F0C4
:101D800095FA012084F8460000BF84F83E00012146
:101D90003F200155402001554120015500BF00BFA3
:101DA000012084F84200432001554420015545207C
:101DB000015500BF012084F83D000020D0E700005D
:101DC00008B50168B1F1804F0FD100BF002100912B
:101DD0001049096841F001010E4A11601146096875
:101DE00001F00101009100BF13E00B4A016891422C
:101DF0000FD100BF002100910649096841F48071AC
:101E0000044A11601146096801F48071009100BF15
:101E100000BF08BD4038024000200040014691F854
:101E20003D00012801D001207047022081F83D00CB
:101E30001A4B086898421BD00868B0F1804F17D041
:101E4000174B0868984213D0164B086898420FD079
:101E5000154B086898420BD0144B0868984207D07D
:101E6000134B0868984203D0124B086898420CD173
:101E70000868806800F00702062A0CD0086800682D
:101E800040F001000B68186005E00868006840F049
:101E900001000B6818600020C6E700000000014048
:101EA0000004004000080040000C00400004014015
:101EB00000400140001800402DE9F04104460D4665
:101EC000002700BF94F83C00012802D10220BDE8A1
:101ED000F081012084F83C0000BF022084F83D001E
:101EE0002068866826F0770626F47F46206886609C
:101EF0002868502833D00CDC202850D004DC00287F
:101F00004BD0102851D149E0302849D040284CD13D
:101F100039E060282DD0702807D0B0F5805F03D05D
:101F2000B0F5005F41D10DE041E0D5E902136A68E8
:101F3000206800F02BFA2068866846F07706206853
:101F4000866034E0D5E902136A68206800F01EFA62
:101F50002068806840F480402168886027E0EA6853
:101F60006968206800F026FA5021206800F019FA0C
:101F70001DE0EA686968206800F02FFA6021206897
:101F800000F00FFA13E0EA686968206800F012FABE
:101F90004021206800F005FA09E000BF00BF00BF43
:101FA0002968206800F0FDF901E0012700BF00BFAB
:101FB000012084F83D0000BF002084F83C0000BFF1
:101FC000384684E700BFFEE700B587B0142102A8B9
:101FD000FEF74EF900BF002001902648006840F04F
:101FE0008000244908600846006800F080000190E5
:101FF00000BF00BF00BF002001900846006840F00D
:10200000010008600846006800F00100019000BF70
:1020100000BF00BF002001900846006840F00400A7
:1020200008600846006800F00400019000BF00BF8F
:1020300000BF002001900846006840F002000860E0
:102040000846006800F00200019000BF00BF0022B7
:1020500020210948FFF750F820200290012003902A
:10206000022004900020059002A90348FEF748FFD3
:1020700007B000BD303802400008024000B587B00C
:1020800000200390049005900690019002904FF07C
:10209000804015490860592048600021124881603D
:1020A000491EC160002101618161FFF755FE08B141
:1020B000FEF775F94FF48050039003A90A48FFF723
:1020C000FBFE08B1FEF76BF900200190029001A918
:1020D0000548FFF7E7FD08B1FEF761F90248FFF791
:1020E0009DFE07B000BD0000A401002000BFFEE778
:1020F00000BFFEE770470FB430B50446204600F03D
:1021000016F818B1002030BC5DF814FB6168E06877
:1021100000EB011004A92EC92EC06068401CA16804
:10212000B0FBF1F201FB120060600120EBE7014619
:102130004868401C8A68B0FBF2F302FB13000A688F
:10214000904201D1012070470020FCE7014615486C
:10215000814201D2002070471348814201D2012000
:10216000F9E71248814201D20220F4E71048814287
:1021700001D20320EFE70F48814201D20420EAE7B1
:102180000D48814201D20520E5E70C48814201D289
:102190000620E0E70A48814201D20720DBE7FF2062
:1021A000D9E70000004000080080000800C00008D7
:1021B00000000108000002080000040800000608F2
:1021C00000000808704710B5FEF7A2FF10BD000020
:1021D00000B593B0342106A8FEF74AF8142101A8EF
:1021E000FEF746F800BF002000902648006840F047
:1021F0008050244908600846006800F08050009034
:1022000000BF00BF00BF002000901F48006840F4DE
:1022100040401D4908600846006800F440400090B6
:1022200000BF00BF012006900004079002200C9020
:1022300041050D9104210E91B4210F9102211091BD
:102240001191129106A8FFF79FFA08B1FEF7A7F8BF
:10225000FFF724F808B1FEF7A2F80F200190032041
:102260000290002003904FF4A05004904FF480504F
:102270000590052101A8FFF757F808B1FEF78FF880
:1022800013B000BD403802400070004003480068B1
:1022900040F47000014908607047000088ED00E0DC
:1022A00001480068406A7047A401002010B5026828
:1022B0002B4B98420ED0B0F1804F0BD0294B984257
:1022C00008D0294B984205D0284B984202D0284B81
:1022D000984203D122F070024B681A43204B984277
:1022E00020D0B0F1804F1DD01E4B98421AD01E4B0B
:1022F000984217D01D4B984214D01D4B984211D0D4
:102300001C4B98420ED01C4B98420BD01B4B984252
:1023100008D01B4B984205D01A4B984202D01A4B5A
:10232000984203D122F44072CB681A4322F0800312
:102330004C6943EA04028B68C3620B688362084BF2
:10234000984202D00A4B984201D10B69036303689B
:1023500043F00403036001234361026010BD0000E9
:10236000000001400004004000080040000C004054
:102370000004014000400140004401400048014089
:1023800000180040001C00400020004030B50C4602
:10239000816821F47F4142EA032525432943816076
:1023A00030BD0A46816821F0700142F007031943ED
:1023B0008160704730B50B461446026A056A25F005
:1023C00001050562816921F0F00141EA041122F062
:1023D0000A021A438161026230BD30B50B461446D1
:1023E000026A056A25F010050562816921F47041D1
:1023F00041EA043122F0A00242EA03128161026242
:1024000030BD2DE9D04390B081460E461746984620
:10241000102440216846FDF72BFF224669464846B6
:1024200000F088F9484600F03DF9002006E056F833
:10243000201008EB00024DF82210401CB842F6D3E1
:1024400022466946484600F081F910B0BDE8D083C5
:1024500030B500240A4D0B488068B0F5503F01D9D3
:10246000002030BD07488168284600F0B7F90446CF
:1024700004484068A04201D10120F2E70020F0E7C3
:10248000000004088C1B00202DE9F04100240F4DB2
:102490000F4E10488068C01C87080321284600F0B2
:1024A000D9F83A463146284600F050F90948816883
:1024B000284600F093F9044606484068A04202D13D
:1024C0000120BDE8F0810020FBE7000000C000080B
:1024D000000004088C1B0020074800680749884258
:1024E00001D101207047044800680549884201D1A4
:1024F0000120F7E70420F5E78C1B00205A5A50A072
:102500005A5A5AAA08B50020009023480078042897
:1025100003D122482249086008BD1F48007830B125
:10252000012809D002281AD0032832D12CE0FFF765
:10253000D3FF194908702CE0FFF78AFF58B11948FA
:1025400000900220144908700023012269461648B1
:10255000FFF757FF02E004200F49087019E0FFF76A
:1025600093FF28B11148009003200B49087004E044
:102570000F48009004200849087000230122694692
:102580000948FFF73EFF04E0012000F060F800F08A
:102590003BF800BF00BFBFE73800002080380100D3
:1025A000000000205A5A50A000800008AA55AA55E1
:1025B000AA55AABB10B505220249034800F0BAF893
:1025C00010BD00008C1B00200080000800BFFEE74B
:1025D00002480068C0F30220704700000CED00E0E4
:1025E00010B5002804DB0A07130E054A135406E051
:1025F0000A07140E034A00F00F031B1FD45410BD2A
:1026000000E400E018ED00E0BFF34F8F06480068DB
:1026100000F4E06005490843001D03490860BFF36A
:102620004F8F00BF00BFFDE70CED00E00000FA0592
:1026300002E008C8121F08C1002AFAD1704770478B
:10264000002001E001C1121F002AFBD1704780F376
:1026500010887047F0B587B006460D4615B90020C2
:1026600007B0F0BD3046FFF771FD0446FF2C01D1E5
:102670000120F5E76019082801DD0120F0E70020BE
:10268000019002900220069004940595FEF71EFC2E
:1026900001A902A8FEF772FB0746FEF7C5FB384604
:1026A000DEE7000070B586B00446B4F1006F17D0C5
:1026B0001948844214D01948844211D018488442E1
:1026C0000ED0184884420BD01748844208D01748CF
:1026D000844205D01648844202D0012006B070BD65
:1026E0002046FFF733FD0546FF2D01D10120F5E718
:1026F0000020009001900220059003950120049095
:10270000FEF7E4FB694601A8FEF738FB0646FEF734
:102710008BFB3046E2E70000004000080080000824
:1027200000C00008000001080000020800000408C2
:102730000000060810B50B46002104E0046843F8C9
:102740002140001D491C9142F8D310BD2DE9F041F4
:1027500005460F46904605F0030010B10120BDE884
:10276000F081B5F1006F01D20120F8E70026FEF7F5
:10277000ADFB00240CE057F824C005EB8401624651
:1027800000230220FEF75AFB064606B102E0641C55
:102790004445F0D300BFFEF747FB3046DFE700B506
:1027A0000146087A08B9487A00BDFFF779FD02466C
:1027B0000868131A4868984203D80020087201205C
:1027C000F2E70020F0E700B50246FFF769FD106070
:1027D0005160012010720020507200BD70B5024699
:1027E0000B464FF0FF310B4D00200FE0145C6140B1
:1027F000002408E001F001061EB1064E86EA5101F0
:1028000000E04908641C082CF4DB401C9842EDD31E
:10281000C84370BD2083B8EDFEF786FCFFF7D8FCF7
:10282000FFF7D2FBFFF72AFC01221B491B48FFF7E9
:1028300081FF19480068401C90B11748006878B1C2
:1028400015480068164988420AD01348006815499F
:10285000884205D01048006811495531884202D19C
:102860001148FDF7FFFEFFF7A5FE1048016810486C
:10287000FFF7A9FF0EE0FFF745FE0D48FFF78FFFBA
:1028800040B10A4801680A48FFF79DFF2021094826
:10289000FEF728FCEFE7000004000020008000089D
:1028A00000AA50A0AA55AA5500C0000800000020A8
:1028B000741B00200008024000000000000000001F
:1028C00001020304060708090000000001020304D6
:1028D000F0280008000000203C000000302600081E
:1028E0002C2900083C000020641F0000402600083E
:1028F000E093040000000000000000000000000061
:1029000000000000000000000100000000000000C6
:1029100000000000000000000000000010000000A7
:0C292000010000000024F4000000000092
:04000005080001C529
:00000001FF
