:020000040800F2
:1000000020070020D90100089F1E0008451C000899
:100010009D1E000809030008F122000800000000EE
:100020000000000000000000000000002D2100087A
:100030002304000800000000A11E00082F21000872
:10004000F3010008F3010008F3010008F3010008C0
:10005000F3010008F3010008F3010008F3010008B0
:10006000F3010008F3010008F3010008F3010008A0
:10007000F3010008F3010008F3010008F301000890
:10008000F3010008F3010008F3010008F301000880
:100090000D030008F3010008F3010008F301000854
:1000A000F3010008F3010008F3010008F301000860
:1000B000F3010008F3010008F3010008F301000850
:1000C000F3010008F3010008F3010008F301000840
:1000D000F3010008F3010008F3010008F301000830
:1000E000F3010008F3010008F3010008F301000820
:1000F000F3010008F3010008F3010008F301000810
:10010000F3010008F3010008F3010008F3010008FF
:10011000F3010008F3010008F3010008F3010008EF
:1001200045030008F3010008F3010008510300082B
:10013000F30100080000000000000000F3010008C7
:10014000F301000819030008F3010008F301000897
:10015000F3010008F3010008F3010008F3010008AF
:10016000F3010008F3010008F3010008F30100089F
:10017000F3010008F3010008F3010008000000008B
:1001800000000000F3010008000000000000000073
:10019000F30100080000000000000000F301000867
:1001A000000000000000000000000000F301000853
:1001B000F3010008F3010008F3010008F30100084F
:1001C000F3010008DFF80CD000F08CF8004800477D
:1001D000D92300082007002006488047064800472A
:1001E000FEE7FEE7FEE7FEE7FEE7FEE7FEE7FEE7E7
:1001F000FEE7FEE7D5210008C50100082DE9F05F04
:100200000546002092469B46884606468146402485
:100210001BE0284641464746224600F053F8534625
:100220005A46C01A914110D311461846224600F092
:100230003AF82D1A67EB01084F46224601200021AB
:1002400000F031F817EB00094E41201EA4F1010423
:10025000DFDC484631462A464346BDE8F09F40EA87
:1002600001039B0703D009E008C9121F08C0042A34
:10027000FAD203E011F8013B00F8013B521EF9D21B
:100280007047D2B201E000F8012B491EFBD2704743
:100290000022F6E710B513460A4604461946FFF752
:1002A000F0FF204610BD202A04DB203A00FA02F1BC
:1002B000002070479140C2F1200320FA03F3194354
:1002C00090407047202A04DB203A21FA02F00021F6
:1002D000704721FA02F3D040C2F120029140084356
:1002E00019467047064C074D06E0E06840F00103F0
:1002F00094E8070098471034AC42F6D3FFF766FF46
:100300002424000844240008FEE70000014800F00F
:10031000FFB900001C000020014800F0F9B90000FE
:100320004400002000B587B0009100210291CDE982
:1003300003138DF8141006AB694600F087F807B078
:1003400000BD0000014800F087BC0000C400002090
:10035000014800F081BC000024010020016818233E
:10036000CAB2103AB2FBF3F2054B6FF30901032A4C
:100370009B5CC36500D9091D816508467047000074
:100380000224000810B5014600208B698A6A4FF0EC
:10039000C07453B1B3F5005F15D072B1012A0CD00F
:1003A000022A0AD0032A09D104E01AB1012A06D090
:1003B000022A03D1C96AC90100D5012010BDC96A4A
:1003C000A142FAD010BD002AF7D0012AF2D0022AA9
:1003D000F3D0032AF3D010BD30B50468256825F4A6
:1003E00080252560046863608368402B036803D020
:1003F00099600068C26030BD9A600068C16030BD1D
:1004000010B5CB17002201EB93718C10114603E05D
:1004100050F821305A40491CA142F9D302F1AA00F8
:1004200010BD704772B6FEE790F82020012A07D071
:10043000022A05D0416A41F48021416201207047BF
:10044000006842690A43426100207047F0B590F8A5
:1004500020500468A468012D05D0022D03D0416A04
:1004600041F480214DE014F0406F01D1E50045D505
:10047000C4F301640125A5401D608B684FF4C0756D
:100480009BB1CE6833434E6843EAC603066805EB6A
:100490000417F3514FF4C273076803EB04130E699A
:1004A000FE50097D012905D009E00E88CB6843EA9A
:1004B0004653EBE70168CE5846F48076CE5011796A
:1004C000D2F805304FF4C67641EA0321036806EB03
:1004D000041699511178D2F801204FF4C47341EAFF
:1004E0000221026803EB0413D150006805EB0411EC
:1004F000425842F0010242500020F0BD416A41F4EE
:10050000001141620120F0BD10B590F82020012AB1
:1005100007D0022A05D0416A41F4802141620120BE
:1005200010BD3B48D0F8002242F00102C0F8002282
:10053000D0F8002222F47C52C0F80022D0F8002229
:100540004B6A42EA0322C0F800220A7D02F01F0330
:1005500001229A40D0F81C329343C0F81C32CB6978
:10056000B3B9D0F80C329343C0F80C328C894B6885
:1005700064F31F434C6900EBC404C4F840320C8997
:100580000B6864F31F434C6900EBC404C4F84432A5
:10059000CB69012B16D1D0F80C321343C0F80C32C2
:1005A0000C884B6864F31F434C6900EBC404C4F827
:1005B00040320C89CB6864F31F434C6900EBC404E0
:1005C000C4F844328B69002BD0F804320ED01343A8
:1005D000C0F804320B69002BD0F8143208D0134352
:1005E000C0F81432096A012904D008E09343EFE708
:1005F0009343F5E7D0F81C121143C0F81C12D0F851
:10060000001221F00101C0F80012002010BD00000E
:1006100000640040AFF30080406A704770B590F806
:100620002040012C05D0022C03D0416A41F48021E6
:1006300028E0046809B32469A40720D04FF4D874D3
:10064000056804EB01142D5915F004059560056843
:100650002D591AD0ED08556005682C5904F0020494
:10066000D4604FF4DA74056804EB01142E5906F0D7
:100670000F06082E0CD308250DE0E468DCE7416A7C
:1006800041F400114162012070BD6D0D1560E3E77A
:100690002D5905F00F05156105682D59C5F307257E
:1006A000956105682C59240C54614FF4DC72046880
:1006B00002EB0112A4581C700468A458240A5C7050
:1006C0000468A458240C9C700468A258120EDA70B6
:1006D0004FF4DE72046802EB0112A4581C71046826
:1006E000A458240A5C710468A458240C9C71046802
:1006F000A258120EDA71006829B1016941F0200197
:100700000161002070BDC16841F02001C160F8E7BF
:100710002DE9F05F0546006800244669D0F8049092
:100720008768D0F80CB0D0F810A0D0F81880F10786
:1007300048D0F90714D001218160B80703D52846B5
:1007400000F083FA0CE0780702D54FF4006407E06C
:10075000380702D54FF4805402E0284600F074FABE
:10076000F80516D529684FF480708860B80503D560
:10077000284600F06CFA0CE0780502D544F40054E9
:1007800007E0380502D544F4804402E0284600F032
:100790005DFAF80316D529684FF480308860B803F5
:1007A00003D5284600F055FA0CE0780302D544F44E
:1007B000004407E0380302D544F4803402E02846C0
:1007C00000F046FA300707D55FEACB6004D5296808
:1007D000102044F40074C86070074FF0080707D574
:1007E0005FEA0B7004D52868C760284600F0ACF9B2
:1007F000B00706D52868C068800702D0284600F0F8
:10080000A5F9700607D55FEACA6004D529681020EB
:1008100044F480640861B00607D55FEA0A7004D525
:1008200028680761284600F0BFF9F00606D5286859
:100830000069800702D0284600F0B8F9B00308D557
:100840005FEAC96005D5296810204860284600F095
:10085000CFF9F00307D55FEA097004D5286847602F
:10086000284600F0F7F9300446D55FEA497040D5D4
:10087000F00504D55FEAC87001D044F00104B0056A
:1008800004D55FEA887001D544F00204700504D5F0
:100890005FEA487001D544F00404300529D518F00A
:1008A000700F26D008F07000402815D006DC102804
:1008B00009D020280AD0302816D10AE050280ED0BE
:1008C000602811D10EE044F008040DE044F010045B
:1008D0000AE044F0200407E044F0400404E044F05F
:1008E000800401E044F480742868816921F070017B
:1008F0008161296804204860002C05D0686A204383
:1009000068622846FFF786FEBDE8F09F70B50400D8
:1009100003D094F8200010B104E0012070BD2046FF
:1009200000F082F82068016841F00101016000F0E8
:10093000EBFB0546052604E000F0E6FB401B0A2819
:1009400011D820684068C007F6D02068016821F0FF
:100950000201016000F0D8FB05460BE000F0D4FB7B
:10096000401B0A2806D9606A40F40030606284F8AF
:100970002060D2E7206840688007EFD4207E0128FD
:10098000206801683DD021F080010160607E01286F
:100990002068016838D021F040010160A07E012864
:1009A0002068016833D021F020010160E07E012839
:1009B000206801682ED041F010010160207F0128DD
:1009C0002068016829D021F008010160607F0128BA
:1009D0002068016824D021F004010160D4E90201FB
:1009E0000843D4E90412114308436168491E0843CF
:1009F0002168C86100206062012084F82000002086
:100A000070BD41F08001C0E741F04001C5E741F011
:100A10002001CAE721F01001CFE741F00801D4E737
:100A200041F00401D9E700002DE9F04387B0044606
:100A300014216846FFF72CFC3F49404ADFF8F48058
:100A40004868D4F800C03D4B022403250926DFF88E
:100A5000F09010320027401CC4452BD1486001287B
:100A600007D1106840F000701060106800F000704E
:100A70000590186840F0020018601868694600F098
:100A8000020005904FF440708DE89100CDE90356C7
:100A9000484600F053FA00220121142000F0A2FB86
:100AA000142000F091FB00220121152000F09AFB98
:100AB00015203AE0DFF88C80C44538D1D2F800C068
:100AC0004CF0806CC2F800C0D2F800C001280CF0D5
:100AD000806CCDF814C0486007D1106840F00070F9
:100AE0001060106800F000700590186840F0020077
:100AF00018601868694600F0020005904FF44050F5
:100B00008DE89100CDE90356484600F017FA00221F
:100B10000121412000F066FB412000F055FB00223E
:100B20000121402000F05EFB402000F04DFB07B0AB
:100B3000BDE8F0830064004000000020303802402F
:100B400000040240006800407047000010B58AB001
:100B5000044607AB6A460021FFF760FD00281AD162
:100B60000E4A21680E48914207D1018807AA491C04
:100B7000018004988821C3B20AE00A4A91420AD14E
:100B8000418807AA491C4180049840F68801C3B2F5
:100B90002046FFF7C7FB0AB010BD0000006400400C
:100BA00000000020006800407047000010B58AB0C7
:100BB000044607AB6A460121FFF730FD002807D144
:100BC000084A20680849904204D10888401C0880DF
:100BD0000AB010BD054A9042FAD14888401C4880AE
:100BE000F6E70000006400400000002000680040BC
:100BF000704770B5044690F82000012804D0606A60
:100C000040F40020606217E0022084F82000206891
:100C1000016821F00101016000F076FA05460DE05F
:100C200000F072FA401B0A2808D9606A40F40030CC
:100C30006062052084F82000012070BD20684068B3
:100C4000C007EDD1606270BD704770477047704754
:100C500070477047704700002DE9F84304464FF095
:100C60000009CDF8009063484FF41651A56D006857
:100C7000B0FBF1F72E6894F85C20082101FA02F02D
:100C800030420FD02068026852070BD5026822F06C
:100C90000402026094F85C008140A960606D40F03D
:100CA0000100606594F85C104FF0010808FA01F04B
:100CB000304208D021684969090604D5A860606DF2
:100CC00040F00200606594F85C10042088403042D7
:100CD00008D021680968890704D5A860606D40F0D4
:100CE0000400606594F85C1010208840304218D0F1
:100CF00021680968090714D5A860206801684903BC
:100D000004D50068000308D5A16C07E00168C90597
:100D100003D4016821F008010160216C09B120466B
:100D2000884794F85C1020208840304231D02168F8
:100D30000968C9062DD5A86094F8350005282068F3
:100D4000016806D0490347D5006800031DD4616CD3
:100D50001CE021F0160101602068416921F080014A
:100D60004161206C08B9A06C20B12068016821F0B5
:100D70000801016094F85C103F208840A86084F866
:100D8000358084F83490216D1FE0E16B09B1204675
:100D90008847606D00282BD0606DC00714D00520F7
:100DA00084F835002068016821F001010160009895
:100DB000401C0090B84203D820680068C007F6D1F4
:100DC00084F8358084F83490E16C002910D001B0AB
:100DD0002046BDE8F04308470168C905D5D401683D
:100DE00021F01001016084F8358084F83490CCE75C
:100DF000BDE8F883140000202DE9F041044600F01E
:100E000083F905465CB1022084F83500002684F899
:100E100034602068016821F0010101600DE00120CB
:100E2000BDE8F08100F070F9401B052805D92020AD
:100E30006065032084F83500F2E720680068C00789
:100E4000F0D121680A6820480240D4E90103184320
:100E5000D4E903352B43184363691843A369184346
:100E6000E3691843236A18431043626A042A03D1D2
:100E7000D4E90B231A431043086020684069656A6F
:100E800020F0070128460D43012704280CD1A06A51
:100E90000543E06A40B12046FFF774FA20B14020D4
:100EA000606584F83570BAE7206845612046FFF731
:100EB00055FA94F85C203F2191408160666584F882
:100EC00035700020ACE700003F8010F02DE9F041C4
:100ED0000446866D90F83400002501280DD00120CD
:100EE00084F8340094F835700020012F07D084F87E
:100EF000340002252846BDE8F0810220FBE70227E6
:100F000084F8357060652046FFF766FA94F85C1047
:100F10003F208840B0602068016841F01601016000
:100F2000206C20B12068016841F008010160206850
:100F3000016841F001010160DCE700002DE9F84F94
:100F4000DFF890910022A9F1040B03274FF00F0C5A
:100F500009F1040AABF1040E01250B6895402B4002
:100F6000AB426ED10C7904F00304012C01D0022CA9
:100F700015D18668540007FA04F826EA0806D1F865
:100F80000C8008FA04F848EA0608C0F808804468AB
:100F9000AC430D79C5F300159540254345600C79A8
:100FA000E443A40708D0C568540007FA04F6B54323
:100FB0008E68A6402E43C6600C7904F00304022C10
:100FC00011D1D40800EB8406356A5407E40E0CFAFC
:100FD00004F825EA0805D1F8108008FA04F848EA70
:100FE0000508C6F820800568540007FA04F6B543E2
:100FF0000E7906F00306A6402E4306604C6814F4F2
:10100000403F61D0344C256845F480452560246814
:1010100022F0030504F480440094304C05EB0408EE
:10102000D8F808589407260F0CFA06F4A5432C4C60
:10103000A04201D100241FE02A4CA04202D1012489
:101040001AE041E0284CA04201D1022414E0274CD0
:10105000A04201D103240FE0254CA04201D1042479
:101060000AE0244CA04201D1052405E0224CA04214
:1010700001D1062400E00724B4402C43C8F80848F6
:10108000D9F800404D464E689C43F60200D51C43FB
:101090002C60DAF8004055464E689C43B60200D5F5
:1010A0001C432C60DBF800405D464E689C43B60351
:1010B00000D51C432C60DEF8004075464E689C430A
:1010C000F60300D51C432C60521C102AFFF444AFD9
:1010D000BDE8F88F083C0140443802400030014030
:1010E000000002400004024000080240000C0240E0
:1010F0000010024000140240001802400AB1816151
:1011000070470904FBE70000014880687047000051
:10111000080000200248816802781144816070470D
:10112000080000200B4810B5016841F4007101600F
:10113000016841F480610160016841F480710160DF
:10114000032000F06FF80F2000F006F800F024F8FC
:10115000002010BD003C024070B50D4D04464FF418
:101160007A712878B1FBF0F00A490968B1FBF0F018
:1011700000F0EEFC48B9102C07D200222146501E88
:1011800000F030F800206C6070BD012070BD0000E0
:1011900008000020140000200A4808B5016841F446
:1011A00080410160006800F4804000900548001F05
:1011B000016841F080510160006800F080500090AB
:1011C00008BD000044380240002809DB00F01F027F
:1011D000012191404009800000F1E020C0F8001199
:1011E00070470000F0B40E4B1B68C3F30223C3F139
:1011F0000704042C00D904241D1D072D01D200234F
:1012000000E0DB1E012606FA04F56D1E0D409D4030
:101210009E40761E164045EA0601F0BC01F069B812
:101220000CED00E0064A00F0070110684FF6FF03DE
:10123000184040EA0120034908431060704700004D
:101240000CED00E00000FA052DE9F84317480168AD
:1012500041F0805101600068DFF8548000F0805058
:1012600001270090C8F84070FFF74EFF04464FF486
:101270007A75104E04E0FFF747FF001BA8420DD817
:101280007068C003F7D5C8F84470FFF73DFF044607
:1012900007E0FFF739FF001BA84202D90320BDE891
:1012A000F88370688003F4D50020F8E740380240E6
:1012B00000000E42007000402DE9F0470D4604008A
:1012C00065D0DFF81491D9F80000EFB200F00F00FC
:1012D000A84207D289F80070D9F8000000F00F008A
:1012E000A84254D120683D4E810712D5400703D54E
:1012F000306840F4E05030602078000703D5306853
:1013000040F4604030603068A16820F0F00008438D
:1013100030602078C0072DD0304960680839012836
:1013200012D0022813D0032811D009688907002998
:101330002DDA316821F0030101433160FFF7E4FE4B
:10134000804641F2883A0EE009688903EFE70968B0
:101350008901ECE7FFF7D8FEA0EB0801514502D95F
:101360000320BDE8F0873068616800F00C00B0EB46
:10137000810FEFD1D9F80010484601F00F01A942C2
:1013800007D90770006800F00F00A84201D00120C3
:10139000E7E72078400705D53068E16820F4E050A1
:1013A000084330602078000706D53068216920F4B2
:1013B000604040EAC100306000F038F83168084A07
:1013C000C1F30311515CC840064908600648006833
:1013D000FFF7C2FE0020C4E7003C0240083802408C
:1013E0000A240008140000200C00002004480549CD
:1013F00000680968044AC1F38221515CC840704703
:1014000014000020083802401A2400080448054946
:1014100000680968044AC1F34231515CC840704712
:1014200014000020083802401A240008224810B591
:10143000006810F00C01214815D04310042911D088
:101440001D4C241F08290FD00C290CD1216801F054
:101450003F022168490221D52068C0F38810A0FB13
:10146000030120E0184610BD216801F03F02216809
:10147000490205D52068C0F38810A0FB030104E0F1
:101480002168C1F38811A1FB00010023FEF7B6FE1D
:101490002168C1F30141491C49000AE02168C1F3F8
:1014A0008811A1FB00010023FEF7A8FE2168C1F30B
:1014B0000271B0FBF1F010BD083802400024F400C6
:1014C0002DE9F84F040078D02078DB4EC007A6F154
:1014D00004054ED0301D0168C1F3810101290FD0F0
:1014E0000168C1F38101022902D13168490207D4A0
:1014F0000068C0F38100032809D13068400206D596
:101500002868800335D560680028DCD031E0606849
:10151000B0F5803F10D0B0F5A02F286810D020F48F
:1015200080302860286820F4802028606068A0B19E
:10153000FFF7EAFD07460CE0286840F48030F4E746
:1015400040F480202860F7E7FFF7DEFDC01B642829
:1015500075D828688003F7D50BE0FFF7D5FD07465F
:1015600004E0FFF7D1FDC01B6428F1D82868800390
:10157000F7D42078DFF8C4A280074FF0000B44D5E1
:10158000AD48001D016811F00C0F0FD00168C1F3C8
:101590008101022902D13168490207D50068C0F3F0
:1015A000810003280AD13068400207D428688007E8
:1015B00015D5E068012800D111E038E1E068B0B14C
:1015C0000120CAF80000FFF79FFD074604E0FFF77F
:1015D0009BFDC01B0228BBD828688007F7D5286868
:1015E000216920F0F80040EAC10028600DE0CAF847
:1015F00000B0FFF789FD074604E0FFF785FDC01B3B
:1016000002281CD828688007F7D42078000726D540
:10161000DFF824828A48616908F1700881B10121EC
:101620000160FFF771FD074604E0FFF76DFDC01B89
:10163000022804D8D8F800008007F6D50FE089E02A
:10164000C0F800B0FFF760FD074604E0FFF75CFD5F
:10165000C01B02287ED8D8F800008007F6D4207876
:10166000400769D574484FF000093C300068C0005D
:101670000BD471483C30016841F080510160006832
:101680004FF0010900F0805000906E480168C905D4
:1016900011D40168804641F480710160FFF734FD88
:1016A000074604E0FFF730FDC01B022852D8D8F8E7
:1016B0000000C005F6D5604FA0686C3701280FD038
:1016C0000528386810D020F001003860386820F014
:1016D00004003860A068B8B1FFF716FD80460FE03F
:1016E000386840F00100F4E740F004003860F7E7A4
:1016F000FFF70AFDA0EB080141F28830814263D870
:1017000038688007F4D50EE0FFF7FEFC804607E05E
:10171000FFF7FAFCA0EB080141F28830814253D870
:1017200038688007F4D4B9F1000F05D042483C3046
:10173000016821F080510160A069B0B33E49091DE4
:101740000968C1F38101022945D00228CAF860B0B6
:1017500005D000E038E0FFF7D7FC044637E0FFF79C
:10176000D3FC074604E0FFF7CFFCC01B02282BD8B0
:1017700028688001F7D4F4E907010843E168324A98
:10178000490802EB0141A26841EA82110843217C29
:1017900040EA0160217D40EA017030600120CAF812
:1017A0006000FFF7B1FC044605E042E0FFF7ACFC47
:1017B000001B022808D828688001F7D539E0FFF718
:1017C000A3FC001B022802D90320BDE8F88F28687B
:1017D0008001F4D42DE00128F7D03068E26900F4EC
:1017E0008001914223D1226A00F03F0191421ED133
:1017F00047F6C071626A0140B1EB821F17D1A26A3D
:101800004FF0FF3300F4403103EB5202B1EB024FD3
:101810000DD194F82C2000F07061B1EB026F06D16D
:1018200094F8301000F0E040B0EB017F01D00120CF
:10183000CBE70020C9E7000004380240000047421F
:10184000800E4742007000400000FFFF054A01681B
:10185000914206D104490022CA7001228A7000F028
:1018600005B870470030014018000020406D7047F7
:1018700070B5040009D0606A002540B1256165613A
:10188000A56294F8510040B10CE0012070BD606881
:10189000B0F5827FF4D0E561F2E784F8505020463D
:1018A00000F044F8022084F851002068016821F01B
:1018B00040010160A088218900F4827001F4044194
:1018C0000843A18901F400610843217C01F0020171
:1018D0000843217D01F001010843218B01F40071CF
:1018E0000843217F01F03801084394F8201001F0EB
:1018F00080010843218D01F40051084321680860EC
:10190000A069042101EA104094F8241001F01001AC
:101910000843216848602068C16921F40061C16101
:101920006565012084F85100002070BD2DE9F04765
:1019300086B0044614216846FEF7AAFC2E492068AA
:10194000884256D12D480025016841F4805101603C
:10195000006800F48050059028481438016841F070
:10196000010101600068694600F001000590F02067
:1019700000900220CDE9010503200390052004908A
:101980001F48FFF7DBFA204E1E484FF0C06730605B
:10199000C6E901754FF48068C6E9035806F11801DD
:1019A0004FF480794FF4003A756181E820063046A3
:1019B0007562FFF721FA08B1FEF734FDE664B463FF
:1019C000114E104860364830E6E802074020A6E88D
:1019D000210146F8145906F1180080E820060A484B
:1019E00075626030FFF708FA08B1FEF71BFDA664C8
:1019F000B46306B0BDE8F0870030014044380240CF
:101A00000000024010640240C4000020704770478C
:101A100070B5044690F851006568012806D0B5F508
:101A2000827F3AD1A568A5BB042836D191B38AB389
:101A300083B394F8500001282FD0012084F850007F
:101A400094F85100042802D0052084F851000025A4
:101A500065652163A386E386A263A387E387256484
:101A6000656494F85100042819D0E16C2748086493
:101A70002748E16CC863E16C2648C864E06C0565E2
:101A8000E38F2168A26B0C31E06CFFF71FFA00BBFB
:101A90000AE002E0FFE7012070BD022070BDE16CAA
:101AA0001D4808641D48E4E72068416841F00101D1
:101AB0004160A06C0564A06CC563A06CC564A06C9B
:101AC0000565E38E2268216B0C32A06CFFF7FEF9EE
:101AD00030B1606D40F01000606584F85050DAE776
:101AE00020680168490603D4016841F040010160A3
:101AF00084F850502068416841F02001416020681E
:101B0000416841F002014160002070BDD91E00080B
:101B10004D1F0008AD1E0008CF1E0008E31E000880
:101B200000680349884202D1024901204870704789
:101B3000003001401800002000680349884202D1AB
:101B40000249012008707047003001401800002051
:101B500010B5401EB0F1807F01D3012010BD4FF0C1
:101B6000E02460610F21601700F0C3FB0020A0613A
:101B700007202061002010BD70B5040004D094F847
:101B80004100002510B106E0012070BD84F84050EE
:101B9000204600F023F8242084F841002068C16822
:101BA00021F40051C160204600F01CFB206801694F
:101BB00021F4904101612068416921F02A014161CD
:101BC0002068C16841F40051C1606564202084F838
:101BD000410084F842006563002070BD10B586B0F6
:101BE000044614216846FEF753FB134920688842D7
:101BF00020D112480021026842F4003202600068DD
:101C000000F4003005900D481038026842F00102DF
:101C10000260006800F0010005900C200090022096
:101C2000CDE9010103200390072004906946044890
:101C3000FFF784F906B010BD004400404038024070
:101C400000000240FEE7000030B58BB02821684656
:101C5000FEF71EFB1F481E49002401600321C0E956
:101C600001144FF43021C0E903414FF48011416168
:101C70000476012545768476C57604774477FEF7A9
:101C800045FE08B1FEF7CEFB0E2003940494CDE987
:101C90000850CDE9064505940094019402946946E4
:101CA0000C48FEF731FC08B1FEF7BCFB0948FEF713
:101CB000A0FF08B1FEF7B6FB48F20E410548FEF75B
:101CC000B3FB002801D0FEF7ADFB0BB030BD000028
:101CD000006400401C00002030B58BB0282168460D
:101CE000FEF7D6FA20481F49002401600321C0E90D
:101CF00001144FF43021C0E903414FF480114161D8
:101D00000476012545768476C57604774477FEF718
:101D1000FDFD08B1FEF786FB0E20CDE906540990C3
:101D200005904FF48040CDE9004003940294694649
:101D30000D4808950494FEF7E7FB08B1FEF772FB27
:101D40000948FEF756FF08B1FEF76CFB48F20E415A
:101D50000548FEF769FB002801D0FEF763FB0BB0D6
:101D600030BD000000680040440000200D4808B568
:101D7000016841F4800101600068002200F48000E5
:101D8000009011463820FFF72DFA3820FFF71CFA93
:101D9000002211463B20FFF725FABDE808403B2012
:101DA000FFF712BA3038024030B587B014216846C8
:101DB000FEF76EFA1A480024016841F080010160C4
:101DC000016801F080010591016841F001010160A5
:101DD000016801F001010591016841F00401016011
:101DE000016801F004010591016841F00201016000
:101DF00000680C4D00F002000590002220212846CA
:101E0000FFF77CF920210120CDE900100220CDE967
:101E1000020469462846FFF791F807B030BD00007C
:101E200030380240000802400D4810B50B490160EF
:101E3000002141608160C160016141618161016295
:101E4000416281620A21C162FFF712FD002803D0BE
:101E5000BDE81040FEF7E6BA10BD000000300140BA
:101E60006C0000200C4810B50A4901604FF4E131C4
:101E70004160002181600C22C160C0E904128161CF
:101E8000C161FFF779FE002803D0BDE81040FEF7DE
:101E9000C9BA10BD0044004084010020FEE7FEE7FF
:101EA000704701EB011100EB8100704710B5806BAA
:101EB00001684A6822F003024A60416D41F0100156
:101EC0004165012180F85110FFF7C0FC10BD10B52D
:101ED000806BFFF79CFD10BD10B5806BFFF72CFEEB
:101EE00010BD70B50546846BFFF70EF902462868F1
:101EF0000068C00526D42068416821F020014160B7
:101F0000A06818B96068B0F5827F16D02068416873
:101F100021F0010141606421204600F044F808B13D
:101F2000202060650020E087012084F85100606D6A
:101F300040B12046FFF78AFC70BD2068416821F05F
:101F40000301E7E72046FFF761FD70BD70B5054668
:101F5000846BFFF7D9F8024628680068C0051ED4D4
:101F60002068416821F0200141606421204600F092
:101F700049F818B1606D40F0200060652068416844
:101F800021F0030141600020E086E087012084F811
:101F90005100606D18B12046FFF758FC70BD204617
:101FA000FFF7BEFD70BDF8B5044640684FF482737C
:101FB000984221D1A0684FF48065B0F5004F01D060
:101FC000A8420AD12068066826F0400606606068CC
:101FD000984211D1A068A8420ED000920B46002270
:101FE0008021204600F044F8002804D0606D40F0C5
:101FF000200060650320F8BD00920B4600220121FD
:10200000EFE70000F8B515460E460B460092044671
:102010000122022100F02CF8A0B9134813490068EE
:10202000B0FBF1F04FF47A71484300906068B0F56E
:10203000827F0DD13346002280212046009500F09A
:1020400017F870B1606D40F0200060650320F8BDA6
:10205000009830B1401E009020688068C0430006A0
:10206000F6D50020F8BD00001400002000366E01F7
:102070002DE9F8431E46914688460446089DFFF721
:1020800043F8401B351AFFF73FF80746264800681B
:10209000C0F3CB3068430AE0701C09D0FFF734F876
:1020A000C01BA8420FD275B10098B8B3401E009073
:1020B0002068816838EA010033D000204845EBD120
:1020C0000020BDE8F8832068416821F0E00141600C
:1020D0006068B0F5827F0BD1A068B0F5004F02D0E8
:1020E000B0F5806F04D12068016821F040010160E3
:1020F000A06AB0F5005F09D12068016821F40051A1
:1021000001602068016841F400510160012084F8F9
:102110005100002084F850000320D2E7FFE700259B
:10212000C6E70120CAE70000140000207047FEF750
:10213000F1BF000010B594B034216846FEF7A8F84E
:1021400014210DA8FEF7A4F820480024016841F0EE
:1021500080510160006800F0805012901C480168B6
:1021600041F440410160006800F4404012900120B9
:1021700000900004019002204105CDE906010421F0
:102180000891B421CDE909100B900C906846FFF737
:1021900097F908B172B6FEE7FFF756F808B172B6C4
:1021A000FEE70F200D900320CDE90E044FF4A05060
:1021B00010904FF48050119005210DA8FFF77CF886
:1021C000002801D072B6FEE714B010BD40380240BE
:1021D000007000400248016841F4700101607047DE
:1021E00088ED00E070B5044600680169E26821F4FA
:1021F000405111430161A1682069E26901436069AE
:10220000104301432068C26849F20C639A430A43B1
:10221000C26020684169A26921F4407111434161A3
:1022200031492068884202D03049884202D1FFF704
:10223000EDF801E0FFF7DAF8E269002319216425DF
:102240003226B2F5004F626828D0A0FB0101930F3F
:102250009200FDF7D3FF0146B0FBF5F06FF01802D6
:10226000504301EB800006EB0010B0FBF5F000F0EE
:10227000F002B1FBF5F002EB0012B1FBF5F06FF0EC
:102280001803584301EB800006EB0010B0FBF5F09B
:1022900000F00F0021681044886070BDA0FB0101B0
:1022A00092185B41FDF7AAFF0146B0FBF5F0020171
:1022B000B1FBF5F06FF01803584301EB800006EB1B
:1022C000C000B0FBF5F000F0F80002EB4002B1FBFB
:1022D000F5F0584301EB800006EBC000B0FBF5F0D1
:1022E00000F00700D6E70000001001400014014094
:1022F000FEE70907090E002804DB00F1E02080F862
:102300000014704700F00F0000F1E02080F8141D69
:10231000704702E008C8121F08C1002AFAD17047AE
:102320007047002001E001C1121F002AFBD1704755
:102330002DE9F041164C00274FF03F0820783E462B
:1023400001280FD1002000F027F8D0F83F50414677
:10235000FEF756F8A84204D1424639460D48FDF72B
:102360007EFF2670607801280FD100F015F807462F
:10237000D0F83F504146FEF743F8A84204D1424608
:1023800039460448FDF76BFF6670BDE8F081000038
:1023900018000020DC02002001460148FFF781BD43
:1023A000CC01002010B5094C002020706070A07096
:1023B000E070074A882302F188010648FFF728FBEE
:1023C00008B1FEF72FF80120E07010BD18000020C2
:1023D000CC0100206C000020FEF7A4FEFFF7AAFE4F
:1023E000FFF7E2FCFFF7C2FCFFF72EFCFFF774FCDF
:1023F000FFF71AFDFFF736FDFFF7D4FFFFF798FF51
:10240000FCE7000610160006101600000000000091
:102410000000010203040607080900000000010291
:102420000304000044240008000000201C000000F9
:1024300012230008602400081C000020040700008C
:10244000222300080000000000000000010000003E
:1024500010000000000000000024F4000000000054
:04000005080001C529
:00000001FF
